:020000040800F2
:1000000000500020310100088F090008B11A0008D3
:100010008F0900088F0900088F0900080000000000
:100020000000000000000000000000008F09000830
:100030008F090008000000008F0900088F090008E0
:100040008F0900088F0900088F0900088F09000830
:100050008F0900088F0900088F0900088F09000820
:100060008F0900088F0900088F0900088F09000810
:100070008F0900088F0900088F0900088F09000800
:100080008F0900088F0900088F0900088F090008F0
:100090008F0900088F0900088F0900088F090008E0
:1000A0008F0900088F0900088F0900088F090008D0
:1000B0008F090008810300088F0900088F090008D4
:1000C0008F0900088F0900088F0900088F090008B0
:1000D0008F0900088F0900088F0900088F090008A0
:1000E0008F0900088F090008000000008F09000830
:1000F0008F0900088F0900088F0900088F09000880
:100100008F0900088F0900088F0900088F0900086F
:100110008F0900088F0900088F0900088F0900085F
:100120008F0900088F0900088F0900088F0900084F
:1001300000F02EFC084809490022814201D004C089
:10014000FBE707480749084A814202D008CA08C0AD
:10015000FAE700F085F800DE00000020040000202F
:100160000000002000000020BC200008F0B503AF14
:100170004DF8048D82B041F200058046C4F20205BC
:10018000284600F072F9B0F1804F4FD305F55F2695
:10019000B0424BD204244001C4F20024012121507A
:1001A000284600F064F9B0F1804F3FD3B0423DD211
:1001B000400101212150284600F059F9B0F1804F4B
:1001C00034D3B04232D2400100212150404600F0E9
:1001D0005AFA4DF68361C4F21B31A0FB0112910C57
:1001E00043F609524A43A0EB821058BB481EB0F5B3
:1001F000803F3FBF40F22841C4F20001086002B0D6
:100200003CBF5DF8048BF0BD41F6544041F64443D9
:10021000C0F6000001AA009041F61840C0F60000A8
:10022000C0F600032B2100F0F2FBFEDE41F6D020E9
:1002300041F67432C0F60000C0F60002492100F019
:10024000CFFBFEDE41F6843041F60842C0F60000E6
:10025000C0F60002272100F0C3FBFEDE70477047A6
:1002600080B56F4600F095FB40F201000121C2F21B
:10027000000001704EF21D40CEF20000F02101702E
:100280004EF20010CEF200004FF00051016000F07D
:1002900003F800F080FBFCE7F0B503AF4DF804BDB8
:1002A000A4B040F200000126C2F20000067000F087
:1002B0002FFB00F038FB00F041FB00F014FB07F8C7
:1002C000950CA7F1950000F044FB23AC2046214695
:1002D00000F0AEF82046032100F08FF803A800F0EC
:1002E0000FFB00F00CFB45F200104AF20021C0F2B7
:1002F0002520C0F24A41CDE91D60CDE91760CDE966
:10030000156041F20020C0F27A00CDE91B61CDE911
:10031000196113A9CDE913600FA800F0BBF90FAB69
:100320000DF17C0C13AD0FCB8CE80F001FA92846F4
:10033000224600F09EF82846FFF718FF40F20040E2
:1003400041F69043C4F200001FAA0168C0F6000302
:1003500021F0010101604FF6FE710161002141624F
:1003600041F6AC40C0F600002B21009041F66440FD
:10037000C0F600008DF87C6000F049FBFEDE70479F
:10038000D0B502AF82B040F2040440F20500C2F2E0
:100390000004C2F20000217800F02FF8207800F06D
:1003A00025F840F20041C0B2C4F2000141F6E84332
:1003B0000A68C0F6000322F001020A604FF6FE72DE
:1003C0000A61A7F10902207000204862012007F8A5
:1003D000090C41F60450C0F600002B21009041F6B4
:1003E000BC40C0F6000000F012FBFEDE41F61451E6
:1003F00040B2C0F60001085C704748B241F6845133
:10040000C0F6000141F2100251F82010C4F20102BE
:10041000116041F62451C0F6000151F8201011601E
:1004200041F66451C0F6000151F820001060704799
:1004300041F204004FF40001C4F201000322C16044
:1004400050F8041C62F31F7140F8041C4FF08071D7
:10045000C160016862F3030101604FF00071C16087
:10046000016862F30711016070471C30704710305B
:100470007047F0B503AF2DE9000F85B00B7A93B14B
:10048000D1E900A640F60015C0F23D05BAF1010C15
:1004900018BF4FF0010CBAF1010F08BF35464E7A74
:1004A00002366E4310E00A68012A05D14E684FF00B
:1004B000000C4FF0010A07E041F200264FF0010C5A
:1004C000C0F27A064FF0000A8C7A4AF2002BCA7A00
:1004D000192503920B2C0A7B4FF000090292C0F2FF
:1004E0004A4B8A7B01922246049488BF1A250093C6
:1004F00083B1BCF1000F0DD1A6F13773A6EB0B044D
:10050000A3F5D843B4FA84F4B3FA83F364095B091E
:1005100044EA03090BF101039E423FBF049A1544CC
:1005200005F01F0526FA05F538BF9D4221D2039A32
:1005300045F20014C0F22524531D03F0070325FAE9
:1005400003FCA44515D8029A541D04F0070E25FAA1
:100550000EF8D8459FBF0224019A04EB4204E4B28E
:100560009FBFB8FBF4F449F68172C0F2D502944201
:100570000BD341F66C6041F6F862C0F60000C0F69D
:1005800000028B2100F02CFAFEDE0122C0E9005CA3
:1005900002FA0EF59A4080F81690C0E902860461CE
:1005A0004575027543F20160C0F26E10864208D3B1
:1005B000009B46F60040C0F2DC20864204D2312087
:1005C00006E03020009B03E04FF0320008BF3120EE
:1005D00042F20002BAF1000FC4F20202106041F2CE
:1005E0000000C4F2020010D0026842F480320260BF
:1005F0000268920309D4026892035CBF02685FEA52
:10060000823202D402689203F2D503B34268BAF18F
:10061000000F22F4741218BF02F580324B7A03F0F7
:100620000F0342EA83424260026842F08072026035
:10063000026892015FBF02685FEA821202685FEAA5
:10064000821202D402689201F2D54FF0020A497B6D
:100650000C22CFF6BF72002918BF0AF5800A416844
:100660001140019A41EA8231029A41EAC221039A79
:1006700041EA0221049A41EA02115144416005B065
:10068000BDE8000FF0BD4168007D012818BF0220C1
:1006900048437047F0B503AF2DE90007D1E900AC3E
:1006A00040F600130A6AC0F23D03BAF1010F08BF19
:1006B0006346012A17D1002B00F0EE804D6AB5FB8E
:1006C000F3F6721E0FD01024AB4288BF0124102A0B
:1006D00038BF34466343A4F102084FF0010E8A6824
:1006E000012A0DD014E041F20023BAF1000FC0F24C
:1006F0007A034FF0000E18BF63468A68012A07D1BB
:10070000CA68002A00F0D180B3FBF2F4022C34D284
:100710004FF0070909F1190404F01F0223FA02F649
:100720000A69012A01D14A6906E045F200143246FD
:10073000C0F22524A64203D2002A144600F0A3806A
:100740003219013AB2FBF4F4032C0ED24FF6F872D0
:10075000C0F2FF0202EAC40240F20334C0F2040411
:10076000D4408A69012A1CD113E0E21E032A08D270
:1007700005248A69012A0CD013E04DD14FF00809F5
:10078000C8E7A21F0724062A38BF06248A69012A5F
:1007900007D1CA69002A00F09180B6FBF2F2022A62
:1007A00013D203258A6A012A14D1C96A002900F0EC
:1007B0008E8005F11D0202F01F0226FA02F2B2FB42
:1007C000F1F2032A24D2002105E02AD104258A6A05
:1007D000012AEAD0032181734AF20021C0F24A4182
:1007E0008EF00102591A8AF00103057342EA0302EE
:1007F000C47280F80A9080F8098080F808E0C0E9A7
:1008000000AC18BF012111434173BDE80007F0BDE2
:10081000052A0DD20121DEE7062C0ED24FF0090980
:1008200078E7062A0ED205258A6A012ABDD0D1E7CB
:100830000321082A38BF0221CDE70C2C0AD24FF041
:100840000A0967E707250C2A38BF06258A6A012AA4
:10085000C0D1AAE7282C02D24FF00B095AE7602C2E
:1008600002D24FF00C090BE0C02C02D24FF00D0960
:1008700006E04FF00F09B4F5C07F38BF4FF00E0906
:1008800009F11A0448E741F6106041F63C62C0F6EF
:100890000000C0F6000222E041F6106041F600625E
:1008A000C0F60000C0F6000219E041F6106041F603
:1008B0002C62C0F60000C0F6000210E041F61060A5
:1008C00041F64C62C0F60000C0F6000207E041F6B7
:1008D000106041F65C62C0F60000C0F6000219210B
:1008E00000F07EF8FEDE40F280100121C4F24220CA
:1008F000C0F880110160002101600120704770473D
:100900000021816201628161016181600160704743
:1009100040F288100121C4F24220C0F88011016029
:1009200000210160704740F28C100121C4F2422086
:10093000C0F88011016000210160704740F2901002
:100940000121C4F24220C0F8801101600021016041
:1009500070470021022201700420C4F201000168E6
:1009600062F31A610160704700780A4638B141F6B7
:1009700008711046C0F600010F2200F0ABBD41F631
:100980001C511046C0F60001082200F0A3BDFEE78E
:10099000704772B6704700BF7047FEE70068FEE719
:1009A00070474FF29B4048F6F471C6F22C40C1F6F6
:1009B000D531704780B56F4686B0CDE9030141F669
:1009C0002070C0F600000122029041F61870C0F6B7
:1009D00000008DF81420019001A8FFF7DEFFFEDE75
:1009E00080B56F4688B0944641F61872C0F6000292
:1009F0000023CDE906016846049201226146019276
:100A000006AA059302930092FFF7D4FFFEDE80B59D
:100A10006F468EB08DE80F000AA9022008910021D0
:100A2000CDE90501099041F63470C0F60000B968BF
:100A3000049041F69B20C0F600000D9002A80C9097
:100A400041F6A520C0F600000B9068460A9004A865
:100A5000FFF7B0FFFEDEF0B503AF2DE9000F8FB05A
:100A60008A46012190460C91C8F100010491016869
:100A70000A224FF00009029141684FF0000B806894
:100A800000250D92CDE90A82CDF82490CDE907A882
:100A9000CDE90598019103900FE0501810F8010C72
:100AA0000A38B0FA80F04009039B18700198C368B7
:100AB000029898470028A14677D1002D70D1C345F0
:100AC0004CD8A8EB0B020AEB0B03082A1FD22AB35F
:100AD0000498002158445E5C0A2E2AD04618751CE2
:100AE00010D05D186C780A2C1DD0B41C0AD0AC78DC
:100AF0000A2C1DD0033605D0EE780A2E29D00431F9
:100B00004618E8D100201146012815D025E00A201A
:100B1000194600F0E5FC01280ED01EE0002100205F
:100B2000012809D019E001310120012804D014E086
:100B300002310120012810D10BEB010010F1010B53
:100B4000BDD0C345BBD81AF800000A218842B6D1EF
:100B50001EE0033101200128EED0C346C1451FD05D
:100B600001254C4646460398007848B1019841F665
:100B70001971C0F600010422C36802989847A0B911
:100B80000AEB0901B6EB09027FF487AF00208BE77F
:100B900000255C465E46039800780028E6D1EFE722
:100BA00000200FB0BDE8000FF0BD01200FB0BDE880
:100BB000000FF0BDF0B503AF2DE9000B8EB0044679
:100BC000007A48B1666801202072701C606020467F
:100BD0000EB0BDE8000BF0BDD4E900569146884642
:100BE0002868410719D441F6627041F65E71C0F67B
:100BF0000000C0F600010222002E08BF014608BF17
:100C00000122D5E90603DB6898470028DBD1D9F833
:100C10000C20404629469047D6E76EB9D5E9060133
:100C20000222CB6841F66071C0F60001984710B10E
:100C300001200026C8E72868059041F64470C0F6F8
:100C4000000001210C9001A80B902B1DE869029077
:100C5000A869019095F8200007F83D1CA7F13D0117
:100C600003918DF834000FCB069068690A9007A8AD
:100C70000EC005A94046D9F80C2090470028A2D103
:100C8000DDE90B010222CB6841F65C71C0F6000180
:100C9000984799E780B56F4682B00022802901927B
:100CA00001D201220BE002220B4662F39F13B1F541
:100CB000006F0BD28DF80530C02343EA91118DF8F7
:100CC000041001A9FFF7C7FE02B080BDB1F5803F57
:100CD00011D28DF80630E02343EA1133890962F31B
:100CE0009F118DF804308DF80510032201A9FFF73C
:100CF000B2FE02B080BD8DF807308B0962F39F13FE
:100D00008DF806300B0B890C62F39F131E2262F3E1
:100D1000DF018DF805308DF80410042201A9FFF7DA
:100D20009AFE02B080BDF0B503AF4DF804BD88B0A7
:100D3000019002AA91E8785042F22C011046C0F6C8
:100D4000000180E8785001A800F069F808B05DF86B
:100D500004BBF0BD0068FFF77EBE80B56F4682B071
:100D6000006800228029019201D201220BE00222B8
:100D70000B4662F39F13B1F5006F0BD28DF805306F
:100D8000C02343EA91118DF8041001A9FFF763FE17
:100D900002B080BDB1F5803F11D28DF80630E0235E
:100DA00043EA1133890962F39F118DF804308DF8FD
:100DB0000510032201A9FFF74EFE02B080BD8DF899
:100DC00007308B0962F39F138DF806300B0B890CEB
:100DD00062F39F131E2262F3DF018DF805308DF858
:100DE0000410042201A9FFF736FE02B080BDF0B561
:100DF00003AF4DF804BD88B0006802AA019091E8E5
:100E00007850104642F22C01C0F6000180E878507C
:100E100001A800F004F808B05DF804BBF0BDF0B51F
:100E200003AF2DE9000F8BB093460322DBF8086077
:100E30008DF82820202203920022002E0292CDE974
:100E400008010692049269D0DBF80C00002800F03B
:100E50008B80DBF800904FEA401A0138002420F024
:100E600078404FF000080130019009EB080042681B
:100E700042B1DDE9080359F80810DB6898470028FB
:100E800040F08C8006EB8800D0E90115D0E90532EE
:100E90000391017F8DF82810DBF81010029573B1D3
:100EA000012B08D101EBC20240F69D15C0F60005EA
:100EB0005368AB4201D0002302E01268126801239C
:100EC000CDE90432C2683019006972B1012A08D133
:100ED00001EBC00040F69D13C0F6000342689A4241
:100EE00001D0002202E0006800680122CDE906205E
:100EF000325951F8320001EBC2014A6802A9904709
:100F000000284BD1203408F10808A245ADD1DDF806
:100F10000490DBF80400814533D344E0DBF814008F
:100F200048B3DBF81010C60001380DF108080C1D9D
:100F3000DBF8001020F060400D1D00F101092A6867
:100F400032B1DDE90801CB6855F8041C984728BB8D
:100F500054F8040C414622689047F8B90834083E1A
:100F600005F10805EBD101E04FF00009DBF80400C2
:100F7000814506D317E04FF00009DBF804008145F6
:100F800011D2DBF80000494650F8311000EBC900DF
:100F90004268DDE90803DB68984720B101200BB007
:100FA000BDE8000FF0BD00200BB0BDE8000FF0BDA4
:100FB000F0B503AF2DE9000F87B0D7F80C909B4632
:100FC00094460646E9B1346814F0010000EB090AC2
:100FD0004FF02B0008BF4FF4881006906007D7F839
:100FE000088017D5BBF1100F45D2BBF1000F66D0BA
:100FF000ABF101000BF00301032862D2002062462E
:101000007DE0346809F1010A2D2006906007D7F8C9
:101010000880E7D44FF0000CB068002800F08B8007
:10102000CDF814B0D6F80CB0D34515D92007CDF8BB
:10103000108027D496F82000ABEB0A01E346032882
:1010400008BF0120820700F09B80012840F09A80B1
:101050004FF0000A084699E005986346D6E9064530
:1010600000902946069A204600F0E0F800286ED04D
:101070004FF001081EE060465946654600F0FAFA56
:10108000AC4653E03020746870604FF0010896F869
:1010900020006346CDF80C9002900598D6E906959D
:1010A00086F8208029460090069A484600F0BEF84F
:1010B000002856D0404607B0BDE8000FF0BD002024
:1010C00034E02BF003030020624612F9045B15F1B3
:1010D000410FC8BF013012F9035C15F1410FC8BFC1
:1010E000013012F9025C15F1410FC8BF013012F94D
:1010F000015C15F1410FC8BF0130043BE5D1A9B136
:1011000092F9003013F1410FC8BF013001290DD011
:1011100092F9013013F1410FC8BF0130022905D007
:1011200092F9021011F1410FC8BF01308244B0683A
:1011300000287FF475AFD6E906456346CDF800B0C8
:101140002946069A204600F071F800284FD1EB6836
:10115000204641464A4607B0BDE8000FBDE8F040D2
:1011600018470694ABEB0A00DDF81080441C013CE4
:1011700037D02A694846302190470028F7D036E01A
:101180008A4603E0480801314FEA510A7568441C59
:10119000D6E90686013C06D032694046294690478A
:1011A0000028F7D023E0B5F5881F20D005983146F8
:1011B00000904046069A5B4600F038F8B8B9F368EC
:1011C000404604994A46984788B90024A24521D050
:1011D000326940462946904701340028F6D0601E07
:1011E00019E0EB684846039A4146984730B14FF002
:1011F0000108404607B0BDE8000FF0BD02984FF06F
:10120000000886F8200006987060404607B0BDE8E8
:10121000000FF0BD50464FF00008504538BF4FF06A
:101220000108404607B0BDE8000FF0BDF0B503AFC0
:101230004DF8048DD7F808801C460D460646B2F5D9
:10124000881F08D02B6930461146984718B10120F5
:101250005DF8048BF0BD44B1EB6830462146424650
:101260005DF8048BBDE8F040184700205DF8048B62
:10127000F0BDF0B503AF2DE9000F81B08846D0F87E
:1012800008C001698146BCF1010F18BF01290AD1CC
:10129000012977D1D9F8140008EB020E4FF0000BAA
:1012A0004146461C0CE0D9E90601D2E040EA81152E
:1012B000A11CABEB0400B5F5881F00EB010B61D05E
:1012C000013E0C4628D074455CD0214611F9010B33
:1012D000B0F1FF3FC5B2ECDC607805F01F01DF2DF7
:1012E00000F03F00E2D9A378F02D03F03F0343EA7A
:1012F00080100DD3E37801F0070103F03F0343EAC8
:10130000801040EA8145B5F5881F3BD0211DD0E70C
:1013100040EA0135E11CCCE7744533D094F9000074
:10132000B0F1FF3F04DCC1B2E02928BFF02915D29B
:10133000BBF1000F09D0934506D218F90B0010F14C
:10134000400F02DA002101E0FCD1414600290CBF28
:1013500093468846BCF1000F18D175E0A37801F0E0
:101360000701607803F03F03E67800F03F009B013F
:1013700043EA003006F03F03184440EA8140B0F5EC
:10138000881FD5D19346BCF1000F5DD0D9F80C4031
:10139000BBF1100F0BD2BBF1000F0DD0ABF1010070
:1013A0000BF00301032809D20020424624E0404606
:1013B000594600F05FF936E0002034E02BF00303DB
:1013C0000020424612F9046B16F1410FC8BF0130EC
:1013D00012F9036C16F1410FC8BF013012F9026C0B
:1013E00016F1410FC8BF013012F9016C16F1410F1F
:1013F000C8BF0130043BE5D1A9B192F9003013F127
:10140000410FC8BF013001290DD092F9013013F10D
:10141000410FC8BF0130022905D092F9021011F125
:10142000410FC8BF013084420ED999F82020201AFC
:101430004646D11E18BF11468A0715D0012910D182
:1014400000210091014610E0D9F81C105A46D9F845
:101450001800CB68414601B0BDE8000FBDE8F04080
:1014600018474108013040080090D9F8044001F1C4
:10147000010AD9E90685BAF1010A06D02A6940466F
:10148000214690470028F6D008E0B4F5881F05D023
:10149000EB68404631465A46984720B1012001B0DA
:1014A000BDE8000FF0BDDDF800900026B14508D082
:1014B0002A6940462146904701360028F6D0711E21
:1014C00000E049460020494538BF012001B0BDE891
:1014D000000FF0BDD0E90630D0F80CC018466047C8
:1014E000F0B503AF2DE9000B5FFA80FCC81C20F0BB
:1014F0000300884225D0401A904228BF104600B30E
:10150000C0F1000E0023CC5C644565D00EEB0304F3
:10151000651C11D0CD186E7866456BD0A61C0BD01B
:10152000AE7866456CD0033406D0EC7864456DD057
:1015300004331EEB0304E6D1A2F10803984203D959
:101540001FE0A2F1080300204FF001360CFB06F566
:101550000E586E40A6F1013424EA060616F0803FCC
:1015600001BF0E1876686E40A6F1013404BF24EA6C
:10157000060616F0803F02D108309842E8D9904222
:101580004AD8824205D1002013461946BDE8000B17
:10159000F0BDA2EB000E0B18A0EB0208AEF10109A2
:1015A00000215C5C64451FD08945ECD05E187478DE
:1015B00064450FD008EB0104A51CE4D0B57865455F
:1015C0000FD00334DFD0F47864450CD004318E455D
:1015D000E7D1D8E701310B1801201946BDE8000B0F
:1015E000F0BD023100E003310B1801201946BDE8BF
:1015F000000BF0BD013301201946BDE8000BF0BD22
:10160000023301201946BDE8000BF0BD0333012071
:101610001946BDE8000BF0BD42F248031146C0F682
:1016200000031A4600F001F8FEDE80B56F4600F0B8
:1016300001F8FEDE80B56F468CB0CDE9000108A947
:101640000220069100210790CDE9030142F28C00AF
:10165000C0F6000001A9029041F68D10C0F600000E
:10166000CDE9090111460B906846089002A8FFF7E2
:10167000A1F9FEDEF0B503AF2DE9000F02460330FD
:1016800020F00300831A8B4298BF042B0BD931B191
:10169000481E01F00303032810D200202BE0002095
:1016A000BDE8000FF0BDA1EB030EBEF1040FEED3B9
:1016B0000EF0030C904238D1002074E021F00301B9
:1016C000002012F9046B16F1410FC8BF013012F966
:1016D000036C16F1410FC8BF013012F9026C16F10C
:1016E000410FC8BF013012F9016C16F1410FC8BF9C
:1016F00001300439E5D1ABB192F9001011F1410F7D
:10170000C8BF0130012B0DD092F9011011F1410F2A
:10171000C8BF0130022B05D092F9021011F1410F20
:10172000C8BF0130BDE8000FF0BDD143084403F04D
:101730000301032802D2002014461DE023F0030514
:101740000020144614F9046B16F1410FC8BF013094
:1017500014F9036C16F1410FC8BF013014F9026C83
:1017600016F1410FC8BF013014F9016C16F1410F99
:10177000C8BF0130043DE5D1A9B194F9005015F17D
:10178000410FC8BF013001290DD094F9015015F166
:10179000410FC8BF0130022905D094F9021011F1A0
:1017A000410FC8BF013013444FEA9E080021BCF12D
:1017B000000F1AD02EF003021A4492F9006016F1BD
:1017C000410FC8BF0121BCF1010F0ED092F9016099
:1017D00016F1410FC8BF0131BCF1020F05D092F9DB
:1017E000022012F1410FC8BF013108444FF0FF1C25
:1017F0000FE00CEA1B222BF0FF242244A8EB09087F
:101800000EEB890319F0030102EB024200EB1240D8
:101810003ED1B8F1000F3FF485AFB8F1C00FC1461B
:1018200028BF4FF0C00919F0FC029E464FF0000B94
:1018300003EB820ADDD07346002B1FBFD3E900659E
:10184000D3E90212F443E4091FBF44EA961424F0DA
:10185000FE345C44EE431FBFF60946EA951525F0B9
:10186000FE352C441FBFCD43ED0945EA911121F00F
:10187000FE311FBF2144D443E40944EA92121FBF42
:1018800022F0FE3202EB010B10335345D4D1B0E706
:10189000BEF1000F22D0DAF8002001296FEA02031E
:1018A0004FEAD31343EA921222F0FE3317D0DAF84C
:1018B000042002296FEA02064FEAD61646EA92127F
:1018C00022F0FE3213440AD0DAF80810CA43D209D3
:1018D00042EA911121F0FE310B4400E00023FF2188
:1018E00023F0FF22C0F2070101EA1321114401EBAA
:1018F000014100EB1140BDE8000FF0BDB0B502AFF3
:1019000084B00C460090D1E906010F22CB6842F268
:101910009C01C0F6000198478DF80C00002042F2AF
:10192000AC028DF80D00029001A86946C0F60002D5
:101930000194FFF73FF902989DF80C4000B30CB1F9
:1019400001241DE0019D012810D19DF80D0068B112
:10195000287840070AD4D5E906010122CB6841F670
:101960006371C0F600010124984748B9D5E9060122
:101970000122CB6841F61871C0F600019847044671
:10198000002C18BF0124204604B0B0BDF0B503AF51
:101990002DE9000F8DB0046841F6647842F21070B2
:1019A0000E468442C0F6000841D341F259794EF206
:1019B000FF0E0021CDF2B71941F27B4A4FF0640BC4
:1019C000C0F2F55E0296A7F14302744502EB0105F1
:1019D000A4FB0926A1F104014FEA563202FB10468E
:1019E00014461FFA86FC4FEA9C0303FB0AF34FEAF6
:1019F000534338F81300A5F8230003FB1B6080B2A3
:101A000038F81000A5F8250042F21070DBD8029ECD
:101A100001F127031446632C0CD821460A291BD355
:101A200038F81110981EA7F14302115219E027232C
:101A3000632CF2D9A0B241F27B418008023B4843BB
:101A4000A7F14302410C642001FB104080B238F83A
:101A50001000D0520A29E3D2581EA7F143023031B8
:101A60001154C0F12701A7F14302104441F6187246
:101A7000CDE90001C0F60002304601210023FFF746
:101A800097FA0DB0BDE8000FF0BD084642F24401E0
:101A9000C0F600010222FFF7ECBBD0E90020C368CA
:101AA000104618470B46D0E900121846FFF7E1BB75
:101AB00070460421084203D1EFF3088000F004B817
:0C1AC000EFF3098000F000B8FEE7D4D47A
:101AD000617373657274696F6E206661696C6564A9
:101AE0003A2028504552495F414444524553535F80
:101AF00053544152542E2E3D504552495F41444467
:101B0000524553535F454E44292E636F6E7461698D
:101B10006E73282661646472292F686F6D652F7358
:101B200069642F2E636172676F2F726567697374C2
:101B300072792F7372632F6769746875622E636F91
:101B40006D2D3165636336323939646239656338C6
:101B500032332F73746D3332663178782D68616C4F
:101B60002D302E31302E302F7372632F62622E7221
:101B700073000000191B0008580000002D00000031
:101B800005000000617373657274696F6E20666191
:101B9000696C65643A20636C6B2E7261772829202A
:101BA000252046524551203D3D20302F686F6D6500
:101BB0002F7369642F2E636172676F2F7265676977
:101BC000737472792F7372632F6769746875622EEC
:101BD000636F6D2D316563633632393964623965FF
:101BE000633832332F73746D3332663178782D68F1
:101BF000616C2D302E31302E302F7372632F74694B
:101C00006D65722E72730000AB1B00085B00000054
:101C1000AA0200000900000063616C6C656420602A
:101C2000526573756C743A3A756E777261702829D3
:101C300060206F6E20616E20604572726020766158
:101C40006C7565005D0200080000000001000000E6
:101C5000FD180008AB1B00085B000000AC02000090
:101C60002000000063616C6C6564206052657375D0
:101C70006C743A3A756E77726170282960206F6EC5
:101C800020616E2060457272602076616C7565001F
:101C90005F0200080100000001000000690900085F
:101CA0007372632F6D61696E2E727300A01C000841
:101CB0000B000000090000000100000063616C6C73
:101CC00065642060526573756C743A3A756E77720C
:101CD0006170282960206F6E20616E2060457272ED
:101CE000602076616C7565007F03000801000000CC
:101CF00001000000690900087372632F6D61696E4D
:101D00002E727300F81C00080B0000007500000024
:101D1000090000000004010502060307446973611D
:101D2000626C656400000001000000010001000019
:101D3000000100000000000100000001000100009F
:101D4000000100006C6962726172792F636F7265C5
:101D50002F7372632F736C6963652F6D656D636894
:101D6000722E7273000000020002000000000002E8
:101D7000000200000000000200020000000000025B
:101D800000020000000080000000800000008000D1
:101D90000000800080000000800000008000000043
:101DA000800000002F686F6D652F7369642F2E63AC
:101DB0006172676F2F72656769737472792F7372BE
:101DC000632F6769746875622E636F6D2D3165636B
:101DD000633632393964623965633832332F73744C
:101DE0006D3332663178782D68616C2D302E31304C
:101DF0002E302F7372632F7263632E727300000094
:101E0000A41D0008590000002B0200000D00000076
:101E1000617474656D707420746F20646976696490
:101E200065206279207A65726F000000A41D0008A9
:101E3000590000004502000013000000A41D000826
:101E4000590000006102000020000000A41D0008ED
:101E5000590000006A02000013000000A41D0008E1
:101E600059000000800200001300000061737365D8
:101E70007274696F6E206661696C65643A2073796B
:101E800073636C6B203C3D2037325F3030305F3005
:101E900030302026262068636C6B203C3D20373292
:101EA0005F3030305F3030302026262070636C6B1E
:101EB00031203C3D2033365F3030305F30303020D1
:101EC00026265C6E202020202020202070636C6B52
:101ED00032203C3D2037325F3030305F30303020B0
:101EE000262620616463636C6B203C3D2031345FA7
:101EF0003030305F30303000A41D00085900000041
:101F0000BD0200000900000057726F6E67417574D2
:101F10006F52656C6F616400292020202000000052
:101F2000A10900080000000001000000A30900084A
:101F30003A200000181F000800000000301F0008B1
:101F400002000000A10900080C00000004000000CD
:101F5000570A0008950C0008270D00082C0A2C20B1
:101F6000280A282C3030303130323033303430359C
:101F70003036303730383039313031313132313339
:101F8000313431353136313731383139323032311F
:101F90003232323332343235323632373238323905
:101FA00033303331333233333334333533363337FD
:101FB00033383339343034313432343334343435E3
:101FC00034363437343834393530353135323533C9
:101FD00035343535353635373538353936303631AF
:101FE0003632363336343635363636373638363995
:101FF000373037313732373337343735373637378D
:102000003738373938303831383238333834383572
:102010003836383738383839393039313932393358
:10202000393439353936393739383939A109000861
:102030000400000004000000550D00085B0D0008BE
:10204000EF0D000828290000441D000820000000B2
:10205000680000002700000072616E6765207374DD
:1020600061727420696E64657820206F7574206FCA
:10207000662072616E676520666F7220736C69639B
:1020800065206F66206C656E6774682058200008B4
:10209000120000006A2000082200000054727946F5
:1020A000726F6D496E744572726F7200A1090008FB
:0C20B00004000000040000008B1A00086F
:0400000508000131BD
:00000001FF
