:020000040800F2
:1000000000500020310100086D100008C91A0008D6
:100010006D1000086D1000086D1000080000000051
:100020000000000000000000000000006D1000084B
:100030006D100008000000006D1000086D10000831
:100040006D1000086D1000086D1000086D1000089C
:100050006D1000086D1000086D1000086D1000088C
:100060006D1000086D1000086D1000086D1000087C
:100070006D1000086D1000086D1000086D1000086C
:100080006D1000086D1000086D1000086D1000085C
:100090006D1000086D1000086D1000086D1000084C
:1000A0006D1000086D1000086D1000086D1000083C
:1000B0006D1000086D1000086D1000086D1000082C
:1000C0006D1000086D1000086D1000086D1000081C
:1000D0006D1000086D1000086D1000086D1000080C
:1000E0006D1000086D100008000000006D10000881
:1000F0006D1000086D1000086D1000086D100008EC
:100100006D1000086D1000086D1000086D100008DB
:100110006D1000086D1000086D1000086D100008CB
:100120006D1000086D1000086D1000086D100008BB
:1001300000F09DFF084809490022814201D004C017
:10014000FBE707480749084A814202D008CA08C0AD
:10015000FAE700F00CF800DE0000002004000020A8
:100160000000002000000020501F0008704780B5EC
:100170006F4600F001F8FEDE80B56F46B6B000F0C5
:100180007BFF044600F074FF04F0010500F077FFE8
:1001900040F20100C2F200000478002C04BF0121EB
:1001A0000170002D08BF00F065FF002C40F0928028
:1001B00000F062FF044600F05BFF04F0010500F070
:1001C0005EFF40F20000C2F200000478002C04BF81
:1001D00001210170002D08BF00F04CFF002C40F001
:1001E000858000F0F8FE00F001FF00F0DFFE8DF8E2
:1001F000580016A800F010FF00F003FF0DF1580999
:100200004846494600F06CFC40F600024FF40000FE
:10021000C4F201020321C2F81008D2F8000861F309
:100220001F70C2F80008102008211061106861F3E7
:100230001340106040201061106861F31B60106073
:1002400000F0C0FE0DF11008404600F0BCFEB8E81A
:100250007E0048467EC098E87E007EC02EA84946B3
:1002600000F07BFD2EAB0DF1C80C10AD0FCB8CE870
:100270000F0032A928464A4600F065FC284600F0E7
:10028000D7FE00F0D4FE4DF683613290C4F21B31EC
:10029000A0FB0101880C4FF0FF3100EBC00001EB27
:1002A000C0000021B1EB106F2CD0012016AA8DF8F0
:1002B000580041F63830C0F60000009041F6F020BA
:1002C000C0F6000041F61C332B21C0F6000300F0FD
:1002D0002EFFFEDE41F6CC3041F60842C0F60000AB
:1002E000C0F600022B2100F0EBFEFEDE41F6CC3022
:1002F00041F6F832C0F60000C0F600022B2100F0F3
:10030000DFFEFEDE4EF21004CEF200046060A1605B
:10031000206840F0010020602068C0F300400138F0
:10032000800712D02068C0F30040013880071FBF4B
:100330002068C0F3004001385FEA807005D0206873
:10034000C0F3004001388007E6D1032102250620D2
:100350004FF0010A2C910DF1900CCDE922150423E8
:10036000CDE91A1540F60001002607222D90C4F2AF
:1003700001018CE845004FF00009CDE91C0A4FF45B
:1003800000002B9216AACDF8A8A0CDE928A32795A6
:10039000CDE920A3CDE91E65CDE916650226CDE99C
:1003A00018A30025C1F81008012002900120039035
:1003B0000DE05FEACA708AF0010A4FF4000018BF2E
:1003C0008020B9F1070FCCF8100800F2138102EB7E
:1003D000461050F82900122880F0048141F6483177
:1003E0000DF1C80BC0F600019046095C10465A4654
:1003F00000F03EF94046294600F0DEFA40465946F4
:1004000000F019FB09F10100B9F1060F81462846F9
:1004100088BF4FF0000900F024F940F6000CC4F248
:10042000010CDCF80810C90643D432994DF68362FA
:10043000C4F21B324FF0000EA1FB0212910C3222CB
:100440004A43013ABEEB126F40F0DD806260C4F8AF
:1004500008E0226842F0010222602268C2F30042F2
:10046000013A920712D02268C2F30042013A920781
:100470001FBF2268C2F30042013A5FEA827205D0D0
:100480002268C2F30042013A9207E6D140F29E721E
:1004900051430139BEEB116F40F0BD80721C012E3B
:1004A00088BF0022039BDB0718BF16460022039279
:1004B00073E0DCF808104FF0000E490646D432997C
:1004C0004DF68362C4F21B32A1FB0212910C322260
:1004D0004A43013ABEEB126F40F0A5806260C4F857
:1004E00008E0226842F0010222602268C2F3004262
:1004F000013A920712D02268C2F30042013A9207F1
:100500001FBF2268C2F30042013A5FEA827205D03F
:100510002268C2F30042013A9207E6D140F29E728D
:1005200051430139BEEB116F40F08580721E002EE1
:1005300008BF02223546029EF30718BF1546039AEC
:1005400082F00102164002962E4626E0DCF80810E2
:10055000C90607D5039981F00101C90702D001211D
:10056000039121E0DCF80810490607D5029981F0D3
:100570000101C90702D00121029115E032994DF61F
:100580008362C4F21B32A1FB0212910C4FF4FA6297
:1005900051430139B1F1807F55D26160C4F808E060
:1005A000216841F00101216016AAC5B22068C0F39C
:1005B0000040013880073FF4FCAE2068C0F30040E3
:1005C000013880071FBF2068C0F3004001385FEA90
:1005D00080703FF4EEAE2068C0F300400138800721
:1005E000E4D1E6E641F66C321221C0F6000200F0DA
:1005F0007EFDFEDE41F65C324846C0F60002082170
:1006000000F075FDFEDE01208DF8B80041F67C306B
:10061000C0F600001EE001208DF8B80041F68C30D5
:10062000C0F6000016E001208DF8B80041F69C30BD
:10063000C0F600000EE001208DF8B80041F6AC30A5
:10064000C0F6000006E001208DF8B80041F6BC308D
:10065000C0F60000009041F6F0202EAA30E6FEE73A
:10066000704741F6844140B2C0F60001085C704713
:1006700080B56F4682B0C8074FF0080340F61040BF
:1006800008BF4FF40023C4F2010003604FF40013CD
:1006900003604DF683631268C4F21B33A2FB03238D
:1006A0009A0C002302EB8202A2F1010EB3EB1E6F43
:1006B00040F06D815FFA81FC4EF21001CEF2000134
:1006C000C1F804E08B600B6843F001030B600B681A
:1006D000C3F30043013B9B0712D00B68C3F30043F5
:1006E000013B9B071FBF0B68C3F30043013B5FEA5D
:1006F000837305D00B68C3F30043013B9B07E6D12E
:10070000202303605FEA8C734FF0080358BF4FF457
:10071000002303604FF4001303600023C1F804E0DA
:100720008B600B6843F001030B600B68C3F300435D
:10073000013B9B0712D00B68C3F30043013B9B07AF
:100740001FBF0B68C3F30043013B5FEA837305D00F
:100750000B68C3F30043013B9B07E6D120230360F2
:100760005FEA4C734FF0080358BF4FF40023036057
:100770004FF4001303600023C1F804E08B600B68A2
:1007800043F001030B600B68C3F30043013B9B077D
:1007900012D00B68C3F30043013B9B071FBF0B68DC
:1007A000C3F30043013B5FEA837305D00B68C3F3D7
:1007B0000043013B9B07E6D1202303605FEA0C73F3
:1007C0004FF0080358BF4FF4002303604FF40013A9
:1007D00003600023C1F804E08B600B6843F0010361
:1007E0000B600B68C3F30043013B9B0712D00B68FF
:1007F000C3F30043013B9B071FBF0B68C3F30043D8
:10080000013B5FEA837305D00B68C3F30043013BF0
:100810009B07E6D1202303605FEACC634FF0080317
:1008200058BF4FF4002303604FF40013036000230C
:10083000C1F804E08B600B6843F001030B600B68A8
:10084000C3F30043013B9B0712D00B68C3F3004383
:10085000013B9B071FBF0B68C3F30043013B5FEAEB
:10086000837305D00B68C3F30043013B9B07E6D1BC
:10087000202303605FEA8C634FF0080358BF4FF4F6
:10088000002303604FF4001303600023C1F804E069
:100890008B600B6843F001030B600B68C3F30043EC
:1008A000013B9B0712D00B68C3F30043013B9B073E
:1008B0001FBF0B68C3F30043013B5FEA837305D09E
:1008C0000B68C3F30043013B9B07E6D12023036081
:1008D0005FEA4C634FF0080358BF4FF400230360F6
:1008E0004FF4001303600023C1F804E08B600B6831
:1008F00043F001030B600B68C3F30043013B9B070C
:1009000012D00B68C3F30043013B9B071FBF0B686A
:10091000C3F30043013B5FEA837305D00B68C3F365
:100920000043013B9B07E6D12023082203604FFAD6
:100930008CF3B3F1FF3FC8BF4FF4002202604FF4C5
:10094000001202600022C1F804E08A600A6842F0E6
:1009500001020A600A68C2F30042013A920712D00B
:100960000A68C2F30042013A92071FBF0A68C2F345
:100970000042013A5FEA827205D00A68C2F300427F
:10098000013A9207E6D12021016002B080BD01202A
:1009900041F6444307F8010C41F66440C0F60000FC
:1009A0007A1E009041F61840C0F60000C0F6000321
:1009B0002B2100F0BCFBFEDED0B502AFC8B24FF475
:1009C000805E4FF000614FF080624FF4006C4FF496
:1009D0008063DFE800F004070C1027151A214FF0A0
:1009E000006C06E04FF0006C4FF4806303E04FF4BE
:1009F000006C4FF080634FF0805E1A46614611E054
:100A00004FF4805E4FF000610AE04FF4805E4FF4D7
:100A100000614FF0806205E04FF4805E4FF40061AA
:100A20004FF4806241F21000C4F2010002600160E4
:100A3000C0F800E0D0BD80B56F4682B040F61040EF
:100A40001022C4F20100002302604DF6836209689F
:100A5000C4F21B32A1FB0212910C01EB81014A1E70
:100A6000B3EB126F27D14EF21001CEF200014A60B3
:100A70008B600A6842F001020A600A68C2F3004211
:100A8000013A920712D00A68C2F30042013A920773
:100A90001FBF0A68C2F30042013A5FEA827205D0C2
:100AA0000A68C2F30042013A9207E6D14FF480117E
:100AB000016002B080BD012041F6444307F8010CFB
:100AC00041F67440C0F600007A1E009041F61840CE
:100AD000C0F60000C0F600032B2100F028FBFEDE6C
:100AE00040F600414FF40020C4F2010108610320E8
:100AF0000A6860F30F320A6010220A610A6860F324
:100B000013420A604FF400120A610A6860F3175238
:100B10000A6041F204014FF08062C4F20101CA6030
:100B20000A6860F30B220A604FF00062CA600A682C
:100B300060F30F320A604FF08052CA600A6860F3B7
:100B400013420A607047F0B503AF2DE9000F85B07E
:100B50000B7A93B1D1E900A640F60015C0F23D052D
:100B6000BAF1010C18BF4FF0010CBAF1010F08BF28
:100B700035464E7A02366E4310E00A68012A05D1E6
:100B80004E684FF0000C4FF0010A07E041F20026DA
:100B90004FF0010CC0F27A064FF0000A8C7A4AF24C
:100BA000002BCA7A192503920B2C0A7B4FF00009FF
:100BB0000292C0F24A4B4A7B01922246049488BFBB
:100BC0001A25009383B1BCF1000F0DD1A6F1377344
:100BD000A6EB0B04A3F5D843B4FA84F4B3FA83F379
:100BE00064095B0944EA03090BF101039E423FBF1C
:100BF000049A154405F01F0526FA05F538BF9D42F5
:100C000021D2039A45F20014C0F22524531D03F0AB
:100C1000070325FA03FCA44515D8029A541D04F0D5
:100C2000070E25FA0EF8D8459FBF0224019A04EB5F
:100C30004204E4B29FBFB8FBF4F449F68172C0F2FB
:100C4000D50294420BD341F66C5041F6F852C0F6EF
:100C50000000C0F600028B2100F032FAFEDE012215
:100C6000C0E9005C02FA0EF59A4080F81690C0E9DF
:100C7000028604614575027543F20160C0F26E1090
:100C8000864208D3009B46F60040C0F2DC20864234
:100C900004D2312006E03020009B03E04FF0320008
:100CA00008BF312042F20002BAF1000FC4F2020282
:100CB000106041F20000C4F2020010D0026842F459
:100CC000803202600268920309D4026892035CBF1A
:100CD00002685FEA823202D402689203F2D503B35B
:100CE0004268BAF1000F22F4741218BF02F5803284
:100CF0004B7A03F00F0342EA83424260026842F0FB
:100D000080720260026892015FBF02685FEA82122D
:100D100002685FEA821202D402689201F2D54FF0B3
:100D2000020A897B0C22CFF6BF72002918BF0AF590
:100D3000800A41681140019A41EA8231029A41EAEF
:100D4000C221039A41EA0221049A41EA0211514464
:100D5000416005B0BDE8000FF0BDF0B503AF2DE96F
:100D60000007D1E900AC40F600130A6AC0F23D0367
:100D7000BAF1010F08BF6346012A17D1002B00F01A
:100D8000EE804D6AB5FBF3F6721E0FD01024AB4215
:100D900088BF0124102A38BF34466343A4F10208F7
:100DA0004FF0010E8A68012A0DD014E041F20023B1
:100DB000BAF1000FC0F27A034FF0000E18BF63467D
:100DC0008A68012A07D1CA68002A00F0D180B3FBE3
:100DD000F2F4022C34D24FF0070909F1190404F09F
:100DE0001F0223FA02F60A69012A01D14A6906E0C4
:100DF00045F200143246C0F22524A64203D2002A4E
:100E0000144600F0A3803219013AB2FBF4F4032C2B
:100E10000ED24FF6F872C0F2FF0202EAC40240F2AC
:100E20000334C0F20404D4408A69012A1CD113E0BF
:100E3000E21E032A08D205248A69012A0CD013E095
:100E40004DD14FF00809C8E7A21F0724062A38BF72
:100E500006248A69012A07D1CA69002A00F0918014
:100E6000B6FBF2F2022A13D203258A6A012A14D1B0
:100E7000C96A002900F08E8005F11D0202F01F02F0
:100E800026FA02F2B2FBF1F2032A24D2002105E095
:100E90002AD104258A6A012AEAD0032141734AF241
:100EA0000021C0F24A418EF00102591A8AF0010372
:100EB000057342EA0302C47280F80A9080F8098040
:100EC00080F808E0C0E900AC18BF0121114381732C
:100ED000BDE80007F0BD052A0DD20121DEE7062C92
:100EE0000ED24FF0090978E7062A0ED205258A6A44
:100EF000012ABDD0D1E70321082A38BF0221CDE75E
:100F00000C2C0AD24FF00A0967E707250C2A38BFD4
:100F100006258A6A012AC0D1AAE7282C02D24FF0FE
:100F20000B095AE7602C02D24FF00C090BE0C02CE1
:100F300002D24FF00D0906E04FF00F09B4F5C07F63
:100F400038BF4FF00E0909F11A0448E741F6105076
:100F500041F63C52C0F60000C0F6000222E041F625
:100F6000105041F6F842C0F60000C0F6000219E049
:100F700041F6105041F62C52C0F60000C0F60002B7
:100F800010E041F6105041F64C52C0F60000C0F699
:100F9000000207E041F6105041F65C52C0F6000036
:100FA000C0F60002192100F08BF8FEDE40F280103E
:100FB0000121C4F24220C0F88011016000210160CB
:100FC00001207047704700218162016281610161E7
:100FD00081600160704740F288100121C4F2422014
:100FE000C0F88011016000210160704740F28C1050
:100FF0000121C4F24220C0F880110160002101608B
:10100000704740F290100121C4F24220C0F88011D4
:10101000016000210160704700210222017004205C
:10102000C4F20100016862F31A6101607047704701
:101030004EF21001CEF200010A6842F004020A608A
:101040000068704741F617620B4641F60861007868
:10105000C0F60002C0F60001002808BF11464FF09C
:101060000F02184608BF082200F017BBFEE77047C2
:1010700072B6704762B67047EFF3108070477047E2
:10108000704742F2836048F2AA01C6F66840CBF28C
:101090000141704780B56F4686B0CDE9030141F646
:1010A0006460C0F600000122029041F62060C0F6A4
:1010B00000008DF81420019001A8FFF7D0FAFEDEA1
:1010C00080B56F4688B00123944641F620620393B1
:1010D00006ABCDE9060102930023C0F60002684684
:1010E0006146059304920093FFF7D4FFFEDE80B5BE
:1010F0006F468CB0CDE900010220059041F65461A5
:10110000079008A806900020C0F60001029041F662
:10111000B5100491C0F600006946CDE909011146F9
:101120000B9001A8089002A8FFF7B4FFFEDE80B57F
:101130006F468EB08DE80F00022041F6786107906F
:10114000C0F6000109900AA808900020049041F61A
:10115000B320C0F6000006910D9002A80C9041F655
:10116000BD20C0F60000B9680B9068460A9004A83C
:10117000FFF790FFFEDEF0B503AF2DE9000F87B05B
:10118000D7F80C909B4694460646E9B1B46914F032
:10119000010000EB090A4FF02B0008BF4FF4881044
:1011A00006906007D7F8088017D5BBF1100F45D21D
:1011B000BBF1000F66D0ABF101000BF00301032877
:1011C00062D2002062467DE0B46909F1010A2D2057
:1011D00006906007D7F80880E7D44FF0000CB0689D
:1011E000002800F08B80CDF814B0D6F80CB0D345B1
:1011F00015D92007CDF8108027D496F82000ABEB46
:101200000A01E346032808BF0120820700F09B8003
:10121000012840F09A804FF0000A084699E00598AE
:101220006346D6E9004500902946069A204600F01C
:10123000E3F800286ED04FF001081EE060465946E2
:10124000654600F030FAAC4653E03020F469F061B6
:101250004FF0010896F820006346CDF80C900290FC
:101260000598D6E9009586F8208029460090069AD0
:10127000484600F0C1F8002856D0404607B0BDE807
:10128000000FF0BD002034E02BF003030020624685
:1012900012F9045B15F1410FC8BF013012F9035C6C
:1012A00015F1410FC8BF013012F9025C15F1410F71
:1012B000C8BF013012F9015C15F1410FC8BF013000
:1012C000043BE5D1A9B192F9003013F1410FC8BF39
:1012D000013001290DD092F9013013F1410FC8BF3F
:1012E0000130022905D092F9021011F1410FC8BF57
:1012F00001308244B06800287FF475AFD6E900451C
:101300006346CDF800B02946069A204600F074F8EE
:10131000002852D1EB68204641464A4607B0BDE856
:10132000000FBDE8F04018470694ABEB0A00DDF86B
:101330001080441C013C3AD02A694846302190472D
:101340000028F7D039E08A4603E0480801314FEA27
:10135000510AD6E90058441CF669013C07D0D8F878
:1013600010202846314690470028F6D025E0B6F5F3
:10137000881F22D00598414600902846069A5B4671
:1013800000F03AF8C8B9D8F80C30284604994A4613
:10139000984790B90024A24522D0D8F810202846BA
:1013A0003146904701340028F5D0601E19E0EB6803
:1013B0004846039A4146984730B14FF001084046ED
:1013C00007B0BDE8000FF0BD02984FF0000886F8A6
:1013D00020000698F061404607B0BDE8000FF0BD60
:1013E00050464FF00008504538BF4FF001084046C6
:1013F00007B0BDE8000FF0BDF0B503AF4DF8048DA8
:10140000D7F808801C460D460646B2F5881F08D05E
:101410002B6930461146984718B101205DF8048BBE
:10142000F0BD44B1EB683046214642465DF8048B7E
:10143000BDE8F040184700205DF8048BF0BDF0B522
:1014400003AF2DE9000F81B0D0F808C081460069D4
:101450008846BCF1010F18BF01280AD1012877D1B5
:10146000D9F8140008EB020E4FF0000A4146441C64
:101470000CE0D9E90001D1E046EA8115811CAAEB14
:101480000000B5F5881F00EB010A61D0013C084659
:1014900028D070455CD0014611F9016BB6F1FF3FD1
:1014A000F5B2ECDC467805F01F01DF2D06F03F06B3
:1014B000E2D98378F02D03F03F0343EA86160DD37B
:1014C000C37801F0070103F03F0343EA861343EAC0
:1014D0008145B5F5881F3BD0011DD0E746EA0135AF
:1014E000C11CCCE7704533D090F90010B1F1FF3F3B
:1014F00004DCC9B2E02928BFF02915D2BAF1000FE7
:1015000009D0924506D218F90A0010F1400F02DA0C
:10151000002001E0FCD1404600280CBF92468046E6
:10152000BCF1000F18D174E0437801F00701867810
:10153000C07803F03F0306F03F0600F03F00B6011D
:1015400046EA0333184440EA8140B0F5881FD5D1FC
:101550009246BCF1000F5CD0D9F80C40BAF1100FE4
:101560000BD2BAF1000F0DD0AAF101000AF003016D
:10157000032809D20020424624E04046514600F0AC
:1015800092F836E0002034E02AF0030300204246BF
:1015900012F9046B16F1410FC8BF013012F9036C48
:1015A00016F1410FC8BF013012F9026C16F1410F5C
:1015B000C8BF013012F9016C16F1410FC8BF0130EC
:1015C000043BE5D1A9B192F9003013F1410FC8BF36
:1015D000013001290DD092F9013013F1410FC8BF3C
:1015E0000130022905D092F9021011F1410FC8BF54
:1015F000013084420DD999F82020201AD11E18BF3D
:1016000011468A0715D0012910D100210091014609
:1016100010E0D9F804105246D9F80000CB684146D2
:1016200001B0BDE8000FBDE8F040184741080130A7
:1016300040080090D9E900B54C1CD9F81C60013C69
:1016400006D02A695846314690470028F7D008E06E
:10165000B6F5881F05D0EB68584641465246984774
:1016600020B1012001B0BDE8000FF0BDDDF8008021
:101670000024A04508D02A695846314690470134D5
:101680000028F6D0611E00E041460020414538BFE9
:10169000012001B0BDE8000FF0BDD0E90030D0F866
:1016A0000CC018466047F0B503AF2DE9000F0246A5
:1016B000033020F00300831A8B4298BF042B0BD910
:1016C00031B1481E01F00303032810D200202BE0A3
:1016D0000020BDE8000FF0BDA1EB030CBCF1040F2E
:1016E000EED30CF00301904238D1002078E021F0D5
:1016F0000301002012F9046B16F1410FC8BF01303D
:1017000012F9036C16F1410FC8BF013012F9026CD7
:1017100016F1410FC8BF013012F9016C16F1410FEB
:10172000C8BF01300439E5D1ABB192F9001011F115
:10173000410FC8BF0130012B0DD092F9011011F1FA
:10174000410FC8BF0130022B05D092F9021011F1F0
:10175000410FC8BF0130BDE8000FF0BDD643304493
:1017600003F0030E032802D2002014461DE023F0EC
:1017700003050020144614F9046B16F1410FC8BF8D
:10178000013014F9036C16F1410FC8BF013014F990
:10179000026C16F1410FC8BF013014F9016C16F14B
:1017A000410FC8BF0130043DE5D1BEF1000F17D095
:1017B00094F9005015F1410FC8BF0130BEF1010F7F
:1017C0000ED094F9015015F1410FC8BF0130BEF1A0
:1017D000020F05D094F9026016F1410FC8BF013025
:1017E00002EB030E4FEA9C090023C1B12CF0030663
:1017F000764496F9005015F1410FC8BF0123012925
:101800000DD096F9015015F1410FC8BF01330229DF
:1018100005D096F9021011F1410FC8BF01331844E9
:1018200011E04FF0FF112CF0FF2201EA1C21A9EB7F
:101830000B09114408EB8B0E1BF0030301EB014174
:1018400000EB11403ED1B9F1000F3FF484AFB9F184
:10185000C00FCB4628BF4FF0C00B1BF0FC01F04679
:101860004FF0000C0EEB810ADBD04346002B1FBF6C
:10187000D3E90062D3E90214F543ED091FBF45EA3D
:10188000961626F0FE366644D5431FBFED0945EA9D
:10189000921222F0FE3232441FBFCE43F60946EACE
:1018A000911121F0FE311FBF1144E243D20942EAF7
:1018B00094121FBF22F0FE3202EB010C103353458D
:1018C000D4D1AEE7B8F1000F0AD0591E21F0404143
:1018D0004B1C032903F0030C05D24FF0000E33E03C
:1018E0004FF0000E58E023F003044FF0000EDAE949
:1018F0000016043CDAE902520AF1100A6FEA010309
:101900004FEAD31343EA91116FEA060321F0FE3147
:101910004FEAD313714443EA961323F0FE3319447C
:101920006FEA05034FEAD31343EA951323F0FE331E
:1019300019446FEA02034FEAD31343EA921222F0EA
:10194000FE3202EB010ED2D1BCF1000F24D0DAF846
:101950000010BCF1010F6FEA01064FEAD61646EA05
:10196000911121F0FE318E4416D0DAF80410BCF14A
:10197000020F6FEA01064FEAD61646EA911121F0EE
:10198000FE318E4408D0DAF80810CA43D20942EA80
:10199000911121F0FE318E444FF0FF112EF0FF2205
:1019A00001EA1E21114401EB014100EB1140BDE8A9
:1019B000000FF0BDF0B503AF2DE9000F8DB0046846
:1019C00041F6886842F210700E468442C0F6000864
:1019D00041D341F259794EF2FF0E0021CDF2B719F1
:1019E00041F27B4A4FF0640BC0F2F55E0296A7F11C
:1019F0004302744502EB0105A4FB0926A1F1040191
:101A00004FEA563202FB104614461FFA86FC4FEA94
:101A10009C0303FB0AF34FEA534338F81300A5F87D
:101A2000230003FB1B6080B238F81000A5F82500E6
:101A300042F21070DBD8029E01F127031446632C9A
:101A40000CD821460A291BD338F81110981EA7F18B
:101A50004302115219E02723632CF2D9A0B241F2BC
:101A60007B418008023B4843A7F14302410C6420BC
:101A700001FB104080B238F81000D0520A29E3D29E
:101A8000581EA7F1430230311154C0F12701A7F1CC
:101A90004302104441F62062CDE90001C0F6000285
:101AA000304601210023FFF766FB0DB0BDE8000FB3
:101AB000F0BDD0E90020C368104618470B46D0E9B6
:101AC00000121846FFF7BBBC70460421084203D140
:101AD000EFF3088000F004B8EFF3098000F000B8DD
:041AE000FEE7D4D475
:101AF00063616C6C65642060526573756C743A3A0E
:101B0000756E77726170282960206F6E20616E207B
:101B100060457272602076616C7565006D01000829
:101B20000100000001000000451000087372632FDF
:101B30006D61696E2E7273002C1B00080B00000093
:101B4000390000001E000000FC60DAF266B6BEE05C
:101B5000FEF6EE3E9C7A9E8E010000002C1B0008D3
:101B60000B00000052000000220000002C1B0008A7
:101B70000B00000052000000190000002C1B0008A0
:101B80000B00000059000000260000002C1B00087C
:101B90000B0000005F000000280000002C1B000864
:101BA0000B00000061000000260000002C1B000854
:101BB0000B00000067000000280000002C1B00083C
:101BC0000B0000006E0000002500000063616C6CDB
:101BD000656420604F7074696F6E3A3A756E777203
:101BE0006170282960206F6E206120604E6F6E65E5
:101BF000602076616C7565002C1B00080B000000EE
:101C000013000000270000002C1B00080B00000040
:101C1000110000002C00000063616C6C65642060A2
:101C2000526573756C743A3A756E777261702829D3
:101C300060206F6E20616E20604572726020766158
:101C40006C756500610600080100000001000000DD
:101C5000451000087372632F736567656D656E7458
:101C6000732E7273541C0008100000003C0000002A
:101C700025000000541C0008100000005700000060
:101C80002100000001020304050607002F686F6DA4
:101C9000652F7369642F2E636172676F2F7265679A
:101CA00069737472792F7372632F6D6972726F72B8
:101CB000732E74756E612E7473696E676875612E0C
:101CC0006564752E636E2D326561623339346166E9
:101CD000383639633861322F73746D333266317838
:101CE000782D68616C2D302E31302E302F73726359
:101CF0002F7263632E7273008C1C00086B0000004F
:101D00002B0200000D000000000000000000000099
:101D1000617474656D707420746F20646976696491
:101D200065206279207A65726F0000008C1C0008C3
:101D30006B00000045020000130000008C1C00082E
:101D40006B00000061020000200000008C1C0008F5
:101D50006B0000006A020000130000008C1C0008E9
:101D60006B000000800200001300000061737365C7
:101D70007274696F6E206661696C65643A2073796C
:101D800073636C6B203C3D2037325F3030305F3006
:101D900030302026262068636C6B203C3D20373293
:101DA0005F3030305F3030302026262070636C6B1F
:101DB00031203C3D2033365F3030305F30303020D2
:101DC00026265C6E202020202020202070636C6B53
:101DD00032203C3D2037325F3030305F30303020B1
:101DE000262620616463636C6B203C3D2031345FA8
:101DF0003030305F303030008C1C00086B00000049
:101E0000BD0200000900000057726F6E67417574D3
:101E10006F52656C6F616444697361626C656400E4
:101E2000696E646578206F7574206F6620626F75C7
:101E30006E64733A20746865206C656E2069732047
:101E4000206275742074686520696E646578206905
:101E500073200000201E000820000000401E000823
:101E600012000000811000080000000001000000C6
:101E7000831000083A200000201E00080000000027
:101E8000741E000802000000303030313032303330
:101E90003034303530363037303830393130313118
:101EA00031323133313431353136313731383139FE
:101EB00032303231323232333234323532363237F6
:101EC00032383239333033313332333333343335DC
:101ED00033363337333833393430343134323433C2
:101EE00034343435343634373438343935303531A8
:101EF000353235333534353535363537353835398E
:101F00003630363136323633363436353636363785
:101F1000363836393730373137323733373437356B
:101F20003736373737383739383038313832383351
:101F30003834383538363837383838393930393137
:101F4000393239333934393539363937393839391D
:0400000508000131BD
:00000001FF
