:020000040800F2
:100000000050002031010008FB1100086F23000898
:10001000FB110008FB110008FB11000800000000A4
:10002000000000000000000000000000FB110008BC
:10003000FB11000800000000FB110008FB11000884
:10004000FB110008FB110008FB110008FB11000860
:10005000FB110008FB110008FB110008FB11000850
:10006000FB110008FB110008FB110008FB11000840
:10007000FB110008FB110008FB110008FB11000830
:10008000FB110008FB110008FB110008FB11000820
:10009000FB110008FB110008FB110008FB11000810
:1000A000FB11000893020008FB110008FB11000877
:1000B0000F020008FB110008FB110008FB110008EB
:1000C000FB110008FB110008FB110008FB110008E0
:1000D000FB110008FB110008FB110008FB110008D0
:1000E000FB110008FB11000800000000FB110008D4
:1000F000FB110008FB110008FB110008FB110008B0
:10010000FB110008FB110008FB110008FB1100089F
:10011000FB110008FB110008FB110008FB1100088F
:10012000FB110008FB110008FB110008FB1100087F
:1001300001F064F8084809490022814201D004C056
:10014000FBE707480749084A814202D008CA08C0AD
:10015000FAE700F0E1F900DE0000002004000020D2
:100160000000002000000020582C0008704780B5D7
:100170006F4682B04FF2BA7640F6390440F2040579
:1001800001900068CFF6FF76CFF28A74C2F20005C4
:10019000009003E0C5E9019BC5F80CA000F08EFDBE
:1001A0000146009800F045FD80B200EB8000A0FB06
:1001B00004124FEAD22909FB060000EB800041003F
:1001C000A1FB04124FEAD22B0BFB06F101EB40001E
:1001D00000EB80004000A0FB04010198D0F80880EB
:1001E0004FEAD12A98F800000028D3D1012088F8DE
:1001F0000000F02001F00DF80020C5E9019BC5F8D2
:100200000CA001F006F8002088F80000C6E7D0B581
:1002100002AF40F20000C2F2000001781D2912D99D
:1002200040F224040021C2F200040170217840F25F
:100230002500C2F2000000F06EFA207800F064FAA7
:10024000C0B2207001E0013101704FF080404FF6E4
:10025000FE72016821F0010101601021C4F2000169
:100260000A6000224A6142F20F72CA61026842F0DB
:100270000402026001224A60016821F00401016069
:10028000016841F0010101600020BDE8D04000F0AC
:10029000C0BF80B56F4682B040F2280040F2040132
:1002A000C2F20000C2F2000100F06EFA42F6004114
:1002B0004FF6FF73C4F201010A6822F001020A60DE
:1002C0004FF6FE720A6100224A62821E9A421BD2D7
:1002D0000138C862086840F00400086001204861E5
:1002E000086820F004000860086840F00100086019
:1002F00040F22800C2F2000000F0D1FA002002B063
:10030000BDE8804000F085BF012042F2C83307F805
:10031000010C42F2D830C0F600007A1E009042F282
:100320009030C0F60000C0F600032B2100F0CEFF95
:10033000FEDEF0B503AF4DF8048D82B041F200054A
:100340008046C4F20205284600F0BEFCB0F1804FA2
:100350004FD305F55F26B0424BD22C244001C4F2A6
:10036000002401212150284600F0B0FCB0F1804F5C
:100370003FD3B0423DD2400101212150284600F038
:10038000A5FCB0F1804F34D3B04232D240010021FD
:100390002150404600F0ADFD4DF68361C4F21B31A3
:1003A000A0FB0112910C43F609524A43A0EB8210C4
:1003B00058BB481EB0F5803F3FBF42F62841C4F20B
:1003C0000101086002B03CBF5DF8048BF0BD42F251
:1003D0006C5042F25C53C0F6000001AA009042F259
:1003E0003050C0F60000C0F600032B2100F06EFF75
:1003F000FEDE42F2E83042F28C42C0F60000C0F667
:100400000002492100F02BFFFEDE42F29C4042F246
:100410002052C0F60000C0F60002272100F01FFFA6
:10042000FEDEF0B503AF4DF804BD82B041F2000529
:100430000446C4F20205284600F042FCB0F1804FA9
:1004400051D305F55F26B0424DD240014FF08441B3
:1004500001220A50284600F035FCB0F1804F42D30B
:10046000B04240D240014FF0844101220A50284658
:1004700000F028FCB0F1804F35D3B04233D24001B8
:100480004FF0844100220A50204600F02BFD4DF62B
:100490008361C4F21B31A0FB0112910C43F6095297
:1004A0004A43A0EB821050BB481EB0F5803F3FBFCF
:1004B0002821C4F20001086002B03CBF5DF804BB13
:1004C000F0BD42F26C5042F25C53C0F6000001AA4B
:1004D000009042F23050C0F60000C0F600032B211D
:1004E00000F0F4FEFEDE42F2E83042F28C42C0F64A
:1004F0000000C0F60002492100F0B1FEFEDE42F22B
:100500009C4042F22052C0F60000C0F600022721B3
:1005100000F0A5FEFEDE704780B56F4684B000F0A7
:100520006EFE40F202000121C2F200004EF2001203
:1005300001704EF21940CEF20000F021CEF200021E
:100540004FF08053C170136001704FF00070106065
:1005500000F013F8781E029040F24C00C2F2000046
:10056000019040F23000C2F200000090002007F835
:10057000010C6846FFF7FBFDFEDEF0B503AF2DE989
:10058000000FA9B040F201000121C2F20000017089
:100590004EF20011CEF200014FF00070C1F80001E0
:1005A00000F0ECFD00F0F5FD00F0FEFD00F0D1FDE7
:1005B00007F8B90CA7F1B90000F001FE0DF1A00990
:1005C00002A84FF4FA6349464A4600F086F94846C5
:1005D000494600F0BBF84846052100F09CF80DF1B3
:1005E000100B584600F0C2FD00F0BFFD41F20021A3
:1005F0000BF10803C0F27A011CA81D9101211C9186
:1006000000F10806DDE90ECE93E8350586E83505EC
:100610004AF20020C0F24A40CDE9241016A81CA9D5
:10062000CDE926CE044600F06BFC16AB0DF1400878
:100630000DF1700A0DF1700C0FCB8CE80F004046E5
:1006400051464A4600F044FB4046FFF772FE42F630
:100650000C40C4F20100016841F001010160404614
:10066000FFF7DFFE0C20C4F20000016841F0010139
:1006700001604EF200114FF08050CEF20001086090
:100680002146204698E87C1080E87C10504600F017
:100690007BF940F600405A46C4F20100016821F09F
:1006A000F0010160DDE90201BAE8680068C29AE879
:1006B000780078C240F22802C2F20002C2E90001CA
:1006C00040F20400C2F2000000211222C0E902112F
:1006D000C0E90021C0E90411C0E9061140F224007C
:1006E000C2F200000321017040F23000BBE80E00AE
:1006F000C2F200000EC09BE84E004EC000F081FD2B
:1007000029B0BDE8000FF0BD42F2845140B2C0F6FE
:100710000001085C704748B242F28C51C0F60001FB
:1007200041F2100251F82010C4F20102116042F2AD
:10073000AC51C0F6000151F82010116042F2CC51CA
:10074000C0F6000151F820001060704741F204002B
:100750004FF40001C4F201000322C16050F8041CF0
:1007600062F31F7140F8041C4FF08071C160016892
:1007700062F3030101604FF00071C160016862F330
:100780000711016070470000B0B502AF4279A2F1D5
:100790000803DCB20023022C38BF631CE3B1012B39
:1007A00041D140F6104C2021C4F2010C4FF0006200
:1007B000CCF800104FF0806304794FF480504FF470
:1007C000006E4FF48061DFE804F004373C40574589
:1007D0004A514FF0006E36E0007942F2AC63C0F649
:1007E000000380F0040053F8200051F82000222874
:1007F0004DD240F610412023C4F2010102F007025D
:100800000B6042F26863C0F60003185CD040C0077A
:100810004FF0080008BF4FF4002008604FF40010AC
:1008200008600520B0BD40F610414FF48012C4F2BC
:1008300001010A600068B0BD4FF0006E4FF48061A6
:1008400003E04FF4006E4FF080614FF080500B4694
:10085000724611E04FF480504FF000620AE04FF40E
:1008600080504FF400624FF0806305E04FF48050F9
:100870004FF400624FF48063CCF80034CCF80024CD
:10088000CCF800041020CCF800000520B0BD42F2E6
:100890009C622221C0F6000200F0F8FCFEDE4179E5
:1008A000082908D1027942F2CC63C0F6000382F035
:1008B00004029A5C0271A1F10802D3B20022022B59
:1008C00038BF5A1C002A02BF013141717047012A0A
:1008D00014BF002109214171704780B56F4686B071
:1008E00040F600424FF40021C4F201024FF0030C25
:1008F000116111686CF30F311160102111611168E1
:100900006CF3134111604FF40011116111686CF325
:100910001751116041F204014FF08062C4F20101ED
:10092000CA600A686CF30B220A604FF00062CA606A
:100930000A686CF30F320A604FF08052CA600A688E
:100940006CF313420A60B3F1280121BF4FF4006237
:100950008280016006B028BF80BD002042F2EC51C9
:100960000590C0F6000102900120019042F2F8507B
:10097000049142F25861C0F60000C0F600010090F8
:10098000684600F056FCFEDEF0B503AF2DE9000B23
:1009900091E87C108146012180E87C1040F2A4108F
:1009A00042F20846C4F24220C4F20106C0F88011A7
:1009B000326822F00102326001600021016048F6D5
:1009C00059313068C0F24F1140F4F01020F00200AD
:1009D000306056F8040C20F4106000F5006046F812
:1009E000040C706A20F4700070620320A9F81800EB
:1009F000306840F001003060D9F80C804FEA1820D0
:100A0000A0FB01010D09284600F0FDFBD9F81000FC
:100A100042F2A051C0F22601884209D268B3B8FB65
:100A2000F0F0B5EB400F03D24000401B00F0EBFBB1
:100A3000306840F0080030603068000709D5306841
:100A4000000744BF30685FEA007002D530680007D5
:100A5000F2D4306840F0040030603068400709D5B7
:100A60003068400744BF30685FEA407002D53068A4
:100A70004007F2D4BDE8000BF0BD42F2307042F204
:100A80004C72C0F60000C0F60002192100F0E7FB2E
:100A9000FEDE000080B56F46C8B2112800F2BD80AE
:100AA000DFE800F009121B242D363F48515A636ECF
:100AB00079848F9AA5B042F21040C4F20100016817
:100AC00062F30201016080BD42F21040C4F20100F5
:100AD000016862F3C501016080BD42F21040C4F2BA
:100AE0000100016862F38811016080BD42F210408C
:100AF000C4F20100016862F34B21016080BD42F243
:100B00001040C4F20100016862F30E31016080BD43
:100B100042F21040C4F20100016862F3D131016079
:100B200080BD42F21040C4F20100016862F39441BA
:100B3000016080BD42F21040C4F20100016862F31E
:100B40005751016080BD42F21040C4F201000168BB
:100B500062F31A61016080BD42F21040C4F20100EC
:100B6000016862F3DD61016080BD42F21040C4F2B1
:100B7000010050F8041C62F3020140F8041C80BD1F
:100B800042F21040C4F2010050F8041C62F3C501A7
:100B900040F8041C80BD42F21040C4F2010050F83D
:100BA000041C62F3881140F8041C80BD42F210401E
:100BB000C4F2010050F8041C62F34B2140F8041CFD
:100BC00080BD42F21040C4F2010050F8041C62F3F0
:100BD0000E3140F8041C80BD42F21040C4F2010006
:100BE00050F8041C62F3D13140F8041C80BD42F27D
:100BF0001040C4F2010050F8041C62F3944140F824
:100C0000041C80BD42F21040C4F2010050F8041CE4
:100C100062F3575140F8041C80BD42F25C7042F20E
:100C20004C72C0F60000C0F60002282100F017FB4D
:100C3000FEDEF0B503AF4DF804BD42F208460546AE
:100C4000C4F201060C46706C2A7EFFF723FFF06A9F
:100C500040F60001C0F240014FF2FF7264F304005D
:100C6000F062687ECFF6BF72002808BF4FF48001A3
:100C700030681040084430603068400209D5306860
:100C8000400244BF30685FEA402002D5306840022D
:100C9000F2D456F8080C80070CD456F8080C8007DC
:100CA0005CBF56F8080C5FEA807003D456F8080C55
:100CB0008007EED5706C5DF804BBF0BD092070476D
:100CC0001C30704710307047183070470C30704738
:100CD000F0B503AF2DE9000F85B00B7A93B1D1E9E0
:100CE00000A640F60015C0F23D05BAF1010C18BF90
:100CF0004FF0010CBAF1010F08BF35464E7A0236AB
:100D00006E4310E00A68012A05D14E684FF0000CCE
:100D10004FF0010A07E041F200264FF0010CC0F24B
:100D20007A064FF0000A8C7A4AF2002BCA7A19250B
:100D300003920B2C0A7B4FF000090292C0F24A4B3F
:100D40008A7B01922246049488BF1A25009383B1BE
:100D5000BCF1000F0DD1A6F13773A6EB0B04A3F580
:100D6000D843B4FA84F4B3FA83F364095B0944EA20
:100D700003090BF101039E423FBF049A154405F09D
:100D80001F0526FA05F538BF9D4221D2039A45F288
:100D90000014C0F22524531D03F0070325FA03FCB9
:100DA000A44515D8029A541D04F0070E25FA0EF832
:100DB000D8459FBF0224019A04EB4204E4B29FBFCE
:100DC000B8FBF4F449F68172C0F2D50294420BD319
:100DD00042F64C0042F6D802C0F60000C0F600020F
:100DE0008B2100F03CFAFEDE0122C0E9005C02FA31
:100DF0000EF59A4080F81690C0E9028604614575A8
:100E0000027543F20160C0F26E10864208D3009B67
:100E100046F60040C0F2DC20864204D2312006E0D3
:100E20003020009B03E04FF0320008BF312042F237
:100E30000002BAF1000FC4F20202106041F2000099
:100E4000C4F2020010D0026842F4803202600268EC
:100E5000920309D4026892035CBF02685FEA82329F
:100E600002D402689203F2D503B34268BAF1000FCC
:100E700022F4741218BF02F580324B7A03F00F038C
:100E800042EA83424260026842F080720260026875
:100E900092015FBF02685FEA821202685FEA821213
:100EA00002D402689201F2D54FF0020A497B0C226B
:100EB000CFF6BF72002918BF0AF5800A41681140B9
:100EC000019A41EA8231029A41EAC221039A41EA37
:100ED0000221049A41EA02115144416005B0BDE883
:100EE000000FF0BD4168007D012818BF0220484373
:100EF00070478168407D012818BF02204843704731
:100F0000F0B503AF2DE90007D1E900AC40F60013BE
:100F10000A6AC0F23D03BAF1010F08BF6346012A15
:100F200017D1002B00F0EE804D6AB5FBF3F6721E70
:100F30000FD01024AB4288BF0124102A38BF34469A
:100F40006343A4F102084FF0010E8A68012A0DD014
:100F500014E041F20023BAF1000FC0F27A034FF01F
:100F6000000E18BF63468A68012A07D1CA68002AA2
:100F700000F0D180B3FBF2F4022C34D24FF0070919
:100F800009F1190404F01F0223FA02F60A69012A82
:100F900001D14A6906E045F200143246C0F2252428
:100FA000A64203D2002A144600F0A3803219013A67
:100FB000B2FBF4F4032C0ED24FF6F872C0F2FF022B
:100FC00002EAC40240F20334C0F20404D4408A6945
:100FD000012A1CD113E0E21E032A08D205248A69E3
:100FE000012A0CD013E04DD14FF00809C8E7A21F29
:100FF0000724062A38BF06248A69012A07D1CA694C
:10100000002A00F09180B6FBF2F2022A13D20325E7
:101010008A6A012A14D1C96A002900F08E8005F17C
:101020001D0202F01F0226FA02F2B2FBF1F2032ABD
:1010300024D2002105E02AD104258A6A012AEAD0B7
:10104000032181734AF20021C0F24A418EF001026D
:10105000591A8AF00103057342EA0302C47280F848
:101060000A9080F8098080F808E0C0E900AC18BF59
:10107000012111434173BDE80007F0BD052A0DD2DF
:101080000121DEE7062C0ED24FF0090978E7062A87
:101090000ED205258A6A012ABDD0D1E70321082A8C
:1010A00038BF0221CDE70C2C0AD24FF00A0967E7BE
:1010B00007250C2A38BF06258A6A012AC0D1AAE76B
:1010C000282C02D24FF00B095AE7602C02D24FF0C5
:1010D0000C090BE0C02C02D24FF00D0906E04FF0D6
:1010E0000F09B4F5C07F38BF4FF00E0909F11A049B
:1010F00048E742F2F07042F61C02C0F60000C0F66B
:10110000000222E042F2F07042F2E072C0F600000B
:10111000C0F6000219E042F2F07042F60C02C0F68E
:101120000000C0F6000210E042F2F07042F62C021D
:10113000C0F60000C0F6000207E042F2F07042F68E
:101140003C02C0F60000C0F60002192100F087F84A
:10115000FEDE40F280100121C4F24220C0F880116E
:101160000160002101600120704770470021816209
:1011700001628161016181600160704740F2881005
:101180000121C4F24220C0F88011016000210160F9
:10119000704740F28C100121C4F24220C0F8801147
:1011A000016000210160704740F290100121C4F2FB
:1011B0004220C0F8801101600021016070470021C9
:1011C000022201700420C4F20100016862F31A6176
:1011D0000160704700780A4638B142F6E8011046CF
:1011E000C0F600010F2200F0D4BD42F6F701104610
:1011F000C0F60001082200F0CCBDFEE7704772B6D1
:10120000704762B67047012101EB50000138FDD1F3
:10121000704780F311887047FEE70068FEE770476B
:101220004FF29B4048F6F471C6F22C40C1F6D5311E
:10123000704780B56F4686B0CDE9030142F6BC2009
:10124000C0F600000122029042F61010C0F6000025
:101250008DF81420019001A8FFF7DEFFFEDE80B5B7
:101260006F4688B0944642F61012C0F60002002382
:10127000CDE906016846049201226146019206AA60
:10128000059302930092FFF7D4FFFEDE80B56F4610
:101290008CB0CDE9000108A9022006910021079039
:1012A000CDE9030142F62820C0F60000694602900D
:1012B00042F24B20C0F60000CDE9090111460B9027
:1012C00001A8089002A8FFF7B4FFFEDE80B56F46C4
:1012D0008EB08DE80F000AA9022008910021CDE907
:1012E0000501099042F6D020C0F60000B9680490CC
:1012F00042F25930C0F600000D9002A80C9042F264
:101300006330C0F600000B9068460A9004A8FFF70F
:1013100090FFFEDEF0B503AF2DE9000F8FB08A46D7
:10132000012190460C91C8F10001049101680A2244
:101330004FF00009029141684FF0000B80680025D2
:101340000D92CDE90A82CDF82490CDE907A8CDE928
:101350000598019103900FE0501810F8010C0A381D
:10136000B0FA80F04009039B18700198C368029896
:1013700098470028A14677D1002D70D1C3454CD89D
:10138000A8EB0B020AEB0B03082A1FD22AB304981E
:10139000002158445E5C0A2E2AD04618751C10D0D5
:1013A0005D186C780A2C1DD0B41C0AD0AC780A2CBD
:1013B0001DD0033605D0EE780A2E29D00431461808
:1013C000E8D100201146012815D025E00A20194651
:1013D00000F0E5FC01280ED01EE0002100200128CD
:1013E00009D019E001310120012804D014E00231B4
:1013F0000120012810D10BEB010010F1010BBDD031
:10140000C345BBD81AF800000A218842B6D11EE0B5
:10141000033101200128EED0C346C1451FD001256C
:101420004C4646460398007848B1019842F63C2164
:10143000C0F600010422C36802989847A0B90AEBDD
:101440000901B6EB09027FF487AF00208BE7002586
:101450005C465E46039800780028E6D1EFE700205E
:101460000FB0BDE8000FF0BD01200FB0BDE8000FC8
:10147000F0BDF0B503AF2DE9000B8EB00446007A45
:1014800048B1666801202072701C606020460EB072
:10149000BDE8000BF0BDD4E90056914688462868A7
:1014A000410719D442F6FE2042F6FA21C0F60000A8
:1014B000C0F600010222002E08BF014608BF01222B
:1014C000D5E90603DB6898470028DBD1D9F80C2062
:1014D000404629469047D6E76EB9D5E90601022273
:1014E000CB6842F6FC21C0F60001984710B10120FC
:1014F0000026C8E72868059042F6E020C0F6000004
:1015000001210C9001A80B902B1DE8690290A8699D
:10151000019095F8200007F83D1CA7F13D010391CB
:101520008DF834000FCB069068690A9007A80EC0AA
:1015300005A94046D9F80C2090470028A2D1DDE942
:101540000B010222CB6842F6F821C0F60001984751
:1015500099E780B56F4682B000228029019201D2BE
:1015600001220BE002220B4662F39F13B1F5006FDC
:101570000BD28DF80530C02343EA91118DF8041089
:1015800001A9FFF7C7FE02B080BDB1F5803F11D2BF
:101590008DF80630E02343EA1133890962F39F1185
:1015A0008DF804308DF80510032201A9FFF7B2FE73
:1015B00002B080BD8DF807308B0962F39F138DF860
:1015C00006300B0B890C62F39F131E2262F3DF01BE
:1015D0008DF805308DF80410042201A9FFF79AFE5A
:1015E00002B080BDF0B503AF4DF804BD88B00190E6
:1015F00002AA91E8785042F6C8311046C0F60001C0
:1016000080E8785001A800F069F808B05DF804BBE4
:10161000F0BD0068FFF77EBE80B56F4682B00068FF
:1016200000228029019201D201220BE002220B4606
:1016300062F39F13B1F5006F0BD28DF80530C02314
:1016400043EA91118DF8041001A9FFF763FE02B07F
:1016500080BDB1F5803F11D28DF80630E02343EA1A
:101660001133890962F39F118DF804308DF805104C
:10167000032201A9FFF74EFE02B080BD8DF80730AE
:101680008B0962F39F138DF806300B0B890C62F304
:101690009F131E2262F3DF018DF805308DF80410D0
:1016A000042201A9FFF736FE02B080BDF0B503AFFA
:1016B0004DF804BD88B0006802AA019091E8785006
:1016C000104642F6C831C0F6000180E8785001A803
:1016D00000F004F808B05DF804BBF0BDF0B503AF4E
:1016E0002DE9000F8BB093460322DBF808608DF8DC
:1016F0002820202203920022002E0292CDE9080128
:101700000692049269D0DBF80C00002800F08B8070
:10171000DBF800904FEA401A0138002420F07840AE
:101720004FF000080130019009EB0800426842B117
:10173000DDE9080359F80810DB689847002840F0F5
:101740008C8006EB8800D0E90115D0E905320391C1
:10175000017F8DF82810DBF81010029573B1012B72
:1017600008D101EBC20241F21B25C0F60005536807
:10177000AB4201D0002302E0126812680123CDE9D8
:101780000432C2683019006972B1012A08D101EB34
:10179000C00041F21B23C0F6000342689A4201D008
:1017A000002202E0006800680122CDE906203259DB
:1017B00051F8320001EBC2014A6802A990470028A3
:1017C0004BD1203408F10808A245ADD1DDF80490D2
:1017D000DBF80400814533D344E0DBF8140048B360
:1017E000DBF81010C60001380DF108080C1DDBF8FD
:1017F000001020F060400D1D00F101092A6832B18F
:10180000DDE90801CB6855F8041C984728BB54F85B
:10181000040C414622689047F8B90834083E05F1A7
:101820000805EBD101E04FF00009DBF80400814529
:1018300006D317E04FF00009DBF80400814511D210
:10184000DBF80000494650F8311000EBC90042684F
:10185000DDE90803DB68984720B101200BB0BDE843
:10186000000FF0BD00200BB0BDE8000FF0BDF0B5DB
:1018700003AF2DE9000F87B0D7F80C909B46944634
:101880000646E9B1346814F0010000EB090A4FF094
:101890002B0008BF4FF4881006906007D7F8088027
:1018A00017D5BBF1100F45D2BBF1000F66D0ABF1DD
:1018B00001000BF00301032862D2002062467DE0A4
:1018C000346809F1010A2D2006906007D7F80880D6
:1018D000E7D44FF0000CB068002800F08B80CDF802
:1018E00014B0D6F80CB0D34515D92007CDF8108028
:1018F00027D496F82000ABEB0A01E346032808BF83
:101900000120820700F09B80012840F09A804FF070
:10191000000A084699E005986346D6E90645009016
:101920002946069A204600F0E0F800286ED04FF0D5
:1019300001081EE060465946654600F0FAFAAC46DA
:1019400053E03020746870604FF0010896F8200072
:101950006346CDF80C9002900598D6E9069586F876
:10196000208029460090069A484600F0BEF80028DC
:1019700056D0404607B0BDE8000FF0BD002034E06F
:101980002BF003030020624612F9045B15F1410FAE
:10199000C8BF013012F9035C15F1410FC8BF013017
:1019A00012F9025C15F1410FC8BF013012F9015C58
:1019B00015F1410FC8BF0130043BE5D1A9B192F93F
:1019C000003013F1410FC8BF013001290DD092F949
:1019D000013013F1410FC8BF0130022905D092F93F
:1019E000021011F1410FC8BF01308244B0680028D5
:1019F0007FF475AFD6E906456346CDF800B02946B9
:101A0000069A204600F071F800284FD1EB68204676
:101A100041464A4607B0BDE8000FBDE8F040184710
:101A20000694ABEB0A00DDF81080441C013C37D073
:101A30002A694846302190470028F7D036E08A4688
:101A400003E0480801314FEA510A7568441CD6E9A1
:101A50000686013C06D03269404629469047002858
:101A6000F7D023E0B5F5881F20D0059831460090C7
:101A70004046069A5B4600F038F8B8B9F36840462D
:101A800004994A46984788B90024A24521D0326972
:101A900040462946904701340028F6D0601E19E0E0
:101AA000EB684846039A4146984730B14FF0010829
:101AB000404607B0BDE8000FF0BD02984FF00008A7
:101AC00086F8200006987060404607B0BDE8000F19
:101AD000F0BD50464FF00008504538BF4FF00108A8
:101AE000404607B0BDE8000FF0BDF0B503AF4DF8BC
:101AF000048DD7F808801C460D460646B2F5881FAF
:101B000008D02B6930461146984718B101205DF87E
:101B1000048BF0BD44B1EB683046214642465DF887
:101B2000048BBDE8F040184700205DF8048BF0BD41
:101B3000F0B503AF2DE9000F81B08846D0F808C09A
:101B400001698146BCF1010F18BF01290AD10129A1
:101B500077D1D9F8140008EB020E4FF0000B414684
:101B6000461C0CE0D9E90601D2E040EA8115A11C2F
:101B7000ABEB0400B5F5881F00EB010B61D0013E13
:101B80000C4628D074455CD0214611F9010BB0F108
:101B9000FF3FC5B2ECDC607805F01F01DF2D00F0DF
:101BA0003F00E2D9A378F02D03F03F0343EA801011
:101BB0000DD3E37801F0070103F03F0343EA8010FF
:101BC00040EA8145B5F5881F3BD0211DD0E740EAAA
:101BD0000135E11CCCE7744533D094F90000B0F135
:101BE000FF3F04DCC1B2E02928BFF02915D2BBF1C8
:101BF000000F09D0934506D218F90B0010F1400FE1
:101C000002DA002101E0FCD1414600290CBF9346D5
:101C10008846BCF1000F18D175E0A37801F00701E8
:101C2000607803F03F03E67800F03F009B0143EA51
:101C3000003006F03F03184440EA8140B0F5881FA9
:101C4000D5D19346BCF1000F5DD0D9F80C40BBF163
:101C5000100F0BD2BBF1000F0DD0ABF101000BF058
:101C60000301032809D20020424624E04046594699
:101C700000F05FF936E0002034E02BF00303002091
:101C8000424612F9046B16F1410FC8BF013012F938
:101C9000036C16F1410FC8BF013012F9026C16F146
:101CA000410FC8BF013012F9016C16F1410FC8BFD6
:101CB0000130043BE5D1A9B192F9003013F1410F95
:101CC000C8BF013001290DD092F9013013F1410F45
:101CD000C8BF0130022905D092F9021011F1410F5D
:101CE000C8BF013084420ED999F82020201A4646F8
:101CF000D11E18BF11468A0715D0012910D1002125
:101D00000091014610E0D9F81C105A46D9F8180085
:101D1000CB68414601B0BDE8000FBDE8F040184770
:101D20004108013040080090D9F8044001F1010A4F
:101D3000D9E90685BAF1010A06D02A69404621464A
:101D400090470028F6D008E0B4F5881F05D0EB686E
:101D5000404631465A46984720B1012001B0BDE8BF
:101D6000000FF0BDDDF800900026B14508D02A69CB
:101D700040462146904701360028F6D0711E00E00B
:101D800049460020494538BF012001B0BDE8000F99
:101D9000F0BDD0E90630D0F80CC018466047F0B569
:101DA00003AF2DE9000B5FFA80FCC81C20F0030094
:101DB000884225D0401A904228BF104600B3C0F197
:101DC000000E0023CC5C644565D00EEB0304651C5B
:101DD00011D0CD186E7866456BD0A61C0BD0AE78AE
:101DE00066456CD0033406D0EC7864456DD004337E
:101DF0001EEB0304E6D1A2F10803984203D91FE0C9
:101E0000A2F1080300204FF001360CFB06F50E5836
:101E10006E40A6F1013424EA060616F0803F01BFA9
:101E20000E1876686E40A6F1013404BF24EA060657
:101E300016F0803F02D108309842E8D990424AD843
:101E4000824205D1002013461946BDE8000BF0BDC3
:101E5000A2EB000E0B18A0EB0208AEF10109002165
:101E60005C5C64451FD08945ECD05E18747864458D
:101E70000FD008EB0104A51CE4D0B57865450FD060
:101E80000334DFD0F47864450CD004318E45E7D1BB
:101E9000D8E701310B1801201946BDE8000BF0BD51
:101EA000023100E003310B1801201946BDE8000B98
:101EB000F0BD013301201946BDE8000BF0BD02332F
:101EC00001201946BDE8000BF0BD0333012019467F
:101ED000BDE8000BF0BD42F6E4331146C0F6000346
:101EE0001A4600F001F8FEDE80B56F4600F001F8FA
:101EF000FEDE80B56F468CB0CDE9000108A9022056
:101F0000069100210790CDE9030142F62840C0F672
:101F1000000001A9029042F24B20C0F60000CDE97A
:101F2000090111460B906846089002A8FFF781F955
:101F3000FEDEF0B503AF2DE9000F0246033020F0BE
:101F40000300831A8B4298BF042B0BD931B1481E72
:101F500001F00303032810D200202BE00020BDE88D
:101F6000000FF0BDA1EB030EBEF1040FEED30EF097
:101F7000030C904238D1002074E021F003010020CE
:101F800012F9046B16F1410FC8BF013012F9036C4E
:101F900016F1410FC8BF013012F9026C16F1410F62
:101FA000C8BF013012F9016C16F1410FC8BF0130F2
:101FB0000439E5D1ABB192F9001011F1410FC8BF5E
:101FC0000130012B0DD092F9011011F1410FC8BF62
:101FD0000130022B05D092F9021011F1410FC8BF58
:101FE0000130BDE8000FF0BDD143084403F0030108
:101FF000032802D2002014461DE023F00305002030
:10200000144614F9046B16F1410FC8BF013014F9DE
:10201000036C16F1410FC8BF013014F9026C16F1C0
:10202000410FC8BF013014F9016C16F1410FC8BF50
:102030000130043DE5D1A9B194F9005015F1410FEB
:10204000C8BF013001290DD094F9015015F1410F9D
:10205000C8BF0130022905D094F9021011F1410FD7
:10206000C8BF013013444FEA9E080021BCF1000FA5
:102070001AD02EF003021A4492F9006016F1410FB3
:10208000C8BF0121BCF1010F0ED092F9016016F119
:10209000410FC8BF0131BCF1020F05D092F90220F7
:1020A00012F1410FC8BF013108444FF0FF1C0FE08F
:1020B0000CEA1B222BF0FF242244A8EB09080EEBAC
:1020C000890319F0030102EB024200EB12403ED1FA
:1020D000B8F1000F3FF485AFB8F1C00FC14628BF7B
:1020E0004FF0C00919F0FC029E464FF0000B03EBC5
:1020F000820ADDD07346002B1FBFD3E90065D3E908
:102100000212F443E4091FBF44EA961424F0FE349B
:102110005C44EE431FBFF60946EA951525F0FE35EF
:102120002C441FBFCD43ED0945EA911121F0FE314A
:102130001FBF2144D443E40944EA92121FBF22F096
:10214000FE3202EB010B10335345D4D1B0E7BEF1A0
:10215000000F22D0DAF8002001296FEA02034FEACB
:10216000D31343EA921222F0FE3317D0DAF8042098
:1021700002296FEA02064FEAD61646EA921222F0C8
:10218000FE3213440AD0DAF80810CA43D20942EAF0
:10219000911121F0FE310B4400E00023FF2123F0D8
:1021A000FF22C0F2070101EA1321114401EB0141B2
:1021B00000EB1140BDE8000FF0BDB0B502AF84B038
:1021C0000C460090D1E906010F22CB6842F6384157
:1021D000C0F6000198478DF80C00002042F64842F6
:1021E0008DF80D00029001A86946C0F60002019426
:1021F000FFF73FF902989DF80C4000B30CB10124A1
:102200001DE0019D012810D19DF80D0068B12878CE
:1022100040070AD4D5E906010122CB6842F6FF2126
:10222000C0F600010124984748B9D5E9060101220A
:10223000CB6842F61011C0F6000198470446002C06
:1022400018BF0124204604B0B0BDF0B503AF2DE99E
:10225000000F8DB0046842F6003842F210700E464E
:102260008442C0F6000841D341F259794EF2FF0E84
:102270000021CDF2B71941F27B4A4FF0640BC0F256
:10228000F55E0296A7F14302744502EB0105A4FB3B
:102290000926A1F104014FEA563202FB104614460A
:1022A0001FFA86FC4FEA9C0303FB0AF34FEA5343F1
:1022B00038F81300A5F8230003FB1B6080B238F840
:1022C0001000A5F8250042F21070DBD8029E01F143
:1022D00027031446632C0CD821460A291BD338F84F
:1022E0001110981EA7F14302115219E02723632C05
:1022F000F2D9A0B241F27B418008023B4843A7F1EA
:102300004302410C642001FB104080B238F81000F9
:10231000D0520A29E3D2581EA7F14302303111549A
:10232000C0F12701A7F14302104442F61012CDE993
:102330000001C0F60002304601210023FFF797FAA2
:102340000DB0BDE8000FF0BD084642F6E031C0F622
:1023500000010222FFF7ECBBD0E90020C368104661
:1023600018470B46D0E900121846FFF7E1BB70464C
:102370000421084203D1EFF3088000F004B8EFF322
:08238000098000F000B8FEE73F
:1023900063616C6C65642060526573756C743A3A65
:1023A000756E77726170282960206F6E20616E20D3
:1023B00060457272602076616C75657372632F6D13
:1023C00061696E2E727300006D010008010000004B
:1023D00001000000D5110008BB2300080B0000001D
:1023E000BA0000000D000000617373657274696FBC
:1023F0006E206661696C65643A2028504552495FD9
:10240000414444524553535F53544152542E2E3D40
:10241000504552495F414444524553535F454E44F1
:10242000292E636F6E7461696E732826616464720D
:10243000292F686F6D652F7369642F2E6361726732
:102440006F2F72656769737472792F7372632F6768
:1024500069746875622E636F6D2D31656363363202
:10246000393964623965633832332F73746D3332AE
:10247000663178782D68616C2D302E31302E302FFA
:102480007372632F62622E727300000031240008A1
:10249000580000002D000000050000006173736506
:1024A0007274696F6E206661696C65643A20636C52
:1024B0006B2E726177282920252046524551203DF8
:1024C0003D20302F686F6D652F7369642F2E636117
:1024D00072676F2F72656769737472792F73726395
:1024E0002F6769746875622E636F6D2D3165636344
:1024F0003632393964623965633832332F73746D1B
:102500003332663178782D68616C2D302E31302E63
:10251000302F7372632F74696D65722E72730000B1
:10252000C32400085B000000AA02000009000000AC
:1025300063616C6C65642060526573756C743A3AC3
:10254000756E77726170282960206F6E20616E2031
:1025500060457272602076616C7565001705000831
:102560000000000001000000BB210008C324000897
:102570005B000000AC020000200000000002040626
:10258000010305070004010502060307000080009F
:10259000000080000000800000008000800000003B
:1025A00080000000800000008000000000000001AA
:1025B0000000000100010000000100000000000117
:1025C0000000000100010000000100000000000206
:1025D00000020000000000020002000000000002F3
:1025E000000200000000000200020000537562209B
:1025F0006661696C65642100EC2500080B00000031
:102600002F686F6D652F7369642F2E636172676F1A
:102610002F72656769737472792F7372632F67699C
:10262000746875622E636F6D2D3165636336323960
:102630003964623965633832332F66756769742D82
:10264000302E332E362F7372632F64757261746966
:102650006F6E2E7273000000002600085500000007
:102660005502000001000000FC60DAF266B6BEE030
:10267000FEF6EE3E9C7A9E8E0100FD61DBF367B7AD
:10268000BFE1FFF7EF3F9D7B9F8F7372632F7365F1
:1026900067656D656E74732E727300008A2600087C
:1026A000100000006E0000001B000000040000008D
:1026B0000500000006000000070000000000000008
:1026C00001000000020000000300000005060700F2
:1026D000010203042F686F6D652F7369642F2E63E9
:1026E0006172676F2F72656769737472792F737285
:1026F000632F6769746875622E636F6D2D31656332
:10270000633632393964623965633832332F737412
:102710006D3332663178782D68616C2D302E313012
:102720002E302F7372632F6164632E72730000006A
:10273000617474656D707420746F20646976696467
:1027400065206279207A65726F000000D426000847
:10275000590000001C02000001000000696E746551
:10276000726E616C206572726F723A20656E74656C
:1027700072656420756E726561636861626C652064
:10278000636F64652F686F6D652F7369642F2E63A7
:102790006172676F2F72656769737472792F7372D4
:1027A000632F6769746875622E636F6D2D31656381
:1027B000633632393964623965633832332F737462
:1027C0006D3332663178782D68616C2D302E313062
:1027D0002E302F7372632F7263632E7273000000AA
:1027E00084270008590000002B0200000D000000A3
:1027F000617474656D707420746F206469766964A7
:1028000065206279207A65726F00000084270008D5
:102810005900000045020000130000008427000852
:102820005900000061020000200000008427000819
:10283000590000006A02000013000000842700080D
:1028400059000000800200001300000061737365EE
:102850007274696F6E206661696C65643A20737981
:1028600073636C6B203C3D2037325F3030305F301B
:1028700030302026262068636C6B203C3D203732A8
:102880005F3030305F3030302026262070636C6B34
:1028900031203C3D2033365F3030305F30303020E7
:1028A00026265C6E202020202020202070636C6B68
:1028B00032203C3D2037325F3030305F30303020C6
:1028C000262620616463636C6B203C3D2031345FBD
:1028D0003030305F3030300084270008590000006D
:1028E000BD0200000900000057726F6E67417574E9
:1028F0006F52656C6F616444697361626C656450AA
:10290000776D4D6F64653250776D4D6F6465310042
:1029100029000000636F756C64206E6F7420636F14
:102920006E7665727420736C69636520746F2061C4
:1029300072726179696E646578206F7574206F6654
:1029400020626F756E64733A20746865206C656EE2
:10295000206973206C6962726172792F636F72658E
:102960002F7372632F666D742F6275696C64657264
:10297000732E72736C6962726172792F636F726504
:102980002F7372632F736C6963652F6D656D636858
:10299000722E72730000000020000000080000008A
:1029A0000200000000000000000000000200000023
:1029B00003000000000000003000000000000000E4
:1029C0000200000000000000010000000100000003
:1029D00000000000000000002000000004000000D3
:1029E00002000000000000000200000000000000E3
:1029F00003000000000000002000000008000000AC
:102A000002000000000000000100000001000000C2
:102A100003000000206275742074686520696E648C
:102A20006578206973200000342900082000000028
:102A3000142A00081200000069746572202020200A
:102A40007472756549746572203C3D2064617461DF
:102A50006B696E646D616E74706C75735A65726FBC
:102A6000436F70794C657373636F646554797065F7
:102A7000446F6E654368617246757365536F6D652B
:102A80004E6F6E654974656D66696C656C696E65DF
:102A90004C6566747461696C77616B6564726F70A4
:102AA00073697A6575387832693878327538783470
:102AB0006938783475387838693878381F120008E2
:102AC0000000000001000000211200083A20000070
:102AD0001029000800000000CC2A000802000000B5
:102AE0001F1200080C00000004000000151300086D
:102AF00053150008E51500082C0A2C20280A282C5C
:102B000030303031303230333034303530363037A9
:102B1000303830393130313131323133313431358F
:102B20003136313731383139323032313232323375
:102B3000323432353236323732383239333033315B
:102B40003332333333343335333633373338333941
:102B50003430343134323433343434353436343739
:102B6000343834393530353135323533353435351F
:102B70003536353735383539363036313632363305
:102B800036343635363636373638363937303731EB
:102B900037323733373437353736373737383739D1
:102BA00038303831383238333834383538363837C9
:102BB00038383839393039313932393339343935AF
:102BC00039363937393839391F1200080400000006
:102BD000040000001316000819160008AD160008BE
:102BE0002829000074290008200000006800000067
:102BF0002700000072616E67652073746172742033
:102C0000696E64657820206F7574206F662072612C
:102C10006E676520666F7220736C696365206F66EE
:102C2000206C656E67746820F42B000812000000A9
:102C3000062C00082200000054727946726F6D491C
:102C40006E744572726F72001F120008040000005B
:082C5000040000004923000804
:0400000508000131BD
:00000001FF
