:020000040800F2
:1000000000500020ED00000827340008E94D0008EA
:1000100027340008273400082734000800000000B7
:10002000000000000000000000000000273400086D
:100030002734000800000000273400082734000897
:100040002734000827340008273400082734000824
:100050002734000827340008273400082734000814
:1000600027340008273400082734000853290008E3
:10007000372900081B2900084529000861290008C4
:10008000292900080D290008273400082734000812
:1000900027340008273400082734000827340008D4
:1000A00027340008273400082734000827340008C4
:1000B000C52C00082734000827340008370400083E
:1000C00027340008273400082734000827340008A4
:1000D00027340008290400082734000827340008C2
:0C00E000273400082734000827340008EB
:1000EC0003F09CF9084809490022814201D004C060
:1000FC00FBE707480749084A814202D008CA08C0F2
:10010C00FAE700F099F900DE7000002038020020B8
:10011C00000000207000002030630008F0B503AF31
:10012C004DF804BD86B01C4615460E4603F0C5F8C6
:10013C00C0B202F021FB0122B968CDE902200020F7
:10014C000491C4F2020003212346CDE9006502F0BC
:10015C0025FF06B05DF804BBF0BDF0B503AF4DF85C
:10016C0004BD86B01C4615460E4603F0A6F8C0B278
:10017C0002F002FB0122B968CDE9022000200491B3
:10018C00C4F20200042100223346CDE9005402F0EF
:10019C0005FF06B05DF804BBF0BDB0B502AF02F0D0
:1001AC0058FE044602F05AFE0546204603F0FDF8C0
:1001BC000068E1686269C30718BF11F480730FD13E
:1001CC0010F00E0F18BF12F0010209D1C90616D596
:1001DC0010F0100013D06FF040006FF0100103E02E
:1001EC006FF041006FF49871E2681140E160616951
:1001FC00084060612846BDE8B04003F04FB9B0BD7F
:10020C00F0B503AF4DF804BD86B0044602F09DFE78
:10021C0002F0ABFED4E90001CDE9020102F019FEB7
:10022C0005AC0546204602F0B6FE002003F0CEF8E1
:10023C004168042262F30B214160204602F0ABFEC0
:10024C00002003F0C3F841680B2262F307114160F0
:10025C0002F009FE02A90246012628460123CDE937
:10026C00006603F03BF8204603F02DF840F2A7118E
:10027C00C0F600010160204603F023F803F02CF9CE
:10028C0082B201465009B2F5007F25D24EF200141D
:10029C0001F01F01CEF2000404EB800006FA01F11C
:1002AC00C0F8801105A803F00CF803F015F982B220
:1002BC0001465009B2F5007F13D201F01F01012253
:1002CC0002FA01F144F8201002F0C8FD9DF80F006D
:1002DC0006B05DF804BBF0BD44F68462C0F60002C3
:1002EC0003E044F67462C0F60002102103F0EFFD47
:1002FC00FEDE80B56F4682B0044603F08FF940F203
:10030C0090150190C2F20005064655E8020F48B957
:10031C000320BFF35F8F45E8020149B155E8021F86
:10032C000029F8D0BFF32F8F0025BFF35F8F0EE0AD
:10033C0005F11400BFF35F8F03F02FFA40F64B1159
:10034C00C0F60001016000202E6285F8240001A88F
:10035C00294600F07FF9204603F038F920BFFAE770
:10036C00B0B502AF0C460968054602F061FD28469F
:10037C0002F052FD40B12846214600F0E4FFC0B225
:10038C00062808BF0720B0BD0620B0BDD0B502AF0F
:10039C0082B0044602F082FF27F80A0CA7F10A008B
:1003AC0003F044FC204602F07FFF02B0D0BDD0B574
:1003BC0002AF82B0044603F0A0FA27F80A0CA7F1AA
:1003CC000A0003F033FC204603F09DFA02B0D0BDC6
:1003DC00D0B502AF82B0044640F20400C0F2000077
:1003EC0003F00CFC27F80A0CA7F10A0003F01EFC22
:1003FC00204603F065FC02B0D0BDD0B502AF82B090
:10040C00044602F0D4FF27F80A0CA7F10A0003F007
:10041C000DFC204602F0D1FF02B0D0BD40F21820F6
:10042C00C2F2000001684068084740F22020C2F286
:10043C00000001684068084780B56F4600F001F87D
:10044C00FEDE80B56F4686B001AC204603F032FA72
:10045C002046FFF74EFFFEDEF0B503AF4DF804BDAE
:10046C000446084602F019FF0546E6B202F0E7FC26
:10047C000A2E02D250F8101F05E00A3C50F80C1F4F
:10048C00E2B2082A0ED2E3B205F0070203EB4303F3
:10049C0007269A4006FA03F39943114301605DF86D
:1004AC0004BBF0BD44F6B07044F6CC72C0F600004C
:1004BC00C0F600021C2103F0F3FCFEDED0B502AF47
:1004CC00044602F0DDFC02F0EBFC02F0B8FC8168A3
:1004DC0041F00101816002F07BF9806988B348F238
:1004EC008041C0F21E01B1FBF0F0411C204603F02C
:1004FC009EFA02F0A4FC816841F00801816002F0D0
:10050C009EFC80680007FAD402F099FC816841F0E7
:10051C000401816002F093FC80684007FAD402F079
:10052C0057F98069B0B144F24021C0F20F01B1FB20
:10053C00F0F0411C204603F07AFABDE8D04002F0FE
:10054C0045BC44F6007044F6F062C0F60000C0F6FC
:10055C00000207E044F6007044F61C72C0F600007E
:10056C00C0F60002192103F09BFCFEDEB0B502AF11
:10057C00054608460C4602F00CFD2978FFF76CFF87
:10058C0002F05DFC416821F41061416002F057FCFF
:10059C00C16A21F47001C16202F051FC81684FF60E
:1005AC00FD72CFF6A172114001F5F011816002F0DD
:1005BC0046FC0546204602F0ECFC00F01F00686388
:1005CC00BDE8B04000F02EB8D0B502AF007802F014
:1005DC0064FE00F0070402F032FCC16821F46001F3
:1005EC0041EA4451C16002F02AFC416821F41061D7
:1005FC00416002F024FCC16A21F47001C16202F076
:10060C001EFC81684FF6FD72CFF6A172114001F508
:10061C00F011816002F013FC11214163BDE8D04060
:10062C0000F000B880B56F4602F009FC816841F417
:10063C00800141F00101816002F001FC8068400200
:10064C00FAD402F0FCFB00688007FAD502F0F7FB45
:10065C00C06C80BD80B56F4682B029B1006802B015
:10066C00BDE8804002F09ABF01F085F940F22D0000
:10067C00C0F2000003F0C2FA27F8060CB81F03F012
:10068C000CFB01A8FFF793FE01F077F903F043FB95
:10069C00FEDEF0B503AF2DE9000B0446007F884663
:1006AC0070B1032844D1207B88B1032825D045F2B2
:1006BC00500045F2D402C0F60000C0F600023FE044
:1006CC0004F110020020207307CA84E80700A56813
:1006DC00D4E90069284602F060FC02F0BAFB4169DB
:1006EC0041F08001416102F0B4FB02F05CFE034674
:1006FC00284631464A4601F079F8D8F800102046D1
:10070C0002F078FB204602F06EFB10B106200321AC
:10071C0009E0204602F05CFB204602F064FB002856
:10072C00FAD10520012121772173BDE8000BF0BD22
:10073C0045F2500045F2F402C0F60000C0F600028B
:10074C00232103F0ADFBFEDEB0B502AF84B004464E
:10075C00400711D1204603F029F8CDE9010101A889
:10076C00039004F1200594F8310070B901F05BFCA2
:10077C00032184F830100FE045F268120820C0F60F
:10078C000002214603F0C3FBFEDE03A9284603F05A
:10079C00DAF8C0B994F83010284601F041FC94F80E
:1007AC00300001F014FCC0B2002184F830000120AC
:1007BC0003F041F903F0A8F8C4E9080102F00100C4
:1007CC0084F82800E1E7032084F8310004B0B0BDC0
:1007DC00F0B503AF4DF8048D84B00446400731D119
:1007EC00204602F0E3FFCDE900016846029004F1D7
:1007FC00200594F86F0004F1400600286FD1D4E96D
:10080C001823304601F029FB03A8FFF757FEC0B2AE
:10081C00A046122108F86E0F04F1240021621C215D
:10082C0004F0D8FA02F00BFB816841F400018160FE
:10083C0040462946FFF7C8FE214621F86C0F41F8C7
:10084C00041C08E045F268120820C0F6000221469C
:10085C0003F05DFBFEDE304601F03CFA0078073811
:10086C0038BF002002282ED104F16E002946FFF774
:10087C007DFEA16E0988002942D080B24FF49662A9
:10088C00504342F2C50241F27B43B0FBF1F080B21F
:10089C00C10851430A0D81085943626202EB82027E
:1008AC005200B2EB514F35D8490C8A1AA2624CF661
:1008BC00CD42504301EB81014900B1EBD04F32D80E
:1008CC00C00C401AE0623046294601F005FA03F0EC
:1008DC001BF8C4E9140102F0010084F8580004F17B
:1008EC00500002A903F02FF818B9304601F023FA92
:1008FC00B1E7032084F86F0004B05DF8048BF0BD01
:10090C0045F2F01045F2E012C0F60000C0F600020D
:10091C00192111E045F2900045F2C012C0F600001A
:10092C00C0F6000207E045F2900045F2D012C0F686
:10093C000000C0F60002212103F0B2FAFEDEF0B591
:10094C0003AF2DE90007A0B08146400740F0CB81F2
:10095C00484602F02BFF99F82400002840F0CC8187
:10096C00D9F8208001F007F840F20B00C0F200002B
:10097C0003F044F90DF1480AADF84800504603F075
:10098C008CF900F0FAFF02F09FFA04200222C4F264
:10099C00010005AC016862F31A61016041F21800B4
:1009AC00C4F20200016821F001010160204601F04F
:1009BC003EFF4AF200200121C0F24A4045F20012EB
:1009CC000E90C0F22522CDE90910CDE9071041F2B5
:1009DC000020C0F27A000D91CDE905105046CDE90A
:1009EC000B122ECC2EC02ECC2EC094E86E006EC0F6
:1009FC00504601F027FF00F0BEFF40F20C00C0F2A1
:100A0C00000003F0FBF8ADF8480012A803F045F91C
:100A1C0000F0B3FF40F27004C2F2000454E8020F7D
:100A2C0048B90320BFF35F8F44E8020161B154E879
:100A3C00021F0029F8D045F25C20BFF32F8FC0F6BF
:100A4C000000BFF35F8F8BE004F11400BFF35F8FE6
:100A5C0002F0A3FE40F25571C0F6000101600020C7
:100A6C0084F831004046214602F098FD00F083FFE7
:100A7C0040F20D00C0F2000003F0C0F8ADF84800E1
:100A8C0012A803F00AF900F078FF00F074FF40F2AE
:100A9C000E00C0F2000003F0B1F8ADF8480012A847
:100AAC0003F0FBF800F069FF00F065FF40F20F0067
:100ABC00C0F2000003F0A2F8ADF8480012A803F051
:100ACC00ECF800F05AFF0220002102F0D5FF40F2B2
:100ADC00A8060546C2F2000656E8020F50B90C46AD
:100AEC000320BFF35F8F46E8020161B156E8021F95
:100AFC000029F8D045F26C20BFF32F8FBFF35F8F26
:100B0C00C0F600002CE006F11400BFF35F8F02F07A
:100B1C0044FE40F2DD71C0F600010160002086F851
:100B2C006F0040463146C6E9185402F037FD40F2DA
:100B3C001814C2F2000454E8020F48B90320BFF3A2
:100B4C005F8F44E80201C9B154E8021F0029F8D0B4
:100B5C0045F27C20BFF32F8FBFF35F8FC0F60000F0
:100B6C0045F2A413009045F2781012AAC0F60000CA
:100B7C00C0F600032B2103F000FAFEDE04F1140092
:100B8C00BFF35F8F02F009FE40F61D510025C0F641
:100B9C00000101604046214684F8225002F0FEFC20
:100BAC0040F2B910C2F20000D0E84F1F49B9012140
:100BBC00BFF35F8FC0E8421FEAB1D0E84F2F002A85
:100BCC00F8D0BFF32F8F0120BFF35F8F159045F244
:100BDC001C2045F28C21C0F60000C0F600011490D8
:100BEC0045F27810C0F600001795169012A81295D1
:100BFC0003F040F9FEDEBFF35F8F02F0D2FA00F093
:100C0C00010348F2A06001F00102C0F20100194694
:100C1C0000F037FD4FF47A700021002402F02CFF15
:100C2C0007F81A4C01F0F7FD0122CDE90201A7F1FA
:100C3C001A03CDE9003245F29C2212A8C0F600023C
:100C4C004021012300F0AEFBC0B2032813D00728CB
:100C5C001FD100F090FE40F21200C0F2000002F032
:100C6C00CDFFADF8480012A803F017F8A7F11A0051
:100C7C00FFF7AEFB20E000F07EFE40F21100C0F268
:100C8C00000002F0BBFFADF8480012A803F005F815
:100C9C0012E007F8190C00F06EFE40F21000C0F2E2
:100CAC00000002F0ABFFADF8480012A802F0F5FF0F
:100CBC00A7F11900FFF76AFB00F05FFE012089F82D
:100CCC00240009F10800BFF35F8F50E8001F21F0EA
:100CDC00010140E80012002AF7D1BFF35F8F20B06A
:100CEC00BDE80007F0BD45F268120820C0F600020E
:100CFC00494603F00CF9FEDE45F2500045F24C2259
:100D0C00C0F60000C0F60002232103F0C9F8FEDE95
:100D1C00F0B503AF2DE9000F8FB08246400740F0CD
:100D2C008080504602F042FDCDE9040104A80690F3
:100D3C000AF120099AF82200CDF80490DFE810F0AF
:100D4C00070097009700D60298023400980040F2F2
:100D5C00B810C2F20000D0E84F1F51B90121BFF307
:100D6C005F8FC0E8421F002A4BD0D0E84F2F002ADB
:100D7C00F7D0BFF32F8F0120BFF35F8F0A9045F29E
:100D8C001C2045F27811C0F60000C0F60001099055
:100D9C0000200B9145F224210C90C0F60001079025
:100DAC0007A803F067F8FEDE534613F8700F00280F
:100DBC0000F07F8003283DD1544614F8600F0028C2
:100DCC0000F07F8003283ED1D04618F8500F002841
:100DDC0000F0828003283FD15146039311F8350F60
:100DEC000291DFE810F0A100050044006601320119
:100DFC0045F2500045F2B402C0F60000C0F6000205
:100E0C0032E007ADBFF35F8F284602F061FA284647
:100E1C00FFF7F6F98AF820000A210020CAE90A0136
:100E2C007FE245F268120820C0F60002514603F03A
:100E3C006EF8FEDE45F2500045F2E402C0F600000A
:100E4C00C0F6000210E045F2500045F2C402C0F6B4
:100E5C000000C0F6000207E045F2500045F23C02EB
:100E6C00C0F60000C0F60002232103F019F8FEDEE4
:100E7C000AF1240506A92846FFF70BFCC6B2062E7C
:100E8C0000F0C3819AF84000032804BF9AF83000A0
:100E9C00032800F00281052E40F0CC81002053463F
:100EAC0003F8700F0120A3F14F0143E9031043F83D
:100EBC00049C0020544604F8600F221D07CA04E964
:100ECC0007000020D04628F8500F08F1040207CA8A
:100EDC0048F8042C48E90501DAE90F010526DAF88F
:100EEC004C2000290393CAF8442000F069810023A8
:100EFC000426B3EB114F40F063812546544604F8A9
:100F0C00353F9AF8516044F8110C0798C4F8020068
:100F1C009DF82000CAF84810667044F8052C44F877
:100F2C000D1C0294A0712C4600209AF836B08AF859
:100F3C003400DAF824000090DAF82890DAF83060FF
:100F4C0001F087FF0546CAF82C00304602F025F860
:100F5C0001F07FFF02F027FA009A01464B4630461B
:100F6C00DDF8049000F015FC01208AF8340030788C
:100F7C0058B9284602F019FA0668284602F013FA06
:100F8C0000783146284602F011FAE8684FF4807177
:100F9C0001EA900120F490700844E860686940F020
:100FAC00410068616869CAF83800400635D42846A3
:100FBC0002F0FBF9D0F80090284602F0F4F9007822
:100FCC004946284602F0F2F95FEAC9704FF0030671
:100FDC004FF0010B40F09E805FEA89704FF00006E5
:100FEC0000F198805FEA497000F193805FEA097024
:100FFC00DDF804904FF0020600F18E8000F0BBFC8F
:10100C0040F22800C0F2000002F0F8FD27F8220C94
:10101C00A7F1220002F041FE1FE1BBF1000F45D009
:10102C00284602F0C2F90668284602F0BCF900789E
:10103C003146284602F0BAF9E86840F01000E86042
:10104C000020CAF838508AF834000AF1380506A98D
:10105C002846FFF785F95FFA80F9B9F1070F06D139
:10106C00029904204FF0020BDDF804902FE0284683
:10107C0001F0C7FE284601F0CFFE0028FAD1B9F1E5
:10108C00050F32D04FF0000B0026B9F1060F029A73
:10109C001CBF4FF0010B4E462BE0284601F098FE8A
:1010AC00284601F0A0FE0028FAD1F4E600208AF8C8
:1010BC0034000AF138050699284601F0B9FE284695
:1010CC0001F0AAFE28B1029903204FF0020B087020
:1010DC003EE0284601F095FE284601F09DFE0028D2
:1010EC00FAD14FF0000B002616E0029A01264FF0C1
:1010FC00000BDAF82C00C16821F49871C1604169C9
:10110C0021F041014161DDF8049000208AF834009F
:10111C001CE00126DDF804909AF8340040B10EADC5
:10112C00284601F06EFE284601F076FE0028FAD122
:10113C0000208AF83400DAF82C00C16821F4987188
:10114C00C160416921F041014161029A0120107096
:10115C005FFA8BF102294FD004280CD0032821D13F
:10116C000AF13805284601F04CFE284601F054FEE1
:10117C000028FAD109E00AF13805284601F041FEB1
:10118C00284601F049FE0028FAD100208AF83400E4
:10119C00DAF82C00C16821F49871C160416921F022
:1011AC00410141615FEACB700FD1F0074FF00506AA
:1011BC0006D0DAE9110501F036FE80B2854226D35D
:1011CC000120207088F8000006E00120207088F8CB
:1011DC000000F0B2062813D0039901200870F1B278
:1011EC0005291ED10021CAF83C908AF840100AF15A
:1011FC002101CAE90D103BE60320207088F800009D
:10120C0003990320087005202CE006202AE045F203
:10121C00900045F27402C0F60000C0F600022121D5
:10122C0023E607F8226C00F0A6FB40F20900C0F29E
:10123C00000007E007F8226C00F09DFB40F20A006A
:10124C00C0F2000002F0DAFCADF81C0007A802F0B6
:10125C0024FDA7F12200FFF7D0F800F08EFB02F07E
:10126C005AFDFEDE8AF822000FB0BDE8000FF0BD7B
:10127C000AF1240506A92846FFF70BFAC0B2062886
:10128C0001D10420EEE79AF84000032804BF9AF835
:10129C003000032812D000F06EFB40F20800C0F2C0
:1012AC00000002F0ABFCADF81C0007A802F0F5FC46
:1012BC0000F063FB00208AF82100EFE5284601F0DE
:1012CC0087FD284601F08FFD0028FAD1E3E7411C89
:1012DC00CAE909010120002102F0ADFB02F014FB68
:1012EC00CAE90C0102F001008AF838000AF130005A
:1012FC0006A902F028FB18BB00F03DFB40F20700EA
:10130C00C0F2000002F07AFCADF81C0007A802F055
:10131C00C4FC0AF1240002F0E1F800F02EFBDAE93B
:10132C000A018842D3DB45F2342100208AF84000C0
:10133C001620C0F60001CAF83C90CAE90D1097E7D8
:10134C0003208FE77047B0B502AF0C46054601F09D
:10135C0085FD216802F063F82D68284602F025F817
:10136C000468284602F01FF800782146284602F04F
:10137C001DF8E0070ED114F00E0F05D0A0070BD40A
:10138C0060070BD420070BD4E0064FF0050058BFC4
:10139C000620B0BD0320B0BD0020B0BD0120B0BD03
:1013AC000220B0BDF0B503AF2DE9000F87B078690E
:1013BC0098460390154638690E46029001F044FD9C
:1013CC00D7E9029A05AC016841F4807101602046AE
:1013DC0000F010F99DF81400002840F0C880069821
:1013EC00C00708D102F0E3FADDE90223101A73EB0F
:1013FC000100ECD231E005AC204600F0FBF89DF882
:10140C001400002840F0B38001F01EFD80698007B5
:10141C0008D102F0CCFADDE90223101A73EB0100BB
:10142C00EAD21AE04FEA460B5FFA8BF401F00CFD9E
:10143C00046105AC204600F0DDF89DF8140000288E
:10144C0040F095800698800709D402F0B0FADDE9E7
:10145C000223101A73EB0100ECD2032089E001F097
:10146C00F3FC80694146284600F024FC814235D0CB
:10147C0005AE80460D4615F8010B0190304600F084
:10148C00B9F89DF81400002871D1069800060AD40A
:10149C0002F08DFADDE90234024603209A1A74EB4D
:1014AC000101EBD265E001F0CFFC019901613046FE
:1014BC0000F0A0F89DF81400002858D106984007B9
:1014CC000AD402F074FADDE90234024603209A1AB7
:1014DC0074EB0101EBD24CE04545CCD1BAF1000FD5
:1014EC0002A8049049D001F0AFFC0168AAF10105F3
:1014FC0005AC41F4A0610160204600F07BF89DF83A
:10150C001400A0BB0698C00712D1049E02F04FFA3B
:10151C00D6E90023101A73EB0100EDD29DE7049C71
:10152C0002F045FAD4E90023101A73EB010094D3AE
:10153C0001F08AFC80698007F1D04BF00100C4B245
:10154C0001F082FC046105AC204600F053F89DF8D4
:10155C00140060B90698800711D4049E02F027FA93
:10156C00D6E90023101A73EB0100EDD275E79DF854
:10157C00150007B0BDE8000FF0BD0520F9E701F03C
:10158C0063FC806975B10DF110082E464C4640463F
:10159C0000F0DAF802460846D10724D104F8010B12
:1015AC00013EF4D101F050FC0168012262F34A21A2
:1015BC00016004A800F0C8F802460846D10712D111
:1015CC0009F8050001F040FC0068800510D5049C6A
:1015DC0002F0EDF9D4E90036024603209A1A76EBB4
:1015EC000101EFD2C5E7C1B2072908BF0720C0E748
:1015FC000720BEE7B0B502AF044601F025FC4569F3
:10160C00680412D4E80418D428051ED4680524D420
:10161C00A8052DD4E80505D501F016FC416921F487
:10162C00807141616560002120E001F00DFC032117
:10163C006170416921F4804116E001F005FC042140
:10164C006170416921F480510EE001F0FDFB052130
:10165C006170416921F4006106E001F0F5FB0221A3
:10166C006170416921F48061416101212170B0BD3B
:10167C0001F0EAFB01216170426922F400724261BF
:10168C00F4E7F0B503AF4DF804BD84B0044601F0A7
:10169C0038FC01F046FC03AD284601F07CFC01202F
:1016AC0001F094FE016841F070610160284601F080
:1016BC0072FC012001F08AFE016841F0704101606A
:1016CC0001F0C2FB016821F00101016001F00CFC8A
:1016DC0001AD01462246284601F06CFD01F0B4FB39
:1016EC0041689DF8062062F30501416001F0ACFBF6
:1016FC000446C0694CF6FF7120EA0106281D01F072
:10170C0053FD00F0010046EAC036681D01F050FDA3
:10171C00BDF8041000F0010046EA80306FF31F3171
:10172C000844E06101F090FB016A9DF8072062F328
:10173C000501016201F088FB016841F001010160C3
:10174C0004B05DF804BBF0BDB0B502AF82B0056863
:10175C006C462046FFF74EFF9DF8000078B901F06B
:10176C0073FB406940060ED402F021F9D5E9002341
:10177C00101A73EB0100ECD20120032107E09DF855
:10178C000110012003E001F05FFB0169002002B0B1
:10179C00B0BDF0B503AF4DF804BD84B0A3F58030F7
:1017AC0010F5803F0FD91C4615460E4601F087FDFB
:1017BC00009003A831462A462346FEF7CEFC04B01F
:1017CC005DF804BBF0BD00F0D6F840F21C00C0F28E
:1017DC00000002F013FA27F8160CA7F1160002F01D
:1017EC005CFA00F0CAF802F096FAFEDEF0B503AF30
:1017FC004DF804BD84B0A2F5803010F5803F0FD9B0
:10180C001C4615460E4601F05AFD009003A83146C1
:10181C002A462346FEF782FC04B05DF804BBF0BDFB
:10182C0000F0A9F840F21D00C0F2000002F0E6F949
:10183C0027F8160CA7F1160002F02FFA00F09DF80D
:10184C0002F069FAFEDE80B56F4682B0009000F0BF
:10185C0092F840F21300C0F2000002F0CFF927F822
:10186C00020CB81E02F019FA684600F004F800F0F9
:10187C0084F802B080BDD0B502AF82B0044640F20D
:10188C000100C0F2000002F0B9F927F80A0CA7F128
:10189C000A0002F0CBF945F2A0212046C0F6000167
:1018AC0002F0D0F902B0D0BD7047006802F06ABAFD
:1018BC0080B56F46044601F036FE40F2BA10C2F213
:1018CC000000017821B9012101702046FFF7BBFF10
:1018DC0000F006F8FEDE80B56F4601F02BFEFEDE52
:1018EC0080B56F464EF62450CEF20000016821F40C
:1018FC0080210160FFF7EFFFFEDE80B56F4686B0FA
:10190C0001F001FE40F2BB12C2F200021178D9B90B
:10191C000121117040F2BC12C2F20002107040F2B0
:10192C00BD10C2F20000827862B9817000208DF87F
:10193C00000040F20000C2F200006946183001229B
:10194C0000F0E9F806B080BD012045F2B02103900B
:10195C0045F2D020C0F60000C0F600010290002035
:10196C00049145F234310590C0F6000100906846B0
:10197C0002F080FAFEDEFFF7C0BF80B56F4640F282
:10198C00BD10C2F2000000F090F840F2BB10002134
:10199C00C2F20000017040F2BC10C2F200000078EC
:1019AC00BDE8804001F0BABD0A46014640F2BD10C8
:1019BC00C2F2000000F000B8F0B503AF2DE9000F43
:1019CC0083B0002A61D0064690F800A090F80190F0
:1019DC0040F20000C2F2000000F1180814460D4657
:1019EC0015F8010B5FFA8AFBBBF1070F09D208B39C
:1019FC00A7F1210107F8210C4046012200F08BF8D9
:101A0C001FE070B3A7F11F0107F81F0C404601221D
:101A1C0000F081F80BF1010A5FFA8AF0504538D1D9
:101A2C00862886F800A02ED1FF20A7F11E0107F80A
:101A3C001E0C1EE0012000FA0BF049EA000986F8A2
:101A4C0001900AF1010A86F800A05FFA8AF00728D3
:101A5C0019D15FEA096016D002A940468DF80890AA
:101A6C0008E00AF17900A7F11D0140F0800007F8A9
:101A7C001D0C4046012200F04EF84FF000094FF0CB
:101A8C00000AA6F80090013CAAD103B0BDE8000FF3
:101A9C00F0BD45F2B03045F2CC32C0F60000C0F6D5
:101AAC0000021C2102F0FCF9FEDEF0B503AF4DF88C
:101ABC0004BD82B00446007840F20005C2F2000575
:101ACC00D0B106280CD84FF0FF3101FA00F0617844
:101ADC000843A7F1120100F07F0007F8120C06E092
:101AEC007930A7F1110140F0800007F8110C05F1D5
:101AFC001800012200F00FF805F11800A7F11301EE
:101B0C000026012207F8136C00F005F8268002B0BD
:101B1C005DF804BBF0BDF0B503AF4DF8048D804605
:101B2C00406941F6FB360D4600F0030041F67B316F
:101B3C00C0F600060228C0F6000108BF0E465AB1D6
:101B4C001446404629462246B04718B1844206D373
:101B5C000544241A002CF4D15DF8048BF0BD45F239
:101B6C003C422146C0F6000202F098FDFEDE80B534
:101B7C006F4682B01AB3D0F810C0C368BFF35F8F42
:101B8C009C4503D96FEA030EF44410E0BCF1000F3E
:101B9C0005D0B3F5806F1ED8C3F5806C07E0B3F5A4
:101BAC00806F0FD80ED040F2FF3CACEB030CBCF1B5
:101BBC00000F04D0CDF800C000F027F800E00020A2
:101BCC0002B080BD45F2904045F2D442C0F6000010
:101BDC00C0F6000207E045F2904045F2C442C0F660
:101BEC000000C0F60002212102F05AF9FEDE80B599
:101BFC006F4682B0C3684FF4806CBFF35F8FCDF833
:101C0C0000C000F002F802B080BDF0B503AF2DE9C2
:101C1C00000BBD688146AA4238BF154658192AD216
:101C2C001E468846B0F5806F13D9B6F5806F2CD858
:101C3C00D9F80400C6F5806441463044224603F0CE
:101C4C00CBF8A5422AD308EB04012A1BD9F80400CF
:101C5C0004E0D9F8040041462A46304403F0BCF8AD
:101C6C00A819BFF35F8F6FF39F20C9F80C002846AB
:101C7C00BDE8000BF0BD45F2604045F24C42C0F6A9
:101C8C000000C0F600021C2111E045F2904045F224
:101C9C007C42C0F60000C0F6000207E045F290401E
:101CAC0045F2B442C0F60000C0F60002212102F059
:101CBC00F7F8FEDE0246084411467047C1B20739F8
:101CCC0038BF002121B101290CBF09200020704729
:101CDC000130704708307047D0B502AF027A044625
:101CEC00D01F38BF002030B101281BD12046BDE8E1
:101CFC00D04000F09CB8607A51F8200022283FBFF9
:101D0C0045F2E441C0F60001095CBDE8D04038BFA3
:101D1C0000F026B845F218522221C0F6000202F05B
:101D2C00D6F8FEDE012001F051FB4FF48011016169
:101D3C00D4E90001D0BDD0B502AF0446007AC11F72
:101D4C0038BF0021012906D1617A45F26452C0F6F0
:101D5C000002515C6172FFF7B1FFC0B22072D0BDBE
:101D6C00B0B502AF012015460C4601F02FFB202127
:101D7C000161E8B2072817D8E1B2082421FA00F073
:101D8C00C00708BF4FF40024012001F01FFB0461C1
:101D9C00012001F01BFB4FF4001101610520002113
:101DAC00BDE8B04001F087BE45F2405045F22852E4
:101DBC00C0F60000C0F60002242102F071F8FEDE2D
:101DCC00B0B502AFC8B20FF20A0100250024DFE85B
:101DDC0000F00A12040609110810012503E0012580
:101DEC0009E001250124022001F0F0FA4FF0806196
:101DFC0006E001250124022001F0E8FA4FF480618D
:101E0C000161022001F0E2FA1030002D14BF4FF4F2
:101E1C0000614FF000614FF0805501600220002CF2
:101E2C0018BF4FF4805501F0D1FA0561B0BDD0B5A3
:101E3C0002AF0446012001F0C9FA20210161617A48
:101E4C00FFF7BEFF012001F0C1FA1021016105204E
:101E5C000021BDE8D04001F02EBEF0B503AF2DE956
:101E6C000007824601209846914601F0AFFA4FF4E4
:101E7C000021016101F047FB0546012001F0A6FAA3
:101E8C0006460468022000F078FC00F0030024F4FD
:101E9C00704141EA00303060284601F03FFB0120E0
:101EAC0001F094FA1021016101F02DFB054601208F
:101EBC0001F08CFA06460468022000F05EFC00F08B
:101ECC00030024F4702141EA00403060284601F000
:101EDC0025FB012001F07AFA4FF40011016101F0A9
:101EEC0012FB0546012001F071FA06460468022037
:101EFC0000F043FC00F0030024F4700141EA0050B0
:101F0C003060284601F00AFB022001F05FFA4FF026
:101F1C008061016101F0F7FA0546022001F056FAE2
:101F2C0006464468022000F028FC00F0030024F46C
:101F3C00706141EA00207060284601F0EFFA02203F
:101F4C0001F044FA4FF00061016101F0DCFA054642
:101F5C00022001F03BFA06464468022000F00DFC1A
:101F6C0000F0030024F4704141EA00307060284610
:101F7C0001F0D4FA022001F029FA4FF080510161EE
:101F8C0001F0C1FA0546022001F020FA0646446829
:101F9C00022000F0F2FB00F0030024F4702141EA6F
:101FAC0000407060284601F0B9FA2820002101F0A9
:101FBC0082FD02460B464846414601F097FDCAE9B0
:101FCC0000010920AAF80800BDE80007F0BD45F2A1
:101FDC006C5140B2C0F60001085C7047B0B502AF5E
:101FEC0044B245F2DC50C0F6000050F824500220F8
:101FFC0001F0ECF9056145F27C50C0F6000050F898
:10200C002450022001F0E2F9056145F2BC50C0F603
:10201C00000050F82440022001F0D8F90461B0BD52
:10202C000846FFF7DBBFF0B503AF4DF804BD022047
:10203C0001F0CCF94FF40001016101F064FA04469F
:10204C00022001F0C3F905460668012000F095FB5B
:10205C0000F0030026F0704141EA00702860204631
:10206C0001F05CFA022001F0B1F94FF080710161CE
:10207C0001F049FA0446022001F0A8F90546466829
:10208C00012000F07AFB26F00F0100F00300084459
:10209C006860204601F042FA022001F097F94FF0F7
:1020AC000071016101F02FFA0446022001F08EF953
:1020BC0005464668012000F060FB00F0030026F0A6
:1020CC00F00141EA0010686020465DF804BBBDE8F1
:1020DC00F04001F023BAF0B503AF4DF804BD04464F
:1020EC0001F0FBF905460B2001F0F6F980B2B0F5D2
:1020FC00F87F80F0E6804EF20016CEF200063044F7
:10210C0080F800530B2001F0E7F982B20146500928
:10211C00B2F5007F80F0CD8001F01F01012202FAA0
:10212C0001F146F82010204601F0D7F905460C20A5
:10213C0001F0D2F980B2B0F5F87F80F0C280304463
:10214C0080F800530C2001F0C7F982B20146500907
:10215C00B2F5007F80F0AD8001F01F01012202FA80
:10216C0001F146F82010204601F0B7F905460D2084
:10217C0001F0B2F980B2B0F5F87F80F0A280304463
:10218C0080F800530D2001F0A7F982B201465009E6
:10219C00B2F5007F80F08D8001F01F01012202FA60
:1021AC0001F146F82010204601F097F905460E2063
:1021BC0001F092F980B2B0F5F87F80F08280304463
:1021CC0080F800530E2001F087F982B201465009C5
:1021DC00B2F5007F6DD201F01F01012202FA01F16C
:1021EC0046F82010204601F078F905460F2001F042
:1021FC0073F980B2B0F5F87F63D2304480F80053A5
:10220C000F2001F069F982B201465009B2F5007F46
:10221C004FD201F01F01012202FA01F146F8201001
:10222C00204601F05AF90546102001F055F980B20C
:10223C00B0F5F87F45D2304480F80053102001F0FF
:10224C004BF982B201465009B2F5007F31D201F050
:10225C001F01012202FA01F146F82010204601F07C
:10226C003CF90446112001F037F980B2B0F5F87F43
:10227C0027D2304480F80043112001F02DF982B2AE
:10228C0001465009B2F5007F3FBF01F01F0101224A
:10229C0002FA01F146F820103FBF41F21400C4F2DB
:1022AC000200016841F001013EBF01605DF804BB12
:1022BC00F0BD45F270621021C0F6000201F007FE7D
:1022CC00FEDE45F260624FF4F871C0F60002F5E7ED
:1022DC00F0B503AF2DE9000F8DB0D0E900C10B466E
:1022EC00BCF1000F04BF40F60013C0F23D03002BFD
:1022FC0000F08B81D0E902264AF20025C0F24A4553
:10230C00002A08BF1E46B6FBF3F6012E10D032464B
:10231C0098BF0122102A28BF1022022AC0F0A381E4
:10232C00A3FB0213002B40F0A78102F1FE0806E08C
:10233C004FF0000ABCF1000F27D04FF00008B6F1A7
:10234C00010A18BF4FF0010AA94200F2AF810269DD
:10235C009AB14269002A00F06181B1FBF2F2012AC4
:10236C000BD0022A0DD0002A00F0A781D31E032B1C
:10237C0012D2F9224FF0090936E0F9224FF0070981
:10238C0032E0F9224FF008092EE041F200214FF023
:10239C000008C0F27A01DAE7931F062B03D2F92268
:1023AC004FF00A0920E0A2F10C031C2B03D2F922F6
:1023BC004FF00B0918E0A2F12803382B03D2FA22B4
:1023CC004FF00C0910E0A2F16003602B03D2FA224B
:1023DC004FF00D0908E0C03A4FF00F09C02A4FF03A
:1023EC00FA0238BF4FF00E094A44D2B221FA02F574
:1023FC00826992B1C269002A00F01981B5FBF2F230
:10240C00012A0AD0022A0BD0002A00F05D81D31ECB
:10241C00032B08D24FF0050B0CE04FF0030B09E037
:10242C004FF0040B06E0063A4FF0070B062A38BFB4
:10243C004FF0060BABF10306F2B225FA02F445F2AB
:10244C000012C0F22522944200F22281026A059603
:10245C008AB1426A002A00F0F380B5FBF2F2012A3D
:10246C0009D0022A09D0002A00F03581D31E032B93
:10247C0005D2052308E0032306E0042304E0063A12
:10248C000723062A38BF062346F6014243F20166AB
:10249C00C0F2DC2291424FF00202C0F26E1638BF3D
:1024AC000122B14242F2000638BF0022C4F20206F9
:1024BC004FF0020E3260DA1E866A0392D2B225FA0F
:1024CC0002F204914EB1C06A002800F0C280B2FB47
:1024DC00F0F6032E03D2002009E0032007E0052EBE
:1024EC0001D2012003E00320082E38BF02200EEB9E
:1024FC004006CDE900B4B2FBF6FE49F68076C0F298
:10250C00D506B645029500F2CA80C34641F20008D2
:10251C004D46C4F20208BCF1000F09D0D8F8006097
:10252C0046F48036C8F80060D8F80060B603FBD5D6
:10253C00D8F8049019465346BAF1000F1CD029F470
:10254C0074166BF39546E34646EA0C46C8F80460ED
:10255C00D8F8006046F08076C8F80060D8F80040E3
:10256C00A401FBD5D8F804905C464AF2002B4FF03E
:10257C00020AC0F24A4B05E04AF2002BE246C0F2D6
:10258C004A4B6446DDF810C0BCEB0B0618BF0126A5
:10259C00002B4FEA865608BF4FF48006002C40F201
:1025AC000C0408BF4FF48006CFF6BF74564404EAFF
:1025BC00090444EA803040EAC120009940EA012035
:1025CC0040EA05103044C8F8040003990298002929
:1025DC004FF002010B904FF00200CDF830E0CDF837
:1025EC0018C008BF0121514309920A91059900298D
:1025FC0008BF0120019907914843089006A800F0F4
:10260C00C5F80DB0BDE8000FF0BD45F2F06045F225
:10261C00DC62C0F60000C0F6000222E045F2F06079
:10262C0045F28472C0F60000C0F6000219E045F2D3
:10263C00F06045F29472C0F60000C0F6000210E0A3
:10264C0045F2F06045F2A472C0F60000C0F600023C
:10265C0007E045F2F06045F2B472C0F60000C0F637
:10266C000002192111E045F2207045F20C72C0F6FF
:10267C000000C0F6000207E045F2607045F24472BB
:10268C00C0F60000C0F60002212101F009FCFEDEBC
:10269C00FFF771F940F21700C0F2000021E0FFF7DC
:1026AC006AF940F21900C0F200001AE0FFF763F972
:1026BC0040F21400C0F2000013E0FFF75CF940F2A6
:1026CC001500C0F200000CE0FFF755F940F21600BF
:1026DC00C0F2000005E0FFF74EF940F21800C0F21E
:1026EC00000001F08BFAADF8180006A801F0D5FA3D
:1026FC00FFF743F901F00FFBFEDED0B502AF82B05D
:10270C00044640F20500C0F2000001F077FA27F809
:10271C000A0CA7F10A0001F089FA204601F0DCFA54
:10272C0002B0D0BDD0B502AF82B0044640F21A0060
:10273C00C0F2000001F062FA27F80A0CA7F10A00B7
:10274C0001F074FA204600F048F802B0D0BDD0B5C4
:10275C0002AF82B0044640F21F00C0F2000001F04C
:10276C004DFA27F80A0CA7F10A0001F05FFA20468F
:10277C0001F0B2FA02B0D0BD7047C0B240F2021103
:10278C00C000C0F2030121FA00F07047B0B502AFEF
:10279C0082B00546FFF7EFF840F21B00C0F20000D4
:1027AC0001F02CFA27F80A0CA7F10A0001F075FACF
:1027BC002846FFF7B7FFFFF7E0F80ECD40F2F81010
:1027CC00C2F200000EC095E81E001EC002B0B0BDE3
:1027DC0040F2F810C2F200007047D0B502AF0446C8
:1027EC00FFF7B5FF201DFFF7B2FF04F10800FFF75C
:1027FC00AEFF04F10C00FFF7AAFF04F11000FFF785
:10280C00A6FF04F11400FFF7A2FF04F11800BDE8C5
:10281C00D040FFF79CBFB0B502AF0C46054601F0A7
:10282C00C6F82A462346BDE8B04001F0C5B80021E1
:10283C008162016281610161816001604FF480718C
:10284C0001867047F0B503AF4DF8048D8CB080460F
:10285C0000F059FE40F21421C2F200010A78EABBE2
:10286C0001220A7000F05AFE98F8310038B142F299
:10287C000400CEF20400016841F00701016041F24E
:10288C001800C4F20200016841F004010160016803
:10289C0041F008010160016841F01001016001681C
:1028AC0041F020010160016841F04001016098F89D
:1028BC003000FFF710FCB8E87C1068460146A1E830
:1028CC007C1098E87C1081E87C10FFF701FD0CB0BF
:1028DC005DF8048BBDE8F04000F04AB9FFF74BF807
:1028EC0040F21E00C0F2000001F088F9ADF80000C3
:1028FC00684601F0D2F9FFF740F801F00CFAFEDE61
:10290C0000200621C4F20200062200F0E9BB0020E0
:10291C000221C4F20200022200F0E2BB00200521D9
:10292C00C4F20200052200F0DBBB00200121C4F23E
:10293C000200012200F0D4BB00200321C4F20200EB
:10294C00032200F0CDBB00200021C4F202000022C3
:10295C0000F0C6BB00200421C4F20200042200F0E7
:10296C00BFBBF0B503AF2DE9000740F23800C2F24F
:10297C00000050E80C1F4A1C40E80C23002BF8D137
:10298C00481C32D24FF44042410C12EBC03841F19A
:10299C00000900F0B8FD40F20C0C40F23801C4F212
:1029AC00000C0023DCF80020C2F200014FF0040EF2
:1029BC001646F1E8045A0EFA03F401333443B5EB2E
:1029CC0008057AEB09054FF0000538BF0125002DED
:1029DC001CBF26462246032BEBD1CCF80020BDE8C9
:1029EC000007BDE8F04000F099BD45F6700045F6D3
:1029FC00C412C0F60000C0F600021C2101F050FA0F
:102A0C00FEDEF0B503AF2DE9000B82B0984691467F
:102A1C000E46044600F077FD0546A7F1190007F8AD
:102A2C00196C00F0ABFFC0B204EB0010C0E90298C7
:102A3C00284600F073FD02B0BDE8000BF0BDF0B508
:102A4C0003AF2DE9000782B09A461546064607F8F3
:102A5C001A1C00F058FD8046A7F11A0000F08EFFFA
:102A6C00814617F81A0C07F8190CA7F1190000F099
:102A7C0085FFC0B240F20C0C06EB00120101755040
:102A8C00C4F2000CC2F804A0316BDCF8186001F041
:102A9C0001034C0CB6B286EAC33313EBC13644F1D6
:102AAC000004731B5FFA89F174EB0A032FD202291D
:102ABC0049D8F01C44F100029245034688BF2B46CE
:102ACC00854288BF2846924518BF1846382280B2E6
:102ADC00C4F2000242F82100A81B6AEB0402B0F514
:102AEC0040404FF0000372F100004FF0040201F17E
:102AFC00020038BF012302FA01F1DCF8002003FACE
:102B0C0000F022EA01010843CCF800000DE0DCF8EB
:102B1C000030032920D20420884023EA0000CCF89E
:102B2C0000004FF0FF30C2E90000404600F0F6FC18
:102B3C00711B4FF0000074EB0A0138BF012002B08A
:102B4C00BDE80007F0BD45F2C47045F69C02C0F626
:102B5C000000C0F6000207E045F2C47045F68C0296
:102B6C00C0F60000C0F600021C2101F099F9FEDE4F
:102B7C00F0B503AF4DF804BD00F0C5FC41F21004F4
:102B8C00C4F20204E16841F00101E16000F0C6FC0E
:102B9C0000F0B9FC216841F001012160216821F0AD
:102BAC000101216000F0BAFC00F0ADFC40F2F8111C
:102BBC00C2F200018D6800F0B1FC00F0A4FC4FF0F3
:102BCC00804104460868002220F0010008600C20B7
:102BDC00C4F20000826144F24022C0F20F0295421E
:102BEC0059D34DF68362C4F21B32A5FB0223012597
:102BFC004FF0FF3202EB934292B2C2614FF6FF727A
:102C0C0002620A6842F004020A6085600A6822F0D7
:102C1C0004020A604FF400418162032101601C2010
:102C2C0000F05AFC82B201465009B2F5007F3ED248
:102C3C004EF2001601F01F01CEF2000606EB8000EA
:102C4C0005FA01F1C0F880111C2000F045FC82B29D
:102C5C0001465009B2F5007F3FBF01F01F01012270
:102C6C0002FA01F146F820103FBF4FF08040016896
:102C7C0041F0010101603FBF20465DF804BBBDE897
:102C8C00F04000F04BBC45F61012C0F600021021CB
:102C9C0001F01DF9FEDE45F6A01045F69012C0F6C7
:102CAC000000C0F60002212101F0FAF8FEDE45F624
:102CBC002012C0F60002EAE7F0B503AF2DE9000FD1
:102CCC0081B000F020FC80460C20C4F20000456866
:102CDC00D0F80090E9434160E80701D0FFF741FECE
:102CEC00A80748BFFFF73DFE40F238000026C2F2AD
:102CFC00000000F108044FF0040A4FF0FF3B0AFA01
:102D0C0006F0284218BF10EA090004D0D4E90010DC
:102D1C0044E902BB884701361034032EEFD14046FC
:102D2C0001B0BDE8000FBDE8F04000F0F7BB40F289
:102D3C0038002422C2F20000C4F20002006B1268B8
:102D4C0000F0010192B282EAC131420C11EBC030A9
:102D5C0042F100017047D0B502AF40F2380CC2F21C
:102D6C00000C9CF83400BFF35F8FC4B2022C18D84F
:102D7C000CF13403D3E84F1FA14207D10130BFF34C
:102D8C005F8FC3E8420F1AB9012302E0BFF32F8F04
:102D9C0000230846002BBFF35F8FE6D000F0EDFD5B
:102DAC0001460020032C38BF0120D0BD13460A4633
:102DBC00014640F23800C2F20000FFF722BE014685
:102DCC0040F23800C2F20000FFF739BE0020704715
:102DDC0004204FF42041C4F2020001600021016480
:102DEC00BFF35F8F70474420C4F20200006800F00C
:102DFC000100704740F2C010C2F20000183000F021
:102E0C000EBB04204FF42021C4F20200016000210B
:102E1C004165BFF35F8F70475820C4F20200006811
:102E2C0000F0010070475C20C4F20200006870479B
:102E3C0040F2C010C2F20000203000F0F0BA42F2B2
:102E4C000040C4F20100704745F20040C4F200009B
:102E5C00704743F60000C4F20100704740F228208E
:102E6C00C2F200007047D0B502AF00F04CFB40F24C
:102E7C00F811C2F20001CC6800F050FB2046D0BD26
:102E8C0080B56F4600F03FFB41F21801C4F202011D
:102E9C000A6842F400720A60BDE8804000F03EBB54
:102EAC0080B56F4600F02FFB41F20C01C4F2020119
:102EBC000A6842F400720A600A6822F400720A601E
:102ECC00BDE8804000F02ABB80B56F4600F01BFBCC
:102EDC0041F21801C4F202010A6842F001020A60D0
:102EEC00BDE8804000F01ABBD0B502AF00F00BFB80
:102EFC0040F2F811C2F200014C6800F00FFB2046C2
:102F0C00D0BD80B56F4600F0FEFA41F21C01C4F250
:102F1C0002010A6842F400120A60BDE8804000F029
:102F2C00FDBA80B56F4600F0EEFA41F21001C4F222
:102F3C0002010A6842F400120A600A6822F40012C4
:102F4C000A60BDE8804000F0E9BA80B56F4600F039
:102F5C00DAFA41F21801C4F202010A6842F4804222
:102F6C000A60BDE8804000F0D9BA80B56F4600F029
:102F7C00CAFA41F20C01C4F202010A6842F480421E
:102F8C000A600A6822F480420A60BDE8804000F0C2
:102F9C00C5BA09207047002070477047F0B503AFE1
:102FAC002DE9000F83B00646B86910F47F0F32D1BB
:102FBC0010F47F4F3BD1B0F1807F45D2C0B20428D2
:102FCC004ED1CCB2082C5ED230461D469046D7F876
:102FDC001490D7E902AB00F062F804EB84001FFAFE
:102FEC008BF1BFF35F8F3A6906EB80000561C0F887
:102FFC0014A0C16009F0030141EA8101090262F3E6
:10300C00C71108F0010241EA02110B31816003B0D3
:10301C00BDE8000FF0BDFEF7AEFC40F22000C0F2A0
:10302C00000000F0EBFDADF8040001A824E0FEF771
:10303C00A2FC40F22100C0F2000000F0DFFD27F8F6
:10304C00220CA7F1220017E0FEF795FC40F22200BB
:10305C00C0F2000000F0D2FDADF8080002A80BE0B1
:10306C00FEF789FC40F22300C0F2000000F0C6FD20
:10307C0027F81E0CA7F11E0000F00FFEFEF77DFCDA
:10308C0000F049FEFEDE45F6D41045F67822C0F677
:10309C000000C0F600021C2100F002FFFEDE80B52D
:1030AC006F46CAB2082A3FBF4FF0010C012361F3EF
:1030BC0084030CFA03F13FBF920003320CFA02F2C4
:1030CC0011433CBF416080BD45F6D41045F68822C3
:1030DC00C0F60000C0F600021C2100F0E1FEFEDE8E
:1030EC0080B56F4684B0C9B208290191D0F800C0F0
:1030FC0032D24FEA810E0EF103032CFA03F3DB07F5
:10310C0036D10EF01C0301332CFA03F3DB0707D086
:10311C0001EB8101082303EB8103C158890701D41A
:10312C0004B080BDD1B200220629C2509FBF40F22C
:10313C00C010C2F2000000EBC10004B09CBFBDE89F
:10314C00804000F0ABB945F6F8220846C0F6000204
:10315C00072100F0BCFEFEDE45F6D41045F67822C1
:10316C00C0F60000C0F600021C2100F099FEFEDE45
:10317C000290FEF700FC40F22400C0F2000000F0C8
:10318C003DFD27F8020CB81E00F087FD02A8FFF7E2
:10319C00B4FA01A800F033FDFEF7EFFB00F0BBFD25
:1031AC00FEDE002000217047007880F0010070479F
:1031BC0000787047B0B502AF82B04CF64053CFF6F2
:1031CC00F543CC184DF68363C4F21B33A1FB033CCF
:1031DC0045F2C013CFF614539C424BD34FEA9C4597
:1031EC004FF496746C4348F63813C0F2410348F21E
:1031FC00A16CC0F2010C6245A4FB033E03D2D2B118
:10320C005400AE4608E00323A2FB0343E3B92CB3FE
:10321C008C4201D9012101E0B1FBF4F100230180C2
:10322C0085706245437138BF01230EF101010371B2
:10323C00C17002B0B0BD45F6B03045F69432C0F660
:10324C000000C0F6000211E045F6703045F6CC32B5
:10325C00C0F60000C0F60002212108E045F6B030AF
:10326C0045F6DC32C0F60000C0F60002192100F071
:10327C0017FEFEDEFEF77FFB40F22500C0F20000D9
:10328C0000F0BCFC27F80A0CA7F10A0000F005FDC1
:10329C00FEF773FB00F03FFDFEDE704740F22600A8
:1032AC00C0F2000000F0AABC007845F6F431C0F67C
:1032BC00000151F8200000F003BD002070470420ED
:1032CC0070472520704740F21820C2F2000070476A
:1032DC0000214FF4E132C0E900217047B0B502AFD4
:1032EC0082B0D7E902CEBCF1000F08BFBEF1000FCF
:1032FC0046D00C6802EB5405954221D354B3B5FB70
:10330C00F4F2A2FB03237BBB8260BEF1000F0A79AF
:10331C0049794FEA023202614FF4005218BF42F26F
:10332C00080200296CF382021CBF02F5805202F5E0
:10333C008062022908BF02F50072C26002B0B0BD03
:10334C0045F6804045F67042C0F60000C0F600021B
:10335C001C2112E045F6A04045F67042C0F6000074
:10336C00C0F60002192108E045F6C04045F670424F
:10337C00C0F60000C0F60002212100F091FDFEDE37
:10338C00FEF7F9FA40F22900C0F2000000F036FC1A
:10339C0027F80A0CA7F10A0000F07FFCFEF7EDFA03
:1033AC0000F0B9FCFEDE043070477047704740F205
:1033BC002700C0F2000000F021BC007845F6E8417F
:1033CC00C0F6000151F8200000F07ABC80B56F46C1
:1033DC000021B1EB905F16D140F60001C4F201015F
:1033EC0011EB8021B1EB802F24BF084680BD45F640
:1033FC00C05045F6A452C0F60000C0F600021C21D5
:10340C0000F04EFDFEDE45F6805045F66C52C0F6DF
:10341C000000C0F600022121F2E7FEE77047F0B58C
:10342C0003AF2DE9000B0C46064600F06CF8D6E90C
:10343C000095804600207060CDB12068814517D181
:10344C00616828680A689042484611D168684A68E1
:10345C00904248460CD18868AA688242484607D1F7
:10346C00C868E9688142484602D175600FE020685F
:10347C006168096888470246D6E90003C6E900215D
:10348C000BB1D968884715B1E9684846884740466A
:10349C00BDE8000BBDE8F04000F040B8F0B503AF5C
:1034AC004DF8048D054600F02EF8D5E900648046F1
:1034BC00002068604CB1A16830468847D5E900010E
:1034CC00C5E9006409B1C968884740465DF8048BBA
:1034DC00BDE8F04000F022B870477047D0B502AF9D
:1034EC0082B0044640F20300C0F2000000F086FBFC
:1034FC0027F80A0CA7F10A0000F098FB204600F010
:10350C00EBFB02B0D0BDD0B502AF00F010F801213A
:10351C0021EA000400F007F82046D0BD002808BFBF
:10352C00704700F002B872B6704762B67047EFF39E
:10353C001080704700DEFEDEF0B503AF4DF8048D51
:10354C0082B016468846054600F01AFAC0070FD01E
:10355C000C4608464146324600F019FA00202C74FD
:10356C00C5E90006C5E9020802B05DF8048BF0BDA0
:10357C00FEF701FA40F22A00C0F2000000F03EFB18
:10358C0027F8160CA7F1160000F087FB01A800F035
:10359C009BF9FEF7F2F900F0BEFBFEDEF0B503AFCF
:1035AC004DF804BD0E4605460861FFF7ACFF044616
:1035BC002868F0602E6010B96868E9688847204672
:1035CC005DF804BBBDE8F040FFF7A8BFF0B503AF52
:1035DC004DF8048D82B000F108050446E84600F071
:1035EC00E6F9024628460B4600F0A1F82046214693
:1035FC0000F012F9284600F053F8CDE900014046DE
:10360C00267C00F0D6F9024630460B4600F0C1F994
:10361C000028E4D002B05DF8048BF0BD7047B0B563
:10362C0002AF0546FFF76FFF0446A86800F00301E0
:10363C0001290CD140F00200A860296988070BD140
:10364C000868E8600D6010B94868C968884720466A
:10365C00BDE8B040FFF762BF45F640620420C0F6FB
:10366C00000200F054FCFEDEF0B503AF4DF804BDD3
:10367C00054610460E4600F09EF8D0E90012B24204
:10368C0033462C463CBF13460C46A94238BF0D4668
:10369C00B24218BF2546C0E900535DF804BBF0BD2B
:1036AC00B0B502AF03684FF0FF3C93B386464FF0C2
:1036BC00FF304FF0FF315A0730D1D3E90024A1423B
:1036CC00154638BF0546904228BF1046A14218BF88
:1036DC00284684EA0C0582EA0C0228BF21462A43BC
:1036EC0012B103F1180E0FE09A690833CEF80020DE
:1036FC00BFF35F8F53E8002F22F0040243E800244D
:10370C00002CF7D1BFF35F8FDEF80030002BD2D145
:10371C00B0BD4FF0FF304FF0FF31B0BD45F6BC628D
:10372C000820C0F60002194600F0F1FBFEDEF0B5F1
:10373C0003AF4DF8048D04681CB398461546064635
:10374C00600721D1D4E90001281A78EB010002D2DC
:10375C0004F1180612E02046FFF761FFA069306003
:10376C0004F10800BFF35F8F50E8001F21F0040143
:10377C0040E80012002AF7D1BFF35F8F3468002CA9
:10378C00DED15DF8048BF0BD45F6BC620820C0F6B6
:10379C000002214600F0BBFBFEDE704745F6CC6113
:1037AC00C0F600017047FFF73ABF704745F6CC6191
:1037BC00C0F60001704780B56F4682B0416843F295
:1037CC00A973C0F600030A689A4201BF4B6843F222
:1037DC00B372C0F60002934209D18B68934201BFC9
:1037EC00C96843F2B772C0F60002914211D0FEF7DD
:1037FC00C2F840F22B00C0F2000000F0FFF927F8ED
:10380C00020CB81E00F049FAFEF7B7F800F083FA84
:10381C00FEDE006802B080BDF0B503AF2DE9000BF1
:10382C0088460021BFF35F8F50E8006F40E800121C
:10383C00002AF9D1BFF35F8FAEB34FF0FF39354695
:10384C00F66805F10804C5E90099BFF35F8F54E8E9
:10385C00000F20F0020144E80012002AF7D1C00743
:10386C00BFF35F8F1DD0696928468847D5E90001F1
:10387C0081EA090180EA0900084312D0BFF35F8F87
:10388C0054E8000F40F0040144E80012002AF7D17C
:10389C00BFF35F8F40075EBFD8F80800A861C8F877
:1038AC000850002ECBD1BDE8000BF0BD80B56F46A3
:1038BC0040BF80BD80B56F4643F6B9010022C0F60B
:1038CC000001FFF739FE80BDD0B502AF82B00446CF
:1038DC0000F01AFA27F80A0CA7F10A0000F0A6F972
:1038EC00204600F016FA02B0D0BD084645F6DC6161
:1038FC00C0F60001042200F0CBBE40F22C00C0F256
:10390C00000000F07BB97047F0B503AF4DF804BD73
:10391C000C4605460026FFF70AFA4019614146F1AC
:10392C000002012A1EBF00225DF804BBF0BD45F663
:10393C003B7045F66472C0F60000C0F60002282108
:10394C0000F003FAFEDEB0B502AF0446007A0D4675
:10395C0058B1FFF7ECF902460B46D4E90001121AF4
:10396C0073EB010203D30020B0BDD4E900012A6837
:10397C00FFF77AFE01202072B0BD704700787047C7
:10398C0080B56F46FFF7E7F900F0010080BDFFF747
:10399C000DBAFFF714BA80B56F4682B0FFF7C7F9BE
:1039AC00CDE90001684600F0A2F902B080BDFFF736
:1039BC00BEB9D0E90001704780184FF0000C594196
:1039CC004CF10002012A18BF704780B56F4645F6CE
:1039DC003B7045F66472C0F60000C0F60002282168
:1039EC0000F0B3F9FEDEF0B503AF4DF804BD0C46A4
:1039FC0005460026FFF79BF92D184C4146F10000B7
:103A0C00012808D0FFF793F9401B71EB0400F9D3A0
:103A1C005DF804BBF0BD45F63B7045F66472C0F62C
:103A2C000000C0F60002282100F08FF9FEDE0846E7
:103A3C000021FFF7D8BF44F240224FF0000CC0F237
:103A4C000F02A1FB0213A0FB020289184CF1000229
:103A5C00002B18BF01231A4308BF704780B56F466F
:103A6C0045F6D07045F6F472C0F60000C0F60002C0
:103A7C00212100F015FAFEDE4FF47A724FF0000CA3
:103A8C00A1FB0213A0FB020289184CF10002002BCF
:103A9C0018BF01231A4308BF704780B56F4645F61F
:103AAC00D07046F20402C0F60000C0F600022121DC
:103ABC0000F0F6F9FEDE01304FF0000251F100018A
:103ACC0042F10002012A03D0013861F10001704774
:103ADC0080B56F4646F2200046F27002C0F6000038
:103AEC00C0F600021C2100F0DBF9FEDEB0EB020C8C
:103AFC0071EB030C02D3801A9941704780B56F4665
:103B0C0046F23C0046F26002C0F60000C0F600022D
:103B1C00232100F01AF9FEDE80B56F4682B000203A
:103B2C008029019003D201228DF8041036E0B1F502
:103B3C00006F0BD20222084662F39F108DF805002D
:103B4C00C02040EA91108DF8040027E002200A46BC
:103B5C0060F39F12B1F5803F0DD28DF80620E02264
:103B6C0042EA113289098DF8042060F39F118DF817
:103B7C000510032212E08DF807208A0960F39F12CA
:103B8C008DF806200A0B60F39F12880C1E218DF80D
:103B9C00052061F3DF008DF80400042201A8114612
:103BAC00FDF702FF002002B080BD704780B56F4664
:103BBC00FFF7B2FF002080BDF0B503AF4DF8048DC8
:103BCC0088B0D0F800C002AA91E8714146F2800199
:103BDC001346C0F6000183E8714101A8CDF804C07A
:103BEC0000F0EFF908B05DF8048BF0BD80B56F46BE
:103BFC0008461146FDF7D8FE002080BD7047D0B5B1
:103C0C0002AF82B0044640F20600C0F2000002216E
:103C1C0027F80E0CA7F10E00FDF7C6FE2068042154
:103C2C00019001A8FDF7C0FE02B0D0BD80B56F4673
:103C3C0082B00088022127F8020CB81EFDF7B4FEF2
:103C4C0002B080BD80B56F468CB0CDE9000143F663
:103C5C00C340C0F6000002A90390684602900BA86E
:103C6C0004900120CDE9080146F280010A9046F249
:103C7C009800C0F6000005AA07900020059004A843
:103C8C00C0F6000100F09DF946F2A0000121C0F63B
:103C9C000000FDF789FE0CB080BD80B56F4682B088
:103CAC000088022127F8020CB81EFDF77DFEFFF7F5
:103CBC0072FE02B080BDD0E90020C36810461847E0
:103CCC0080B56F4682B00078012107F8010C781E90
:103CDC00FDF76AFE02B080BD80B56F4682B0006809
:103CEC000421019001A8FDF75FFE02B080BD80B5F4
:103CFC006F4682B0D0E90001CDE900016846082189
:103D0C00FDF752FE02B080BD40F20200C0F200008E
:103D1C0070477047704780B56F4646F2A10046F277
:103D2C000412C0F60000C0F600020E2100F0B8F834
:103D3C00FEDE0068FEE770474CF6522049F219018E
:103D4C00CDF29000C6F2C111704780B56F468AB0B3
:103D5C00CDE900010120059046F21411079008A846
:103D6C0006900020029044F64930C0F60000C0F6E0
:103D7C00000109906846089002A80491114600F0D1
:103D8C0079F8FEDEF0B503AF4DF8048D8EB0D1E9B5
:103D9C00004546F23811EB688046C0F600010C2253
:103DAC002046984728B1012630460EB05DF8048BAA
:103DBC00F0BDD8F8080028B1019044F65530C0F693
:103DCC00000015E0D8E90060C1683046884746F627
:103DDC003442C8F6A712514041F6C822CAF6F8126E
:103DEC00504008431BD144F63B300196C0F600000E
:103DFC00039001A8029002A80C9002200B9046F2AE
:103E0C004810C0F6000008AA0A900020012608906D
:103E1C00204629460D9600F0D4F80028C4D1D8F8D5
:103E2C000C0044F63B21C0F6000100F10C02079196
:103E3C00CDE9051200F10801049144F64931C0F6B0
:103E4C00000108AACDE9020102A90320CDE90B016A
:103E5C0029460D9046F22010C0F600000A90002072
:103E6C000890204600F0ADF8064630460EB05DF8DE
:103E7C00048BF0BD80B56F4686B0CDE9030146F2E8
:103E8C005810C0F600000122029046F21410C0F641
:103E9C0000008DF81420019001A8FDF709FDFEDE4D
:103EAC0080B56F4688B00123944646F214120393F2
:103EBC0006ABCDE9060102930023C0F6000268466A
:103ECC006146059304920093FFF7D4FFFEDE80B5A4
:103EDC006F468CB0CDE900010220059046F27C11B2
:103EEC00079008A806900020C0F60001029044F646
:103EFC003B200491C0F600006946CDE9090111464A
:103F0C000B9001A8089002A8FFF7B4FFFEDE80B565
:103F1C006F469CB0CDE9000144F6791001A9C0F6BA
:103F2C0000000B909446CDE9090146F2CC1168468D
:103F3C00C0F6000108900220049101211491002187
:103F4C0005904FF0030E17902023159004220F902C
:103F5C000D90079003900CA80C9108A9029002A850
:103F6C00069161468DF86CE01A9319928DF84CE02D
:103F7C00CDE91123FFF77EFFFEDE80B56F468EB0D4
:103F8C008DE80F00022046F2E0110790C0F6000108
:103F9C0009900AA808900020049044F63130C0F62D
:103FAC00000006910D9002A80C9044F64930C0F622
:103FBC000000B9680B9068460A9004A8FFF75AFFF6
:103FCC00FEDEF0B503AF2DE9000F8BB09346032254
:103FDC00DBF8006002AB8DF8282020220992002229
:103FEC00002E0892069207C37BD0DBF80400002851
:103FFC0000F0A180DBF808904FEA401A013802ADBE
:10400C0020F0784000244FF000080130019009EBBB
:10401C000800426842B1DDE9020359F80810DB6878
:10402C009847002840F09A8006EB8800D0E90512EA
:10403C00C3680992027F089106EB04018DF82820D1
:10404C000A69DBF810106BB1012B12D101EBC20223
:10405C00AC4643F63F555368C0F60005AB420FD053
:10406C00002310E00123CDE90432D0E9010280B92C
:10407C001EE00023CDE90432D0E9010248B917E073
:10408C001268012312686546CDE90432D0E90102B9
:10409C0070B1012808D101EBC20043F63F53C0F6C2
:1040AC00000342689A4201D0002002E000680268D6
:1040BC000120CDE90602325951F8320001EBC20160
:1040CC004A6829469047002848D1203408F108084E
:1040DC00A2459CD1DDF80490DBF80C00814530D36F
:1040EC0041E0DBF8140030B3DBF81010C6000138E7
:1040FC000DF108080C1DDBF8081020F060400D1DB8
:10410C0000F101092A6832B1DDE90201CB6855F8EA
:10411C00041C984710BB54F8040C41462268904785
:10412C00E0B90834083E05F10805EBD1DBF80C00CA
:10413C00814506D317E04FF00009DBF80C008145F0
:10414C0011D2DBF80800494650F8311000EBC900D9
:10415C004268DDE90203DB68984720B101200BB00F
:10416C00BDE8000FF0BD00200BB0BDE8000FF0BDA6
:10417C00F0B503AF2DE9000F87B0D7F80C909B4634
:10418C0094460646E1B1B46914F0010000EB090A4B
:10419C004FF02B0008BF4FF4881006906007D7F83B
:1041AC00088016D5BBF1100F44D2BBF1000F65D0BF
:1041BC000BF00301BBF1040F62D2002062467DE0DC
:1041CC00B46909F1010A2D2006906007D7F8088020
:1041DC00E8D44FF0000CB068002800F08B80CDF8CC
:1041EC0014B0D6F80CB0D34515D92007CDF81080F3
:1041FC0027D496F82000ABEB0A01E346032808BF4E
:10420C000120002800F09B80012840F09A804FF09C
:10421C00000A084699E005986346D6E900450090E7
:10422C002946069A204600F0E3F800286ED04FF09D
:10423C0001081EE060465946654600F054FAAC464B
:10424C0053E03020F469F0614FF0010896F820003B
:10425C006346CDF80C9002900598D6E9009586F847
:10426C00208029460090069A484600F0C1F80028A4
:10427C0056D0404607B0BDE8000FF0BD002034E03A
:10428C002BF003030020624612F9045B15F1410F79
:10429C00C8BF013012F9035C15F1410FC8BF0130E2
:1042AC0012F9025C15F1410FC8BF013012F9015C23
:1042BC0015F1410FC8BF0130043BE5D1A9B192F90A
:1042CC00003013F1410FC8BF013001290DD092F914
:1042DC00013013F1410FC8BF0130022905D092F90A
:1042EC00021011F1410FC8BF01308244B0680028A0
:1042FC007FF475AFD6E900456346CDF800B029468A
:10430C00069A204600F074F8002852D1EB6820463B
:10431C0041464A4607B0BDE8000FBDE8F0401847DB
:10432C000694ABEB0A00DDF81080441C013C3AD03B
:10433C002A694846302190470028F7D039E08A4650
:10434C0003E0480801314FEA510AD6E90058441CF1
:10435C00F669013C07D0D8F8102028463146904722
:10436C000028F6D025E0B6F5881F22D005984146E6
:10437C0000902846069A5B4600F03AF8C8B9D8F87F
:10438C000C30284604994A46984790B90024A24517
:10439C0022D0D8F810202846314690470134002806
:1043AC00F5D0601E19E0EB684846039A41469847E1
:1043BC0030B14FF00108404607B0BDE8000FF0BD2A
:1043CC0002984FF0000886F820000698F0614046ED
:1043DC0007B0BDE8000FF0BD50464FF00008504547
:1043EC0038BF4FF00108404607B0BDE8000FF0BDE4
:1043FC00F0B503AF4DF8048DD7F808801C460D4678
:10440C000646B2F5881F08D02B69304611469847EE
:10441C0018B101205DF8048BF0BD44B1EB68304657
:10442C00214642465DF8048BBDE8F0401847002059
:10443C005DF8048BF0BDF0B503AF2DE9000F81B032
:10444C008346D0F808C0006989465CEA000102D1B5
:10445C00DBE90001DBE0002874D0DBF8140009EB89
:10446C00020E4FF000084946441C09E043EA811053
:10447C00B11CA8EB0603B0F5881F03EB010861D053
:10448C00013C0E4628D076455CD0314611F9013BF3
:10449C00B3F1FF3FD8B2ECDC737800F01F01DF28DA
:1044AC0003F03F03E2D9B578F02805F03F0545EA63
:1044BC0083130DD3F07801F0070100F03F0040EAC0
:1044CC00831040EA8140B0F5881F3BD0311DD0E706
:1044DC0043EA0130F11CCCE7764533D096F9000065
:1044EC00B0F1FF3F04DCC0B2E02828BFF02815D2A1
:1044FC00B8F1000F09D0904506D219F9080010F157
:10450C00400F02DA002001E0FCD1484600280CBF25
:10451C0090468146BCF1000F18D173E0B37800F0DF
:10452C000700717803F03F03F67801F03F019B011F
:10453C0043EA013106F03F03194441EA8040B0F5EB
:10454C00881FD5D19046BCF1000F5BD0DBF80C4036
:10455C00B8F1100F0AD2B8F1000F0CD008F003011B
:10456C00B8F1040F09D200204A4624E048464146DF
:10457C0000F0B9F836E0002034E028F00303002006
:10458C004A4612F9046B16F1410FC8BF013012F9FB
:10459C00036C16F1410FC8BF013012F9026C16F111
:1045AC00410FC8BF013012F9016C16F1410FC8BFA1
:1045BC000130043BE5D1A9B192F9003013F1410F60
:1045CC00C8BF013001290DD092F9013013F1410F10
:1045DC00C8BF0130022905D092F9021011F1410F28
:1045EC00C8BF013084420DD99BF82020201A4D46BB
:1045FC00D11E18BF1146A9B1012910D1002100917B
:10460C00014610E0DBF804104246DBF80000CB68F2
:10461C00494601B0BDE8000FBDE8F040184741081D
:10462C00013040080090DBE900A401F10109DBF83E
:10463C001C60B9F1010906D02269504631469047F9
:10464C000028F6D008E0B6F5881F05D0E368504680
:10465C0029464246984720B1012001B0BDE8000F21
:10466C00F0BDDDF800800025A84508D02269504631
:10467C003146904701350028F6D0691E00E04146CE
:10468C000020414538BF012001B0BDE8000FF0BD4E
:10469C00D0E90030D0F80CC01846604780B56F46A2
:1046AC0000F001F8FEDE80B56F468CB0CDE900015C
:1046BC00022046F21C310590079008A8C0F60001B4
:1046CC00069000200491029044F63B2001A9C0F60C
:1046DC0000000B90CDE909016846089002A811462C
:1046EC00FFF7C8FBFEDEF0B503AF2DE9000F024665
:1046FC00033020F00300831A8B4298BF042B0AD995
:10470C0029B101F00303042910D200202BE0002072
:10471C00BDE8000FF0BDA1EB030EBEF1040FEFD30B
:10472C000EF0030C904238D1002074E021F003010C
:10473C00002012F9046B16F1410FC8BF013012F9B9
:10474C00036C16F1410FC8BF013012F9026C16F15F
:10475C00410FC8BF013012F9016C16F1410FC8BFEF
:10476C0001300439E5D1ABB192F9001011F1410FD0
:10477C00C8BF0130012B0DD092F9011011F1410F7E
:10478C00C8BF0130022B05D092F9021011F1410F74
:10479C00C8BF0130BDE8000FF0BDD143084403F0A1
:1047AC000301032802D2002014461DE023F0030568
:1047BC000020144614F9046B16F1410FC8BF0130E8
:1047CC0014F9036C16F1410FC8BF013014F9026CD7
:1047DC0016F1410FC8BF013014F9016C16F1410FED
:1047EC00C8BF0130043DE5D1A9B194F9005015F1D1
:1047FC00410FC8BF013001290DD094F9015015F1BA
:10480C00410FC8BF0130022905D094F9021011F1F3
:10481C00410FC8BF013013444FEA9E080021BCF180
:10482C00000F1AD02EF003021A4492F9006016F110
:10483C00410FC8BF0121BCF1010F0ED092F90160EC
:10484C0016F1410FC8BF0131BCF1020F05D092F92E
:10485C00022012F1410FC8BF013108444FF0FF1C78
:10486C000FE00CEA1B222BF0FF242244A8EB0908D2
:10487C000EEB890319F0030102EB024200EB12402C
:10488C003ED1B8F1000F3FF485AFB8F1C00FC1466F
:10489C0028BF4FF0C00919F0FC029E464FF0000BE8
:1048AC0003EB820ADDD07346002B1FBFD3E90065F2
:1048BC00D3E90212F443E4091FBF44EA961424F02E
:1048CC00FE345C44EE431FBFF60946EA951525F00D
:1048DC00FE352C441FBFCD43ED0945EA911121F063
:1048EC00FE311FBF2144D443E40944EA92121FBF96
:1048FC0022F0FE3202EB010B10335345D4D1B0E75A
:10490C00BEF1000F22D0DAF8002001296FEA020371
:10491C004FEAD31343EA921222F0FE3317D0DAF89F
:10492C00042002296FEA02064FEAD61646EA9212D2
:10493C0022F0FE3213440AD0DAF80810CA43D20926
:10494C0042EA911121F0FE310B4400E00023FF21DB
:10495C0023F0FF22C0F2070101EA1321114401EBFD
:10496C00014100EB1140BDE8000FF0BDB0B502AF46
:10497C00A2B000680DF1080C812500F00F040CEBBF
:10498C0005020A2C4FF0570338BF3023102823445C
:10499C0002F8023C26D35724C3B2A02B38BF3024D4
:1049AC0004EB1313040A02F8033C1FD004F00F03AA
:1049BC0057240A2B38BF3024A5F1040E2344040BD2
:1049CC0002F8043C16D004F00F0357240A2B38BF0E
:1049DC003024000C7546234402F8053CCDD1AEF1D1
:1049EC0001000AE0A81EA5F1010E06E0E81EA5F1E3
:1049FC00020E02E0EA1E7046964681280FD2CEF1D6
:104A0C00810260440223CDE9000246F21C220846D2
:104A1C00C0F600020121FFF7ABFB22B0B0BD46F29D
:104A2C000C228021C0F60002FFF738FEFEDEF0B546
:104A3C0003AF2DE9000F8DB0046846F21E28A7F1D4
:104A4C00430C0B4642F210718C42C0F600083FD367
:104A5C0041F259794EF2FF0E0020CDF2B71941F216
:104A6C007B4A4FF0640BC0F2F55E0293A4FB09364F
:104A7C000CEB00056246043874454FEA563303FBD1
:104A8C0011461C461FFA86FC4FEA9C01944601FB1A
:104A9C000AF14FEA514138F8112001FB1B61A5F8CE
:104AAC00232089B238F81110A5F8251042F21071A4
:104ABC00DCD81C46029B00F12701632C0BD8204646
:104ACC000A2819D338F8100002392CF8010017E025
:104ADC002721632CF3D9A0B241F27B428008023922
:104AEC0050436422400C00FB124292B238F8122060
:104AFC002CF801200A28E5D2013930300CF80100DD
:104B0C00C1F1270046F214126144C0F60002CDE94F
:104B1C000010184601210023FFF72AFB0DB0BDE859
:104B2C00000FF0BDD0E90020C3681046184700689C
:104B3C000B46D0E900121846FFF77DBC0B46D0E9B6
:104B4C0000121846FFF777BCD1E90031026818460D
:104B5C00FFF737BAF0B503AF2DE900070F2A61D97B
:104B6C00434213F0030400EB040C16D003460E462C
:104B7C00357803F8015B63450FD2757803F8015B58
:104B8C0063453EBFB57803F8015B634505D2F57804
:104B9C00043603F8015B6345EAD3A2EB040E01EB88
:104BAC0004082EF0030918F003010CEB09033CD0A8
:104BBC00B9F1010F52DB4FEAC10A28F00301CAF127
:104BCC00000601F10805096806F0180621FA0AF238
:104BDC0055F8041C01FA06F422434CF8042B9C45AE
:104BEC003CD221FA0AF2296801FA06F422434CF865
:104BFC00042B9C453FBF21FA0AF2696801FA06F4BE
:104C0C0022433CBF4CF8042B9C4527D221FA0AF2D4
:104C1C00A968103501FA06F422434CF8042B9C4584
:104C2C00D4D31BE00346F2B933E0B9F1010F15DB25
:104C3C00444621684CF8041B9C450FD261684CF823
:104C4C00041B9C453EBFA1684CF8041B9C4505D237
:104C5C00E16810344CF8041B9C45EAD308EB0901BD
:104C6C000EF00302AAB11A440E7803F8016B9342BA
:104C7C000FD24E7803F8016B93423EBF8E7803F847
:104C8C00016B934205D2CE78043103F8016B934249
:104C9C00EAD3BDE80007F0BDD0B502AF0F2A35D975
:104CAC00434213F0030E00EB0E0C0FD0034603F837
:104CBC00011B63453FBF03F8011B634503F8011B50
:104CCC00634503D203F8011B6345F0D3A2EB0E0E30
:104CDC002EF003020CEB0203012A13DBCAB24FF0D5
:104CEC00013462434CF8042B9C450BD24CF8042B3A
:104CFC009C453CBF4CF8042B9C4503D24CF8042B30
:104D0C009C45EFD30EF0030212B912E0034682B1B8
:104D1C001A4403F8011B93420BD203F8011B934274
:104D2C003CBF03F8011B934203D203F8011B9342CF
:104D3C00EFD3D0BDFFF70EBF0B4611461A46FFF757
:104D4C00ABBFD0B502AF1346D2B2042939D3140489
:104D5C00A1F1040E44EA0363012443EA022304EBA9
:104D6C009E04134414F003040AD08446012C4CF81E
:104D7C00043B0DD160467146BEF10C0F19D202E016
:104D8C00BEF10C0F15D26046BDE8D040FFF7D4BF82
:104D9C00022C436006D1083908308446BEF10C0F52
:104DAC0007D2F0E783600C390C308446BEF10C0F4F
:104DBC00E9D31039C0E90033C0E9023310300329BC
:104DCC00F7D884466046BDE8D040FFF7B5BF002257
:104DDC00FFF7B7BFFFF7FBBFFFF7ACBF704604216F
:104DEC00084203D1EFF3088000F004B8EFF3098018
:084DFC0000F000B8FEE7D4D47A
:104E10002F686F6D652F7369642F2E636172676FE2
:104E20002F72656769737472792F7372632F696E5D
:104E30006465782E6372617465732E696F2D3666B2
:104E400031376432326262613135303031662F631E
:104E50006F727465782D6D2D302E372E372F73724B
:104E6000632F7065726970686572616C2F6E766908
:104E7000632E7273104E0008640000007900000079
:104E800009000000104E000864000000F50000005A
:104E9000120000002F686F6D652F7369642F2E63F9
:104EA0006172676F2F6769742F636865636B6F75D5
:104EB00074732F656D62617373792D393331326488
:104EC00063623065643737346232392F3034376586
:104ED0006139302F656D62617373792D73746D3331
:104EE000322F7372632F6164632F66312E727300E9
:104EF000944E00085B00000029000000180000002C
:104F0000617474656D707420746F2064697669646F
:104F100065206279207A65726F000000944E000867
:104F20005B0000003A000000180000002F686F6D61
:104F3000652F7369642F2E636172676F2F726567C7
:104F400069737472792F7372632F696E6465782E3A
:104F50006372617465732E696F2D36663137643202
:104F6000326262613135303031662F73746D3332A5
:104F70002D6D6574617061632D342E302E302F736A
:104F800072632F63686970732F73746D3332663187
:104F9000303372622F2E2E2F2E2E2F706572697075
:104FA000686572616C732F6164635F66312E727322
:104FB000617373657274696F6E206661696C656494
:104FC0003A206E203C20387573697A652C4F0008B2
:104FD000840000003C0000004F0000002F686F6D4F
:104FE000652F7369642F2E636172676F2F67697411
:104FF0002F636865636B6F7574732F656D62617382
:1050000073792D39333132646362306564373734F4
:105010006232392F303437656139302F656D626106
:105020007373792D73746D33322F7372632F7573AD
:105030006172742F6D6F642E72730000DC4F000874
:105040005E000000490200000500000000000000B2
:10505000606173796E6320666E6020726573756D32
:10506000656420616674657220636F6D706C657431
:10507000696F6E00DC4F00085E0000005A020000FD
:105080001900000000000000000000000000000007
:10509000617474656D707420746F207375627472BE
:1050A0006163742077697468206F766572666C6FCF
:1050B00077000000DC4F00085E0000009401000053
:1050C00005000000DC4F00085E0000004C010000FD
:1050D00005000000DC4F00085E000000B00000008A
:1050E00005000000DC4F00085E000000E002000048
:1050F00005000000DC4F00085E000000D102000047
:10510000050000002F686F6D652F7369642F2E6393
:105110006172676F2F72656769737472792F73722A
:10512000632F696E6465782E6372617465732E698E
:105130006F2D36663137643232626261313530301C
:1051400031662F656D62617373792D65786563755E
:10515000746F722D302E312E312F7372632F726166
:10516000772F6D6F642E7273045100086400000085
:10517000920000001400000063616C6C65642060A4
:10518000526573756C743A3A756E7772617028293E
:1051900060206F6E20616E206045727260207661C3
:1051A0006C7565005113000800000000010000004C
:1051B000F73800087372632F6D61696E2E72730089
:1051C000B45100080B000000480000001A00000065
:1051D000B45100080B000000490000001A00000054
:1051E000B45100080B00000041000000090000005D
:1051F000617474656D707420746F2064697669647D
:1052000065206279207A65726F49525120416C7233
:10521000656164792074616B656E00000952000855
:1052200011000000B45100080B0000005200000003
:105230000F00000048656C6C6F20456D62617373F0
:105240007920576F726C64210D0A0000B451000878
:105250000B0000006400000001000000B4510008D1
:105260000B0000007A00000032000000B45100087A
:105270000B0000008B0000000A000000B451000881
:105280000B000000940000000A000000B451000868
:105290000B000000960000000F0000003E00000020
:1052A000B51800080400000004000000B71800084A
:1052B0006465666D74206C6F676765722074616BDE
:1052C000656E207265656E7472616E746C79000033
:1052D000B05200081E0000002F686F6D652F7369C3
:1052E000642F2E636172676F2F72656769737472C2
:1052F000792F7372632F696E6465782E637261749F
:1053000065732E696F2D36663137643232626261A1
:105310003135303031662F6465666D742D7274746A
:105320002D302E342E302F7372632F6C69622E72E3
:1053300073000000D8520008590000003A00000035
:105340000D0000002F686F6D652F7369642F2E6349
:105350006172676F2F72656769737472792F7372E8
:10536000632F696E6465782E6372617465732E694C
:105370006F2D3666313764323262626131353030DA
:1053800031662F6465666D742D302E332E342F7385
:1053900072632F656E636F64696E672F727A636FD5
:1053A00062732E7273000000000000000000000015
:1053B000617474656D707420746F2061646420770B
:1053C000697468206F766572666C6F774453000865
:1053D000610000004F000000110000002F686F6D99
:1053E000652F7369642F2E636172676F2F72656713
:1053F00069737472792F7372632F696E6465782E86
:105400006372617465732E696F2D3666313764324D
:10541000326262613135303031662F6465666D7499
:105420002D7274742D302E342E302F7372632F63CF
:1054300068616E6E656C2E7273000000DC530008AC
:105440005D000000250000001A000000DC53000889
:105450005D00000048000000100000000000000097
:10546000617474656D707420746F2061646420775A
:10547000697468206F766572666C6F77DC5300081C
:105480005D0000004A0000001D0000000000000058
:10549000617474656D707420746F207375627472BA
:1054A0006163742077697468206F766572666C6FCB
:1054B00077000000DC5300085D0000004C00000095
:1054C00052000000DC5300085D0000007400000082
:1054D00009000000DC5300085D00000072000000BD
:1054E00009000000FC60DAF266B6BEE0FEF6EE3EB1
:1054F0009C7A9E8E0100FD61DBF367B7BFE1FFF789
:10550000EF3F9D7B9F8F7372632F736567656D653A
:105510006E74732E727300000655000810000000B0
:105520006F0000001B00000006550008100000007E
:105530007F0000001F0000000000000000000000CD
:10554000617474656D707420746F2073686966741B
:105550002072696768742077697468206F76657255
:10556000666C6F770102030405060700000401055D
:105570000206030720627574206973200000000191
:105580000000000100010000000100000000000117
:10559000000000010001000000010000696E646568
:1055A00078206F7574206F6620626F756E64733A31
:1055B00020746865206C656E20697320000000020D
:1055C00000020000000000020002000000000002D3
:1055D0000002000000000002000200000000800045
:1055E00000008000000080000000800080000000BB
:1055F0008000000080000000800000002F686F6DB8
:10560000652F7369642F2E636172676F2F726567F0
:1056100069737472792F7372632F696E6465782E63
:105620006372617465732E696F2D3666313764322B
:10563000326262613135303031662F636F7274656A
:10564000782D6D2D302E372E372F7372632F7065A6
:10565000726970686572616C2F6E7669632E727301
:10566000FC55000864000000DE0000000D00000092
:10567000FC550008640000007900000009000000EB
:105680002F686F6D652F7369642F2E636172676F6A
:105690002F6769742F636865636B6F7574732F650B
:1056A0006D62617373792D393331326463623065B1
:1056B000643737346232392F303437656139302FEF
:1056C000656D62617373792D73746D33322F7372EC
:1056D000632F7263632F66312E7273008056000849
:1056E0005B0000002000000012000000000000002D
:1056F000617474656D707420746F20646976696478
:1057000065206279207A65726F000000805600087B
:105710005B000000260000000F00000000000000F9
:10572000617474656D707420746F20737562747227
:105730006163742077697468206F766572666C6F38
:1057400077000000805600085B0000002600000083
:105750002200000000000000000000000000000027
:10576000617474656D707420746F206D756C7469EC
:10577000706C792077697468206F766572666C6FDB
:1057800077000000805600085B0000002D0000003C
:105790001B000000805600085B0000004500000070
:1057A0001C000000805600085B000000570000004D
:1057B0001C000000805600085B0000007E00000016
:1057C0001D000000617373657274696F6E206661FD
:1057D000696C65643A206E203C20347573697A6583
:1057E0002F686F6D652F7369642F2E636172676F09
:1057F0002F72656769737472792F7372632F696E84
:105800006465782E6372617465732E696F2D3666D8
:1058100031376432326262613135303031662F7334
:10582000746D33322D6D6574617061632D342E306B
:105830002E302F7372632F63686970732F73746DCA
:1058400033326631303372622F2E2E2F2E2E2F7070
:1058500065726970686572616C732F74696D6572C9
:105860005F76312E7273000000000000000000001F
:10587000617474656D707420746F20616464207746
:10588000697468206F766572666C6F77E057000800
:10589000860000009001000039000000E057000879
:1058A000860000001F000000650000002F686F6D7B
:1058B000652F7369642F2E636172676F2F7265673E
:1058C00069737472792F7372632F696E6465782EB1
:1058D0006372617465732E696F2D36663137643279
:1058E000326262613135303031662F636F727465B8
:1058F000782D6D2D302E372E372F7372632F7065F4
:10590000726970686572616C2F6E7669632E72734E
:10591000AC58000864000000790000000900000095
:10592000AC58000864000000F50000001200000000
:105930002F686F6D652F7369642F2E636172676FB7
:105940002F6769742F636865636B6F7574732F6558
:105950006D62617373792D393331326463623065FE
:10596000643737346232392F303437656139302F3C
:10597000656D62617373792D73746D33322F737239
:10598000632F74696D655F6472697665722E7273D8
:1059900030590008600000009C0000001700000063
:1059A000617474656D707420746F207375627472A5
:1059B0006163742077697468206F766572666C6FB6
:1059C000770000003059000860000000DE00000091
:1059D00016000000617373657274696F6E206661F2
:1059E000696C65643A206E203C20387573697A656D
:1059F0002F686F6D652F7369642F2E636172676FF7
:105A00002F72656769737472792F7372632F696E71
:105A10006465782E6372617465732E696F2D3666C6
:105A200031376432326262613135303031662F7322
:105A3000746D33322D6D6574617061632D342E3059
:105A40002E302F7372632F63686970732F73746DB8
:105A500033326631303372622F2E2E2F2E2E2F705E
:105A600065726970686572616C732F62646D615FE5
:105A700076312E7273000000F05900088500000096
:105A80000B00000026000000F0590008850000000F
:105A90003B000000390000002F686F6D652F7369AF
:105AA000642F2E636172676F2F6769742F63686557
:105AB000636B6F7574732F656D62617373792D39C4
:105AC0003331326463623065643737346232392F80
:105AD000303437656139302F656D62617373792DAC
