:020000040800F2
:1000000000500020310100082D120008031C0008D8
:100010002D1200082D1200082D120008000000000B
:100020000000000000000000000000002D12000889
:100030002D120008000000002D1200082D120008EB
:100040002D1200082D1200082D1200082D12000894
:100050002D1200082D1200082D1200082D12000884
:100060002D1200082D1200082D1200082D12000874
:100070002D1200082D1200082D1200082D12000864
:100080002D1200082D1200082D1200082D12000854
:100090002D1200082D1200082D1200082D12000844
:1000A0002D1200082D1200082D1200082D12000834
:1000B0002D1200082D1200082D1200082D12000824
:1000C0002D1200082D1200082D1200082D12000814
:1000D0002D1200082D1200082D1200082D12000804
:1000E0002D1200082D120008000000002D1200083B
:1000F0002D1200082D1200082D1200082D120008E4
:100100002D1200082D1200082D1200082D120008D3
:100110002D1200082D1200082D1200082D120008C3
:100120002D1200082D1200082D1200082D120008B3
:1001300001F07DF8084809490022814201D004C03D
:10014000FBE707480749084A814202D008CA08C0AD
:10015000FAE700F00CF800DE0000002004000020A8
:100160000000002000000020C0200008704780B57B
:100170006F4600F001F8FEDE80B56F46B2B001F0C8
:100180005BF8044601F054F804F0010501F057F85B
:1001900040F20100C2F200000478002C04BF0121EB
:1001A0000170002D08BF01F045F8002C40F08A8056
:1001B00001F042F8044601F03BF804F0010501F0BB
:1001C0003EF840F20000C2F200000478002C04BFA8
:1001D00001210170002D08BF01F02CF8002C7DD109
:1001E00000F0DAFF00F0E3FF00F0C1FF8DF85400EB
:1001F00015A800F0F2FF00F0E5FF0DF154084046AD
:10020000414600F04EFD41F210024FF40000C4F2EE
:1002100001020321106052F8100C61F31F7042F8C4
:10022000100C404600F01EFDC0B207F8BD0C00F0F7
:10023000AAFF0DF10C09484600F0A6FFB9E87E00C0
:1002400040467EC099E87E007EC02DA8414600F061
:1002500065FE2DAB0FAC15AD0DF1540C0FCB8CE83A
:100260000F0020462946424600F04EFD204600F091
:10027000C0FF00F0BDFF4DF683612D90C4F21B312D
:10028000A0FB0101880C4FF0FF3100EBC00001EB37
:10029000C0000021B1EB106F2CD0012015AA8DF801
:1002A000540041F66840C0F60000009041F620403E
:1002B000C0F6000041F64C432B21C0F6000301F0CC
:1002C00016F8FEDE41F6CC4041F60852C0F60000BA
:1002D000C0F600022B2100F0D3FFFEDE41F6CC4039
:1002E00041F6F842C0F60000C0F600022B2100F0F3
:1002F000C7FFFEDE4EF2100ACEF2000ACAF8040072
:10030000CAF80810DAF8000040F00100CAF800004E
:10031000DAF80000C0F300400138800715D0DAF8A1
:100320000000C0F30040013880071FBFDAF800006A
:10033000C0F3004001385FEA807006D0DAF80000B0
:10034000C0F3004001388007E2D1032102220620D9
:100350004FF0010B2B910DF18C0CCDE921120423F0
:10036000CDE9191241F21001002607242C90C4F2A5
:1003700001018CE85100CDE91B0B4FF400002A94D9
:100380000024CDF8A4B0CDE927B32692CDE91FB360
:10039000CDE91D62CDE915620026CDE917B30860ED
:1003A00011E05FEACB7041F210014FF400008BF0D6
:1003B000010B15AD18BF8020C4F20101B9F1070F80
:1003C000086000F2978005EB421050F826001228D2
:1003D00080F0888041F678410DF1B408C0F6000144
:1003E0000192085C4246411C284600F003FA284668
:1003F000214600F0A3FB2846414600F0DEFB2046E4
:1004000006F10109062E88BF4FF0000900F0EBF954
:100410000446A7F1BD00414600F08CF8C0B20428A4
:1004200010D12D984DF68361C4F21B31019AA0FBC7
:100430000101880C4FF4FA6148430138B0F1807F24
:1004400023D360E0DDF80480DFE800F00202090950
:1004500008F10100B8F1010F88BF002005E0A8F104
:100460000100B8F1000F08BF022002462D984DF69A
:100470008361C4F21B31A0FB0101880C40F29E7124
:1004800048430138B0F1807F45D2CAF8040000200B
:10049000CAF80800E4B2DAF800004E4640F0010065
:1004A000CAF80000DAF80000C0F300400138800705
:1004B0003FF477AFDAF80000C0F30040013880075E
:1004C0001FBFDAF80000C0F3004001385FEA807017
:1004D0003FF467AFDAF80000C0F30040013880074E
:1004E000E0D15EE741F69C421221C0F6000200F026
:1004F000DEFEFEDE41F68C423046C0F600020821E8
:1005000000F0D5FEFEDE012007F8010C41F6AC40FC
:10051000C0F6000006E0012007F8010C41F6BC40DF
:10052000C0F60000009041F620407A1EC0E6FEE7CB
:100530007047D4D480B56F4682B00278042A3ED189
:1005400040F60802C4F201021368DB0642D40968CF
:100550004DF68362C4F21B320023A1FB0212910C00
:10056000322251434A1EB3EB126F40F00B814EF220
:100570001001CEF200014A608B600A6842F001026D
:100580000A600A68C2F30042013A920700F0AF80A5
:100590000A68C2F30042013A92070BD00A68C2F31C
:1005A0000042013A920705D00A68C2F30042013ABC
:1005B0009207E6D100210170084602B080BDDFE855
:1005C00002F0024A435140F60801C4F201010968F1
:1005D000C9064DE013689B0651D409684DF6836245
:1005E000C4F21B320023A1FB0212910C32225143B0
:1005F0004A1EB3EB126F40F0CE804EF21001CEF2E5
:1006000000014A608B600A6842F001020A600A68D1
:10061000C2F30042013A920711D00A68C2F30042C5
:10062000013A92070BD00A68C2F30042013A9207DE
:1006300005D00A68C2F30042013A9207E7D10121CE
:100640000170084602B080BD40F60801C4F2010105
:10065000096849060CE040F60801C4F20101096886
:10066000890605E040F60801C4F20101096809069F
:100670004FF0040148BF0170084602B080BD136806
:100680005B0639D409684DF68362C4F21B3200233D
:10069000A1FB0212910C322251430139B3EB116FCD
:1006A00040F082804EF21002CEF200025160936060
:1006B000116841F0010111601168C1F30041013975
:1006C000890750D01168C1F30041013989074AD028
:1006D0001168C1F300410139890744D01168C1F3A1
:1006E0000041013989074FF00201E5D100E0002106
:1006F0000170084602B080BD1268120638D409683D
:100700004DF68362C4F21B320023A1FB0212910C4E
:10071000322251430139B3EB116F4ED14EF2100228
:10072000CEF2000251609360116841F00101116046
:100730001168C1F30041013989071ED01168C1F366
:1007400000410139890718D01168C1F3004101390E
:10075000890712D01168C1F30041013989074FF0B0
:100760000301E5D1C4E702210170084602B080BD53
:1007700004210170084602B080BD032101700846C3
:1007800002B080BD012001AA8DF8040041F660503E
:10079000C0F6000019E00120FA1E07F8030C41F62C
:1007A0007050C0F6000010E00120BA1E07F8020CDD
:1007B00041F68050C0F6000007E001207A1E07F8DD
:1007C000010C41F69050C0F60000009041F6185020
:1007D000C0F6000041F644532B21C0F6000300F0A0
:1007E00086FDFEDE704741F60C6140B2C0F60001A6
:1007F000085C704780B56F4682B0C8074FF00803A9
:1008000040F6104008BF4FF40023C4F2010003601B
:100810004FF4001303604DF683631268C4F21B3378
:10082000A2FB03239A0C002302EB8202A2F1010E29
:10083000B3EB1E6F40F06D815FFA81FC4EF2100148
:10084000CEF20001C1F804E08B600B6843F00103B5
:100850000B600B68C3F30043013B9B0712D00B688E
:10086000C3F30043013B9B071FBF0B68C3F3004367
:10087000013B5FEA837305D00B68C3F30043013B80
:100880009B07E6D1202303605FEA8C734FF00803D7
:1008900058BF4FF4002303604FF40013036000239C
:1008A000C1F804E08B600B6843F001030B600B6838
:1008B000C3F30043013B9B0712D00B68C3F3004313
:1008C000013B9B071FBF0B68C3F30043013B5FEA7B
:1008D000837305D00B68C3F30043013B9B07E6D14C
:1008E000202303605FEA4C734FF0080358BF4FF4B6
:1008F000002303604FF4001303600023C1F804E0F9
:100900008B600B6843F001030B600B68C3F300437B
:10091000013B9B0712D00B68C3F30043013B9B07CD
:100920001FBF0B68C3F30043013B5FEA837305D02D
:100930000B68C3F30043013B9B07E6D12023036010
:100940005FEA0C734FF0080358BF4FF400230360B5
:100950004FF4001303600023C1F804E08B600B68C0
:1009600043F001030B600B68C3F30043013B9B079B
:1009700012D00B68C3F30043013B9B071FBF0B68FA
:10098000C3F30043013B5FEA837305D00B68C3F3F5
:100990000043013B9B07E6D1202303605FEACC6361
:1009A0004FF0080358BF4FF4002303604FF40013C7
:1009B00003600023C1F804E08B600B6843F001037F
:1009C0000B600B68C3F30043013B9B0712D00B681D
:1009D000C3F30043013B9B071FBF0B68C3F30043F6
:1009E000013B5FEA837305D00B68C3F30043013B0F
:1009F0009B07E6D1202303605FEA8C634FF0080376
:100A000058BF4FF4002303604FF40013036000232A
:100A1000C1F804E08B600B6843F001030B600B68C6
:100A2000C3F30043013B9B0712D00B68C3F30043A1
:100A3000013B9B071FBF0B68C3F30043013B5FEA09
:100A4000837305D00B68C3F30043013B9B07E6D1DA
:100A5000202303605FEA4C634FF0080358BF4FF454
:100A6000002303604FF4001303600023C1F804E087
:100A70008B600B6843F001030B600B68C3F300430A
:100A8000013B9B0712D00B68C3F30043013B9B075C
:100A90001FBF0B68C3F30043013B5FEA837305D0BC
:100AA0000B68C3F30043013B9B07E6D120230822D8
:100AB00003604FFA8CF3B3F1FF3FC8BF4FF400223D
:100AC00002604FF4001202600022C1F804E08A6064
:100AD0000A6842F001020A600A68C2F30042013A61
:100AE000920712D00A68C2F30042013A92071FBF70
:100AF0000A68C2F30042013A5FEA827205D00A68CE
:100B0000C2F30042013A9207E6D12021016002B00F
:100B100080BD012041F6CC5307F8010C41F6EC50A2
:100B2000C0F600007A1E009041F6A050C0F600000A
:100B3000C0F600032B2100F0DAFBFEDED0B502AFD9
:100B4000C8B24FF4805E4FF000614FF080624FF406
:100B5000006C4FF48063DFE800F004070C102715E9
:100B60001A214FF0006C06E04FF0006C4FF48063E8
:100B700003E04FF4006C4FF080634FF0805E1A4644
:100B8000614611E04FF4805E4FF000610AE04FF4DF
:100B9000805E4FF400614FF0806205E04FF4805EAC
:100BA0004FF400614FF4806241F21000C4F2010082
:100BB00002600160C0F800E0D0BD80B56F4682B031
:100BC00040F610401022C4F20100002302604DF6EE
:100BD00083620968C4F21B32A1FB0212910C01EB83
:100BE00081014A1EB3EB126F27D14EF21001CEF2F3
:100BF00000014A608B600A6842F001020A600A68DC
:100C0000C2F30042013A920712D00A68C2F30042CE
:100C1000013A92071FBF0A68C2F30042013A5FEA35
:100C2000827205D00A68C2F30042013A9207E6D107
:100C30004FF48011016002B080BD012041F6CC5319
:100C400007F8010C41F6FC50C0F600007A1E009037
:100C500041F6A050C0F60000C0F600032B2100F0C2
:100C600046FBFEDE40F600001021C4F2010008221F
:100C70000161016862F31341016020210161016893
:100C800062F31751016040210161016862F31B6149
:100C9000016080210161016862F31F71016004201D
:100CA000704740F600414FF40020C4F20101086192
:100CB00003200A6860F30F320A6010220A610A6892
:100CC00060F313420A604FF400120A610A6860F38D
:100CD00017520A6041F204014FF08062C4F2010130
:100CE000CA600A6860F30B220A604FF00062CA60B3
:100CF0000A6860F30F320A604FF08052CA600A68D7
:100D000060F313420A607047F0B503AF2DE9000F9E
:100D100085B00B7A93B1D1E900A640F60015C0F278
:100D20003D05BAF1010C18BF4FF0010CBAF1010FEB
:100D300008BF35464E7A02366E4310E00A68012A33
:100D400005D14E684FF0000C4FF0010A07E041F268
:100D500000264FF0010CC0F27A064FF0000A8C7AA0
:100D60004AF2002BCA7A192503920B2C0A7B4FF00A
:100D700000090292C0F24A4B8A7B019222460494F7
:100D800088BF1A25009383B1BCF1000F0DD1A6F1E5
:100D90003773A6EB0B04A3F5D843B4FA84F4B3FA83
:100DA00083F364095B0944EA03090BF101039E42E2
:100DB0003FBF049A154405F01F0526FA05F538BF14
:100DC0009D4221D2039A45F20014C0F22524531DFE
:100DD00003F0070325FA03FCA44515D8029A541D15
:100DE00004F0070E25FA0EF8D8459FBF0224019A99
:100DF00004EB4204E4B29FBFB8FBF4F449F68172FD
:100E0000C0F2D50294420BD341F6DC6041F6687221
:100E1000C0F60000C0F600028B2100F031FAFEDEC1
:100E20000122C0E9005C02FA0EF59A4080F81690A3
:100E3000C0E9028604614575027543F20160C0F2A3
:100E40006E10864208D3009B46F60040C0F2DC20BC
:100E5000864204D2312006E03020009B03E04FF0B0
:100E6000320008BF312042F20002BAF1000FC4F292
:100E70000202106041F20000C4F2020010D00268C9
:100E800042F4803202600268920309D4026892033D
:100E90005CBF02685FEA823202D402689203F2D534
:100EA00003B34268BAF1000F22F4741218BF02F5BE
:100EB00080324B7A03F00F0342EA834242600268B9
:100EC00042F080720260026892015FBF02685FEACE
:100ED000821202685FEA821202D402689201F2D59D
:100EE0004FF0020A497B0C22CFF6BF72002918BFCF
:100EF0000AF5800A41681140019A41EA8231029A5A
:100F000041EAC221039A41EA0221049A41EA02110C
:100F10005144416005B0BDE8000FF0BDF0B503AF2E
:100F20002DE90007D1E900AC40F600130A6AC0F2CF
:100F30003D03BAF1010F08BF6346012A17D1002B08
:100F400000F0EE804D6AB5FBF3F6721E0FD0102450
:100F5000AB4288BF0124102A38BF34466343A4F152
:100F600002084FF0010E8A68012A0DD014E041F208
:100F70000023BAF1000FC0F27A034FF0000E18BF41
:100F800063468A68012A07D1CA68002A00F0D18026
:100F9000B3FBF2F4022C34D24FF0070909F1190423
:100FA00004F01F0223FA02F60A69012A01D14A69F4
:100FB00006E045F200143246C0F22524A64203D2D0
:100FC000002A144600F0A3803219013AB2FBF4F46F
:100FD000032C0ED24FF6F872C0F2FF0202EAC402EE
:100FE00040F20334C0F20404D4408A69012A1CD1BF
:100FF00013E0E21E032A08D205248A69012A0CD0D4
:1010000013E04DD14FF00809C8E7A21F0724062AB4
:1010100038BF06248A69012A07D1CA69002A00F06C
:101020009180B6FBF2F2022A13D203258A6A012AC2
:1010300014D1C96A002900F08E8005F11D0202F06A
:101040001F0226FA02F2B2FBF1F2032A24D2002197
:1010500005E02AD104258A6A012AEAD00321817396
:101060004AF20021C0F24A418EF00102591A8AF078
:101070000103057342EA0302C47280F80A9080F803
:10108000098080F808E0C0E900AC18BF01211143D5
:101090004173BDE80007F0BD052A0DD20121DEE74E
:1010A000062C0ED24FF0090978E7062A0ED2052544
:1010B0008A6A012ABDD0D1E70321082A38BF02215C
:1010C000CDE70C2C0AD24FF00A0967E707250C2A56
:1010D00038BF06258A6A012AC0D1AAE7282C02D285
:1010E0004FF00B095AE7602C02D24FF00C090BE0CD
:1010F000C02C02D24FF00D0906E04FF00F09B4F5F5
:10110000C07F38BF4FF00E0909F11A0448E741F6D5
:10111000806041F6AC62C0F60000C0F6000222E03A
:1011200041F6806041F67062C0F60000C0F6000231
:1011300019E041F6806041F69C62C0F60000C0F6FE
:10114000000210E041F6806041F6BC62C0F600008B
:10115000C0F6000207E041F6806041F6CC62C0F6BE
:101160000000C0F60002192100F08AF8FEDE40F20D
:1011700080100121C4F24220C0F8801101600021DA
:101180000160012070477047002181620162816126
:10119000016181600160704740F288100121C4F252
:1011A0004220C0F88011016000210160704740F2C8
:1011B0008C100121C4F24220C0F88011016000218E
:1011C0000160704740F290100121C4F24220C0F843
:1011D000801101600021016070470021022201702E
:1011E0000420C4F20100016862F31A6101607047D3
:1011F00070474EF21001CEF200010A6842F004027C
:101200000A600068704700780A4638B141F6787184
:101210001046C0F600010F2200F01FBB41F6877197
:101220001046C0F60001082200F017BBFEE7704729
:1012300072B6704762B67047EFF310807047704720
:1012400070474FF29B4048F6F471C6F22C40C1F64D
:10125000D531704780B56F4686B0CDE9030141F6C0
:10126000D470C0F600000122029041F69070C0F6E2
:1012700000008DF81420019001A8FFF758F9FEDE58
:1012800080B56F4688B0944641F69072C0F6000271
:101290000023CDE9060168460492012261460192CD
:1012A00006AA059302930092FFF7D4FFFEDE80B5F5
:1012B0006F468CB0CDE9000108A9022006910021FB
:1012C0000790CDE9030141F6C470C0F600006946FD
:1012D000029041F6EF20C0F60000CDE90901114669
:1012E0000B9001A8089002A8FFF7B4FFFEDE80B5BE
:1012F0006F468EB08DE80F000AA9022008910021E8
:10130000CDE90501099041F6E870C0F60000B96822
:10131000049041F6ED30C0F600000D9002A80C904C
:1013200041F6F730C0F600000B9068460A9004A81A
:10133000FFF790FFFEDEF0B503AF2DE9000F87B099
:10134000D7F80C909B4694460646E9B1346814F0F1
:10135000010000EB090A4FF02B0008BF4FF4881082
:1013600006906007D7F8088017D5BBF1100F45D25B
:10137000BBF1000F66D0ABF101000BF003010328B5
:1013800062D2002062467DE0346809F1010A2D2016
:1013900006906007D7F80880E7D44FF0000CB068DB
:1013A000002800F08B80CDF814B0D6F80CB0D345EF
:1013B00015D92007CDF8108027D496F82000ABEB84
:1013C0000A01E346032808BF0120820700F09B8042
:1013D000012840F09A804FF0000A084699E00598ED
:1013E0006346D6E9064500902946069A204600F055
:1013F000E0F800286ED04FF001081EE06046594624
:10140000654600F030FAAC4653E0302074687060F6
:101410004FF0010896F820006346CDF80C9002903A
:101420000598D6E9069586F8208029460090069A08
:10143000484600F0BEF8002856D0404607B0BDE848
:10144000000FF0BD002034E02BF0030300206246C3
:1014500012F9045B15F1410FC8BF013012F9035CAA
:1014600015F1410FC8BF013012F9025C15F1410FAF
:10147000C8BF013012F9015C15F1410FC8BF01303E
:10148000043BE5D1A9B192F9003013F1410FC8BF77
:10149000013001290DD092F9013013F1410FC8BF7D
:1014A0000130022905D092F9021011F1410FC8BF95
:1014B00001308244B06800287FF475AFD6E9064554
:1014C0006346CDF800B02946069A204600F071F830
:1014D00000284FD1EB68204641464A4607B0BDE898
:1014E000000FBDE8F04018470694ABEB0A00DDF8AA
:1014F0001080441C013C37D02A694846302190476F
:101500000028F7D036E08A4603E0480801314FEA68
:10151000510A7568441CD6E90686013C06D032693A
:101520004046294690470028F7D023E0B5F5881FAC
:1015300020D00598314600904046069A5B4600F060
:1015400038F8B8B9F368404604994A46984788B9CC
:101550000024A24521D032694046294690470134F3
:101560000028F6D0601E19E0EB684846039A414611
:10157000984730B14FF00108404607B0BDE8000F72
:10158000F0BD02984FF0000886F8200006987060C1
:10159000404607B0BDE8000FF0BD50464FF00008D0
:1015A000504538BF4FF00108404607B0BDE8000F76
:1015B000F0BDF0B503AF4DF8048DD7F808801C4698
:1015C0000D460646B2F5881F08D02B6930461146F5
:1015D000984718B101205DF8048BF0BD44B1EB6869
:1015E0003046214642465DF8048BBDE8F04018477E
:1015F00000205DF8048BF0BDF0B503AF2DE9000FBE
:1016000081B08846D0F808C001698146BCF1010F5D
:1016100018BF01290AD1012977D1D9F8140008EBA4
:10162000020E4FF0000B4146461C0CE0D9E90601C2
:10163000D2E040EA8115A11CABEB0400B5F5881F90
:1016400000EB010B61D0013E0C4628D074455CD004
:10165000214611F9010BB0F1FF3FC5B2ECDC607817
:1016600005F01F01DF2D00F03F00E2D9A378F02D37
:1016700003F03F0343EA80100DD3E37801F0070144
:1016800003F03F0343EA801040EA8145B5F5881F27
:101690003BD0211DD0E740EA0135E11CCCE7744581
:1016A00033D094F90000B0F1FF3F04DCC1B2E0296F
:1016B00028BFF02915D2BBF1000F09D0934506D2FF
:1016C00018F90B0010F1400F02DA002101E0FCD103
:1016D000414600290CBF93468846BCF1000F18D143
:1016E00075E0A37801F00701607803F03F03E67826
:1016F00000F03F009B0143EA003006F03F0318442E
:1017000040EA8140B0F5881FD5D19346BCF1000F67
:101710005DD0D9F80C40BBF1100F0BD2BBF1000F1C
:101720000DD0ABF101000BF00301032809D200201A
:10173000424624E04046594600F095F836E0002045
:1017400034E02BF003030020424612F9046B16F13B
:10175000410FC8BF013012F9036C16F1410FC8BF29
:10176000013012F9026C16F1410FC8BF013012F9B5
:10177000016C16F1410FC8BF0130043BE5D1A9B19E
:1017800092F9003013F1410FC8BF013001290DD08B
:1017900092F9013013F1410FC8BF0130022905D081
:1017A00092F9021011F1410FC8BF013084420ED9E5
:1017B00099F82020201A4646D11E18BF11468A07E4
:1017C00015D0012910D100210091014610E0D9F86F
:1017D0001C105A46D9F81800CB68414601B0BDE844
:1017E000000FBDE8F0401847410801304008009064
:1017F000D9F8044001F1010AD9E90685BAF1010AD4
:1018000006D02A694046214690470028F6D008E0D5
:10181000B4F5881F05D0EB68404631465A469847D4
:1018200020B1012001B0BDE8000FF0BDDDF800904F
:101830000026B14508D02A69404621469047013626
:101840000028F6D0711E00E049460020494538BF07
:10185000012001B0BDE8000FF0BDD0E90630D0F89E
:101860000CC018466047F0B503AF2DE9000F0246E3
:10187000033020F00300831A8B4298BF042B0BD94E
:1018800031B1481E01F00303032810D200202BE0E1
:101890000020BDE8000FF0BDA1EB030EBEF1040F68
:1018A000EED30EF0030C904238D1002074E021F00A
:1018B0000301002012F9046B16F1410FC8BF01307B
:1018C00012F9036C16F1410FC8BF013012F9026C16
:1018D00016F1410FC8BF013012F9016C16F1410F2A
:1018E000C8BF01300439E5D1ABB192F9001011F154
:1018F000410FC8BF0130012B0DD092F9011011F139
:10190000410FC8BF0130022B05D092F9021011F12E
:10191000410FC8BF0130BDE8000FF0BDD1430844FE
:1019200003F00301032802D2002014461DE023F037
:1019300003050020144614F9046B16F1410FC8BFCB
:10194000013014F9036C16F1410FC8BF013014F9CE
:10195000026C16F1410FC8BF013014F9016C16F189
:10196000410FC8BF0130043DE5D1A9B194F9005041
:1019700015F1410FC8BF013001290DD094F9015074
:1019800015F1410FC8BF0130022905D094F90210AA
:1019900011F1410FC8BF013013444FEA9E080021E6
:1019A000BCF1000F1AD02EF003021A4492F9006025
:1019B00016F1410FC8BF0121BCF1010F0ED092F901
:1019C000016016F1410FC8BF0131BCF1020F05D013
:1019D00092F9022012F1410FC8BF013108444FF0C3
:1019E000FF1C0FE00CEA1B222BF0FF242244A8EB83
:1019F00009080EEB890319F0030102EB024200EB28
:101A000012403ED1B8F1000F3FF485AFB8F1C00FDE
:101A1000C14628BF4FF0C00919F0FC029E464FF0A6
:101A2000000B03EB820ADDD07346002B1FBFD3E906
:101A30000065D3E90212F443E4091FBF44EA961497
:101A400024F0FE345C44EE431FBFF60946EA9515C8
:101A500025F0FE352C441FBFCD43ED0945EA911119
:101A600021F0FE311FBF2144D443E40944EA92121D
:101A70001FBF22F0FE3202EB010B10335345D4D1CD
:101A8000B0E7BEF1000F22D0DAF8002001296FEA9A
:101A900002034FEAD31343EA921222F0FE3317D027
:101AA000DAF8042002296FEA02064FEAD61646EA5F
:101AB000921222F0FE3213440AD0DAF80810CA4318
:101AC000D20942EA911121F0FE310B4400E00023DB
:101AD000FF2123F0FF22C0F2070101EA1321114484
:101AE00001EB014100EB1140BDE8000FF0BDF0B586
:101AF00003AF2DE9000F8DB0046841F6F87842F28B
:101B000010700E468442C0F6000841D341F2597964
:101B10004EF2FF0E0021CDF2B71941F27B4A4FF091
:101B2000640BC0F2F55E0296A7F14302744502EB26
:101B30000105A4FB0926A1F104014FEA563202FB7C
:101B4000104614461FFA86FC4FEA9C0303FB0AF377
:101B50004FEA534338F81300A5F8230003FB1B603A
:101B600080B238F81000A5F8250042F21070DBD8DA
:101B7000029E01F127031446632C0CD821460A2942
:101B80001BD338F81110981EA7F14302115219E027
:101B90002723632CF2D9A0B241F27B418008023B9B
:101BA0004843A7F14302410C642001FB104080B27E
:101BB00038F81000D0520A29E3D2581EA7F1430288
:101BC00030311154C0F12701A7F14302104441F60E
:101BD0009072CDE90001C0F60002304601210023D9
:101BE000FFF7A9FB0DB0BDE8000FF0BDD0E9002064
:101BF000C368104618470B46D0E900121846FFF795
:101C0000FBBC70460421084203D1EFF3088000F0CA
:0C1C100004B8EFF3098000F000B8FEE714
:101C200063616C6C65642060526573756C743A3ADC
:101C3000756E77726170282960206F6E20616E204A
:101C400060457272602076616C7565006D010008F8
:101C50000100000001000000071200087372632FEA
:101C60006D61696E2E7273005C1C00080B00000031
:101C70003A00000005000000FC60DAF266B6BEE043
:101C8000FEF6EE3E9C7A9E8E010000005C1C000871
:101C90000B00000051000000220000005C1C000846
:101CA0000B00000051000000190000005C1C00083F
:101CB0000B000000600000000D0000005C1C00082C
:101CC0000B0000005E0000000D00000063616C6C02
:101CD000656420604F7074696F6E3A3A756E777202
:101CE0006170282960206F6E206120604E6F6E65E4
:101CF000602076616C7565005C1C00080B000000BC
:101D0000130000000E0000005C1C00080B00000027
:101D1000110000000E00000063616C6C65642060BF
:101D2000526573756C743A3A756E777261702829D2
:101D300060206F6E20616E20604572726020766157
:101D40006C7565003105000801000000010000000D
:101D5000071200087372632F6B6579732E7273001C
:101D6000541D00080B0000002800000011000000B6
:101D7000541D00080B0000002C00000011000000A2
:101D8000541D00080B00000030000000110000008E
:101D9000541D00080B00000034000000110000007A
:101DA00063616C6C65642060526573756C743A3A5B
:101DB000756E77726170282960206F6E20616E20C9
:101DC00060457272602076616C756500E5070008F9
:101DD0000100000001000000071200087372632F69
:101DE000736567656D656E74732E7273DC1D000814
:101DF000100000003C0000000D000000DC1D000889
:101E00001000000057000000090000000102030458
:101E1000050607002F686F6D652F7369642F2E63A9
:101E20006172676F2F72656769737472792F73724D
:101E3000632F6769746875622E636F6D2D316563FA
:101E4000633632393964623965633832332F7374DB
:101E50006D3332663178782D68616C2D302E3130DB
:101E60002E302F7372632F7263632E727300000023
:101E7000141E0008590000002B0200000D00000095
:101E8000617474656D707420746F20646976696420
:101E900065206279207A65726F000000141E0008C8
:101EA000590000004502000013000000141E000845
:101EB000590000006102000020000000141E00080C
:101EC000590000006A02000013000000141E000800
:101ED0005900000080020000130000006173736568
:101EE0007274696F6E206661696C65643A207379FB
:101EF00073636C6B203C3D2037325F3030305F3095
:101F000030302026262068636C6B203C3D20373221
:101F10005F3030305F3030302026262070636C6BAD
:101F200031203C3D2033365F3030305F3030302060
:101F300026265C6E202020202020202070636C6BE1
:101F400032203C3D2037325F3030305F303030203F
:101F5000262620616463636C6B203C3D2031345F36
:101F60003030305F30303000141E0008590000005F
:101F7000BD0200000900000057726F6E6741757462
:101F80006F52656C6F616444697361626C65640073
:101F9000696E646578206F7574206F6620626F7556
:101FA0006E64733A20746865206C656E20697320D6
:101FB000206275742074686520696E646578206994
:101FC00073200000901F000820000000B01F0008D0
:101FD0001200000041120008000000000100000093
:101FE000431200083A200000901F00080000000083
:101FF000E41F00080200000030303031303230334E
:1020000030343035303630373038303931303131A6
:10201000313231333134313531363137313831398C
:102020003230323132323233323432353236323784
:10203000323832393330333133323333333433356A
:102040003336333733383339343034313432343350
:102050003434343534363437343834393530353136
:10206000353235333534353535363537353835391C
:102070003630363136323633363436353636363714
:1020800036383639373037313732373337343735FA
:1020900037363737373837393830383138323833E0
:1020A00038343835383638373838383939303931C6
:1020B00039323933393439353936393739383939AC
:0400000508000131BD
:00000001FF
