:020000040800F2
:1000000000500020310100089D120008731C0008F8
:100010009D1200089D1200089D12000800000000BB
:100020000000000000000000000000009D12000819
:100030009D120008000000009D1200089D1200089B
:100040009D1200089D1200089D1200089D120008D4
:100050009D1200089D1200089D1200089D120008C4
:100060009D1200089D1200089D1200089D120008B4
:100070009D1200089D1200089D1200089D120008A4
:100080009D1200089D1200089D1200089D12000894
:100090009D1200089D1200089D1200089D12000884
:1000A0009D1200089D1200089D1200089D12000874
:1000B0009D1200089D1200089D1200089D12000864
:1000C0009D1200089D1200089D1200089D12000854
:1000D0009D1200089D1200089D1200089D12000844
:1000E0009D1200089D120008000000009D120008EB
:1000F0009D1200089D1200089D1200089D12000824
:100100009D1200089D1200089D1200089D12000813
:100110009D1200089D1200089D1200089D12000803
:100120009D1200089D1200089D1200089D120008F3
:1001300001F0B5F8084809490022814201D004C005
:10014000FBE707480749084A814202D008CA08C0AD
:10015000FAE700F00CF800DE0000002004000020A8
:10016000000000200000002050210008704780B5EA
:100170006F4600F001F8FEDE80B56F468EB001F0EC
:1001800093F8044601F08CF804F0010501F08FF8B3
:1001900040F20100C2F200000478002C04BF0121EB
:1001A0000170002D08BF01F07DF8002C41D101F055
:1001B0007BF8044601F074F804F0010501F077F8CB
:1001C00040F20000C2F200000478002C04BF0121BC
:1001D0000170002D08BF01F065F8B4BB00F08DF987
:1001E00007F82D1C4DF68361C4F21B310390A0FB70
:1001F0000101880C4FF0FF3100EBC00001EBC000A3
:100200000021B1EB106F2CD0012004AA8DF8100052
:1002100041F6D840C0F60000009041F69040C0F68C
:10022000000041F6BC432B21C0F6000301F097F813
:10023000FEDE41F65C5041F69852C0F60000C0F672
:1002400000022B2101F054F8FEDE41F65C5041F62D
:100250008852C0F60000C0F600022B2101F048F8D9
:10026000FEDE4EF2100BCEF2000BCBF80400CBF802
:100270000810DBF8000040F00100CBF80000DBF8CC
:100280000000C0F300400138800715D0DBF8000003
:10029000C0F30040013880071FBFDBF80000C0F347
:1002A000004001385FEA807006D0DBF80000C0F340
:1002B000004001388007E2D100200221CDE90A0088
:1002C0000222CDE908000223CDE906004FF0010823
:1002D000CDE904000DA80191012100F0E8F84FF0EC
:1002E000000A00260CE088F001080DA808F00101C2
:1002F0000222022300F0DBF8B9F1070F00F2A98017
:1003000004A850F82600122880F09B8041F6E841AE
:1003100003ACC0F600010DAD095C2246284600F092
:10032000F3FA2846514600F093FC2846214600F097
:10033000CEFC504606F10109062E88BF4FF0000999
:1003400000F0DBFA0546A7F12D00214600F07CF90C
:10035000C2B2042A10D103984DF68361C4F21B3156
:10036000A0FB0101880C4FF4FA61484300210138D9
:10037000B0F1807F38D385E00198DFE802F0020E0B
:10038000131F08286ED204AB53F82020511C0F2AEB
:1003900088BF002143F8201015E0411C062888BFC3
:1003A00000210FE0082865D204AB53F82020511E2D
:1003B000002A08BF102143F8201004E0411E002845
:1003C00008BF0721084601904DF683610398C4F2E7
:1003D0001B31A0FB0101880C40F29E7148430021B3
:1003E0000138B1EB106F55D1CBF804005FFA85FAF4
:1003F000CBF808104E46DBF8000040F00100CBF8C7
:100400000000DBF80000C0F30040013880073FF433
:100410006AAFDBF80000C0F30040013880071FBF5F
:10042000DBF80000C0F3004001385FEA80703FF461
:100430005AAFDBF80000C0F3004001388007E0D17C
:1004400051E741F60C521221C0F6000200F067FF9E
:10045000FEDE41F6FC423046C0F60002082100F004
:100460005EFFFEDE41F63C52C0F60002082100F0BD
:1004700056FFFEDE41F62C52C0F60002082100F0C5
:100480004EFFFEDE012007F8050C41F61C50C0F6B9
:10049000000006E0012007F8050C41F64C50C0F6BC
:1004A0000000009041F690407A1FB8E6FEE741F266
:1004B000100CC8B2D1B2C4F2010C022806D0C00799
:1004C0004FF4000008BF8020CCF80000DAB2022907
:1004D00007D0C8074FF0807008BF4FF48070CCF889
:1004E0000000022A08BF7047D0074FF0007008BF15
:1004F0004FF40070CCF800007047F0B503AF2DE961
:10050000000BA2B000F080FE00F089FE00F092FE29
:1005100000F065FE0DF144088DF84400404600F0FF
:1005200094FE40F600004FF40021C4F201004FF0A9
:100530008065C0F810140321D0F8002461F30F3255
:10054000C0F800241022C0F81024D0F8003461F361
:100550001343C0F800344FF40013C0F81034D0F83F
:10056000003461F31753C0F8003441F20403C4F2BD
:100570000103DD601D6861F30B251D604FF0006510
:10058000DD601D6861F30F351D604FF08055DD6043
:100590001D6861F313451D604FF40005DD60D0F860
:1005A000005861F31F75C0F800584FF08075DD608A
:1005B0001D6861F303051D604FF00075DD601D6867
:1005C00061F307151D6002610822016862F313419F
:1005D000016020210161016862F31751016040212F
:1005E0000161016862F31B610160802101610168A2
:1005F00062F31F71016000F0FEFD0DF10409484631
:1006000000F0FAFDB9E87E0040467EC099E87E0021
:100610007EC00DA8414600F0B9FC0DAB0DF1740C85
:1006200011AC0FCB8CE80F001DA921AA204600F0C9
:10063000A3FB204600F015FE00F012FE042122B0BC
:10064000BDE8000BF0BD704780B56F4682B0027800
:10065000042A3ED140F60802C4F201021368DB0608
:1006600042D409684DF68362C4F21B320023A1FB19
:100670000212910C322251434A1EB3EB126F40F02A
:100680000B814EF21001CEF200014A608B600A68C5
:1006900042F001020A600A68C2F30042013A92077E
:1006A00000F0AF800A68C2F30042013A92070BD013
:1006B0000A68C2F30042013A920705D00A68C2F301
:1006C0000042013A9207E6D100210170084602B0CB
:1006D00080BDDFE802F0024A435140F60801C4F24F
:1006E00001010968C9064DE013689B0651D40968E9
:1006F0004DF68362C4F21B320023A1FB0212910C5F
:10070000322251434A1EB3EB126F40F0CE804EF2BC
:100710001001CEF200014A608B600A6842F00102CB
:100720000A600A68C2F30042013A920711D00A68CF
:10073000C2F30042013A92070BD00A68C2F30042AA
:10074000013A920705D00A68C2F30042013A9207C3
:10075000E7D101210170084602B080BD40F60801D2
:10076000C4F20101096849060CE040F60801C4F230
:1007700001010968890605E040F60801C4F201019B
:10078000096809064FF0040148BF0170084602B02D
:1007900080BD13685B0639D409684DF68362C4F2E4
:1007A0001B320023A1FB0212910C3222514301396A
:1007B000B3EB116F40F082804EF21002CEF20002D5
:1007C00051609360116841F0010111601168C1F33B
:1007D00000410139890750D01168C1F30041013946
:1007E00089074AD01168C1F300410139890744D013
:1007F0001168C1F30041013989074FF00201E5D1C9
:1008000000E000210170084602B080BD12681206A7
:1008100038D409684DF68362C4F21B320023A1FB71
:100820000212910C322251430139B3EB116F4ED1B8
:100830004EF21002CEF2000251609360116841F056
:10084000010111601168C1F30041013989071ED00F
:100850001168C1F300410139890718D01168C1F34B
:1008600000410139890712D01168C1F300410139F3
:1008700089074FF00301E5D1C4E702210170084662
:1008800002B080BD04210170084602B080BD032182
:100890000170084602B080BD012001AA8DF8040055
:1008A00041F6F050C0F6000019E00120FA1E07F8EA
:1008B000030C41F60060C0F6000010E00120BA1EF3
:1008C00007F8020C41F61060C0F6000007E00120B6
:1008D0007A1E07F8010C41F62060C0F60000009077
:1008E00041F6A850C0F6000041F6D4532B21C0F6C3
:1008F000000300F034FDFEDE704741F69C6140B21B
:10090000C0F60001085C704780B56F4682B0C8072A
:100910004FF0080340F6104008BF4FF40023C4F224
:10092000010003604FF4001303604DF68363126807
:10093000C4F21B33A2FB03239A0C002302EB8202B6
:10094000A2F1010EB3EB1E6F40F06D815FFA81FCE6
:100950004EF21001CEF20001C1F804E08B600B688A
:1009600043F001030B600B68C3F30043013B9B079B
:1009700012D00B68C3F30043013B9B071FBF0B68FA
:10098000C3F30043013B5FEA837305D00B68C3F3F5
:100990000043013B9B07E6D1202303605FEA8C7391
:1009A0004FF0080358BF4FF4002303604FF40013C7
:1009B00003600023C1F804E08B600B6843F001037F
:1009C0000B600B68C3F30043013B9B0712D00B681D
:1009D000C3F30043013B9B071FBF0B68C3F30043F6
:1009E000013B5FEA837305D00B68C3F30043013B0F
:1009F0009B07E6D1202303605FEA4C734FF00803A6
:100A000058BF4FF4002303604FF40013036000232A
:100A1000C1F804E08B600B6843F001030B600B68C6
:100A2000C3F30043013B9B0712D00B68C3F30043A1
:100A3000013B9B071FBF0B68C3F30043013B5FEA09
:100A4000837305D00B68C3F30043013B9B07E6D1DA
:100A5000202303605FEA0C734FF0080358BF4FF484
:100A6000002303604FF4001303600023C1F804E087
:100A70008B600B6843F001030B600B68C3F300430A
:100A8000013B9B0712D00B68C3F30043013B9B075C
:100A90001FBF0B68C3F30043013B5FEA837305D0BC
:100AA0000B68C3F30043013B9B07E6D1202303609F
:100AB0005FEACC634FF0080358BF4FF40023036094
:100AC0004FF4001303600023C1F804E08B600B684F
:100AD00043F001030B600B68C3F30043013B9B072A
:100AE00012D00B68C3F30043013B9B071FBF0B6889
:100AF000C3F30043013B5FEA837305D00B68C3F384
:100B00000043013B9B07E6D1202303605FEA8C632F
:100B10004FF0080358BF4FF4002303604FF4001355
:100B200003600023C1F804E08B600B6843F001030D
:100B30000B600B68C3F30043013B9B0712D00B68AB
:100B4000C3F30043013B9B071FBF0B68C3F3004384
:100B5000013B5FEA837305D00B68C3F30043013B9D
:100B60009B07E6D1202303605FEA4C634FF0080344
:100B700058BF4FF4002303604FF4001303600023B9
:100B8000C1F804E08B600B6843F001030B600B6855
:100B9000C3F30043013B9B0712D00B68C3F3004330
:100BA000013B9B071FBF0B68C3F30043013B5FEA98
:100BB000837305D00B68C3F30043013B9B07E6D169
:100BC0002023082203604FFA8CF3B3F1FF3FC8BF24
:100BD0004FF4002202604FF4001202600022C1F8BC
:100BE00004E08A600A6842F001020A600A68C2F3FF
:100BF0000042013A920712D00A68C2F30042013A59
:100C000092071FBF0A68C2F30042013A5FEA82728C
:100C100005D00A68C2F30042013A9207E6D12021CA
:100C2000016002B080BD012041F65C6307F8010C51
:100C300041F67C60C0F600007A1E009041F63060FC
:100C4000C0F60000C0F600032B2100F088FBFEDE9A
:100C5000D0B502AFC8B24FF4805E4FF000614FF0E4
:100C600080624FF4006C4FF48063DFE800F004070B
:100C70000C1027151A214FF0006C06E04FF0006CA5
:100C80004FF4806303E04FF4006C4FF080634FF04B
:100C9000805E1A46614611E04FF4805E4FF00061BD
:100CA0000AE04FF4805E4FF400614FF0806205E08F
:100CB0004FF4805E4FF400614FF4806241F2100007
:100CC000C4F2010002600160C0F800E0D0BD80B550
:100CD0006F4682B040F610401022C4F2010000239B
:100CE00002604DF683620968C4F21B32A1FB021256
:100CF000910C01EB81014A1EB3EB126F27D14EF22A
:100D00001001CEF200014A608B600A6842F00102D5
:100D10000A600A68C2F30042013A920712D00A68D8
:100D2000C2F30042013A92071FBF0A68C2F30042B1
:100D3000013A5FEA827205D00A68C2F30042013AC2
:100D40009207E6D14FF48011016002B080BD01200E
:100D500041F65C6307F8010C41F68C60C0F60000B8
:100D60007A1E009041F63060C0F60000C0F6000325
:100D70002B2100F0F4FAFEDEF0B503AF2DE9000FF1
:100D800085B00B7A93B1D1E900A640F60015C0F208
:100D90003D05BAF1010C18BF4FF0010CBAF1010F7B
:100DA00008BF35464E7A02366E4310E00A68012AC3
:100DB00005D14E684FF0000C4FF0010A07E041F2F8
:100DC00000264FF0010CC0F27A064FF0000A8C7A30
:100DD0004AF2002BCA7A192503920B2C0A7B4FF09A
:100DE00000090292C0F24A4B8A7B01922246049487
:100DF00088BF1A25009383B1BCF1000F0DD1A6F175
:100E00003773A6EB0B04A3F5D843B4FA84F4B3FA12
:100E100083F364095B0944EA03090BF101039E4271
:100E20003FBF049A154405F01F0526FA05F538BFA3
:100E30009D4221D2039A45F20014C0F22524531D8D
:100E400003F0070325FA03FCA44515D8029A541DA4
:100E500004F0070E25FA0EF8D8459FBF0224019A28
:100E600004EB4204E4B29FBFB8FBF4F449F681728C
:100E7000C0F2D50294420BD341F66C7041F6F87281
:100E8000C0F60000C0F600028B2100F031FAFEDE51
:100E90000122C0E9005C02FA0EF59A4080F8169033
:100EA000C0E9028604614575027543F20160C0F233
:100EB0006E10864208D3009B46F60040C0F2DC204C
:100EC000864204D2312006E03020009B03E04FF040
:100ED000320008BF312042F20002BAF1000FC4F222
:100EE0000202106041F20000C4F2020010D0026859
:100EF00042F4803202600268920309D402689203CD
:100F00005CBF02685FEA823202D402689203F2D5C3
:100F100003B34268BAF1000F22F4741218BF02F54D
:100F200080324B7A03F00F0342EA83424260026848
:100F300042F080720260026892015FBF02685FEA5D
:100F4000821202685FEA821202D402689201F2D52C
:100F50004FF0020A497B0C22CFF6BF72002918BF5E
:100F60000AF5800A41681140019A41EA8231029AE9
:100F700041EAC221039A41EA0221049A41EA02119C
:100F80005144416005B0BDE8000FF0BDF0B503AFBE
:100F90002DE90007D1E900AC40F600130A6AC0F25F
:100FA0003D03BAF1010F08BF6346012A17D1002B98
:100FB00000F0EE804D6AB5FBF3F6721E0FD01024E0
:100FC000AB4288BF0124102A38BF34466343A4F1E2
:100FD00002084FF0010E8A68012A0DD014E041F298
:100FE0000023BAF1000FC0F27A034FF0000E18BFD1
:100FF00063468A68012A07D1CA68002A00F0D180B6
:10100000B3FBF2F4022C34D24FF0070909F11904B2
:1010100004F01F0223FA02F60A69012A01D14A6983
:1010200006E045F200143246C0F22524A64203D25F
:10103000002A144600F0A3803219013AB2FBF4F4FE
:10104000032C0ED24FF6F872C0F2FF0202EAC4027D
:1010500040F20334C0F20404D4408A69012A1CD14E
:1010600013E0E21E032A08D205248A69012A0CD063
:1010700013E04DD14FF00809C8E7A21F0724062A44
:1010800038BF06248A69012A07D1CA69002A00F0FC
:101090009180B6FBF2F2022A13D203258A6A012A52
:1010A00014D1C96A002900F08E8005F11D0202F0FA
:1010B0001F0226FA02F2B2FBF1F2032A24D2002127
:1010C00005E02AD104258A6A012AEAD00321817326
:1010D0004AF20021C0F24A418EF00102591A8AF008
:1010E0000103057342EA0302C47280F80A9080F893
:1010F000098080F808E0C0E900AC18BF0121114365
:101100004173BDE80007F0BD052A0DD20121DEE7DD
:10111000062C0ED24FF0090978E7062A0ED20525D3
:101120008A6A012ABDD0D1E70321082A38BF0221EB
:10113000CDE70C2C0AD24FF00A0967E707250C2AE5
:1011400038BF06258A6A012AC0D1AAE7282C02D214
:101150004FF00B095AE7602C02D24FF00C090BE05C
:10116000C02C02D24FF00D0906E04FF00F09B4F584
:10117000C07F38BF4FF00E0909F11A0448E741F665
:10118000107041F63C72C0F60000C0F6000222E08A
:1011900041F6107041F60072C0F60000C0F6000281
:1011A00019E041F6107041F62C72C0F60000C0F64E
:1011B000000210E041F6107041F64C72C0F60000DB
:1011C000C0F6000207E041F6107041F65C72C0F60E
:1011D0000000C0F60002192100F08AF8FEDE40F29D
:1011E00080100121C4F24220C0F88011016000216A
:1011F00001600120704770470021816201628161B6
:10120000016181600160704740F288100121C4F2E1
:101210004220C0F88011016000210160704740F257
:101220008C100121C4F24220C0F88011016000211D
:101230000160704740F290100121C4F24220C0F8D2
:1012400080110160002101607047002102220170BD
:101250000420C4F20100016862F31A610160704762
:1012600070474EF21001CEF200010A6842F004020B
:101270000A600068704700780A4638B142F20801F7
:101280001046C0F600010F2200F01FBB42F217010A
:101290001046C0F60001082200F017BBFEE77047B9
:1012A00072B6704762B67047EFF3108070477047B0
:1012B00070474FF29B4048F6F471C6F22C40C1F6DD
:1012C000D531704780B56F4686B0CDE9030142F253
:1012D0006400C0F600000122029042F22000C0F635
:1012E00000008DF81420019001A8FFF7DFF8FEDE62
:1012F00080B56F4688B0944642F22002C0F60002E4
:101300000023CDE90601684604920122614601925C
:1013100006AA059302930092FFF7D4FFFEDE80B584
:101320006F468CB0CDE9000108A90220069100218A
:101330000790CDE9030142F25400C0F6000069466F
:10134000029041F65F30C0F60000CDE90901114678
:101350000B9001A8089002A8FFF7B4FFFEDE80B54D
:101360006F468EB08DE80F000AA902200891002177
:10137000CDE90501099042F27800C0F60000B96895
:10138000049041F65D40C0F600000D9002A80C905C
:1013900041F66740C0F600000B9068460A9004A82A
:1013A000FFF790FFFEDEF0B503AF2DE9000F87B029
:1013B000D7F80C909B4694460646E9B1346814F081
:1013C000010000EB090A4FF02B0008BF4FF4881012
:1013D00006906007D7F8088017D5BBF1100F45D2EB
:1013E000BBF1000F66D0ABF101000BF00301032845
:1013F00062D2002062467DE0346809F1010A2D20A6
:1014000006906007D7F80880E7D44FF0000CB0686A
:10141000002800F08B80CDF814B0D6F80CB0D3457E
:1014200015D92007CDF8108027D496F82000ABEB13
:101430000A01E346032808BF0120820700F09B80D1
:10144000012840F09A804FF0000A084699E005987C
:101450006346D6E9064500902946069A204600F0E4
:10146000E0F800286ED04FF001081EE060465946B3
:10147000654600F030FAAC4653E030207468706086
:101480004FF0010896F820006346CDF80C900290CA
:101490000598D6E9069586F8208029460090069A98
:1014A000484600F0BEF8002856D0404607B0BDE8D8
:1014B000000FF0BD002034E02BF003030020624653
:1014C00012F9045B15F1410FC8BF013012F9035C3A
:1014D00015F1410FC8BF013012F9025C15F1410F3F
:1014E000C8BF013012F9015C15F1410FC8BF0130CE
:1014F000043BE5D1A9B192F9003013F1410FC8BF07
:10150000013001290DD092F9013013F1410FC8BF0C
:101510000130022905D092F9021011F1410FC8BF24
:1015200001308244B06800287FF475AFD6E90645E3
:101530006346CDF800B02946069A204600F071F8BF
:1015400000284FD1EB68204641464A4607B0BDE827
:10155000000FBDE8F04018470694ABEB0A00DDF839
:101560001080441C013C37D02A69484630219047FE
:101570000028F7D036E08A4603E0480801314FEAF8
:10158000510A7568441CD6E90686013C06D03269CA
:101590004046294690470028F7D023E0B5F5881F3C
:1015A00020D00598314600904046069A5B4600F0F0
:1015B00038F8B8B9F368404604994A46984788B95C
:1015C0000024A24521D03269404629469047013483
:1015D0000028F6D0601E19E0EB684846039A4146A1
:1015E000984730B14FF00108404607B0BDE8000F02
:1015F000F0BD02984FF0000886F820000698706051
:10160000404607B0BDE8000FF0BD50464FF000085F
:10161000504538BF4FF00108404607B0BDE8000F05
:10162000F0BDF0B503AF4DF8048DD7F808801C4627
:101630000D460646B2F5881F08D02B693046114684
:10164000984718B101205DF8048BF0BD44B1EB68F8
:101650003046214642465DF8048BBDE8F04018470D
:1016600000205DF8048BF0BDF0B503AF2DE9000F4D
:1016700081B08846D0F808C001698146BCF1010FED
:1016800018BF01290AD1012977D1D9F8140008EB34
:10169000020E4FF0000B4146461C0CE0D9E9060152
:1016A000D2E040EA8115A11CABEB0400B5F5881F20
:1016B00000EB010B61D0013E0C4628D074455CD094
:1016C000214611F9010BB0F1FF3FC5B2ECDC6078A7
:1016D00005F01F01DF2D00F03F00E2D9A378F02DC7
:1016E00003F03F0343EA80100DD3E37801F00701D4
:1016F00003F03F0343EA801040EA8145B5F5881FB7
:101700003BD0211DD0E740EA0135E11CCCE7744510
:1017100033D094F90000B0F1FF3F04DCC1B2E029FE
:1017200028BFF02915D2BBF1000F09D0934506D28E
:1017300018F90B0010F1400F02DA002101E0FCD192
:10174000414600290CBF93468846BCF1000F18D1D2
:1017500075E0A37801F00701607803F03F03E678B5
:1017600000F03F009B0143EA003006F03F031844BD
:1017700040EA8140B0F5881FD5D19346BCF1000FF7
:101780005DD0D9F80C40BBF1100F0BD2BBF1000FAC
:101790000DD0ABF101000BF00301032809D20020AA
:1017A000424624E04046594600F095F836E00020D5
:1017B00034E02BF003030020424612F9046B16F1CB
:1017C000410FC8BF013012F9036C16F1410FC8BFB9
:1017D000013012F9026C16F1410FC8BF013012F945
:1017E000016C16F1410FC8BF0130043BE5D1A9B12E
:1017F00092F9003013F1410FC8BF013001290DD01B
:1018000092F9013013F1410FC8BF0130022905D010
:1018100092F9021011F1410FC8BF013084420ED974
:1018200099F82020201A4646D11E18BF11468A0773
:1018300015D0012910D100210091014610E0D9F8FE
:101840001C105A46D9F81800CB68414601B0BDE8D3
:10185000000FBDE8F04018474108013040080090F3
:10186000D9F8044001F1010AD9E90685BAF1010A63
:1018700006D02A694046214690470028F6D008E065
:10188000B4F5881F05D0EB68404631465A46984764
:1018900020B1012001B0BDE8000FF0BDDDF80090DF
:1018A0000026B14508D02A694046214690470136B6
:1018B0000028F6D0711E00E049460020494538BF97
:1018C000012001B0BDE8000FF0BDD0E90630D0F82E
:1018D0000CC018466047F0B503AF2DE9000F024673
:1018E000033020F00300831A8B4298BF042B0BD9DE
:1018F00031B1481E01F00303032810D200202BE071
:101900000020BDE8000FF0BDA1EB030EBEF1040FF7
:10191000EED30EF0030C904238D1002074E021F099
:101920000301002012F9046B16F1410FC8BF01300A
:1019300012F9036C16F1410FC8BF013012F9026CA5
:1019400016F1410FC8BF013012F9016C16F1410FB9
:10195000C8BF01300439E5D1ABB192F9001011F1E3
:10196000410FC8BF0130012B0DD092F9011011F1C8
:10197000410FC8BF0130022B05D092F9021011F1BE
:10198000410FC8BF0130BDE8000FF0BDD14308448E
:1019900003F00301032802D2002014461DE023F0C7
:1019A00003050020144614F9046B16F1410FC8BF5B
:1019B000013014F9036C16F1410FC8BF013014F95E
:1019C000026C16F1410FC8BF013014F9016C16F119
:1019D000410FC8BF0130043DE5D1A9B194F90050D1
:1019E00015F1410FC8BF013001290DD094F9015004
:1019F00015F1410FC8BF0130022905D094F902103A
:101A000011F1410FC8BF013013444FEA9E08002175
:101A1000BCF1000F1AD02EF003021A4492F90060B4
:101A200016F1410FC8BF0121BCF1010F0ED092F990
:101A3000016016F1410FC8BF0131BCF1020F05D0A2
:101A400092F9022012F1410FC8BF013108444FF052
:101A5000FF1C0FE00CEA1B222BF0FF242244A8EB12
:101A600009080EEB890319F0030102EB024200EBB7
:101A700012403ED1B8F1000F3FF485AFB8F1C00F6E
:101A8000C14628BF4FF0C00919F0FC029E464FF036
:101A9000000B03EB820ADDD07346002B1FBFD3E996
:101AA0000065D3E90212F443E4091FBF44EA961427
:101AB00024F0FE345C44EE431FBFF60946EA951558
:101AC00025F0FE352C441FBFCD43ED0945EA9111A9
:101AD00021F0FE311FBF2144D443E40944EA9212AD
:101AE0001FBF22F0FE3202EB010B10335345D4D15D
:101AF000B0E7BEF1000F22D0DAF8002001296FEA2A
:101B000002034FEAD31343EA921222F0FE3317D0B6
:101B1000DAF8042002296FEA02064FEAD61646EAEE
:101B2000921222F0FE3213440AD0DAF80810CA43A7
:101B3000D20942EA911121F0FE310B4400E000236A
:101B4000FF2123F0FF22C0F2070101EA1321114413
:101B500001EB014100EB1140BDE8000FF0BDF0B515
:101B600003AF2DE9000F8DB0046842F2880842F2FD
:101B700010700E468442C0F6000841D341F25979F4
:101B80004EF2FF0E0021CDF2B71941F27B4A4FF021
:101B9000640BC0F2F55E0296A7F14302744502EBB6
:101BA0000105A4FB0926A1F104014FEA563202FB0C
:101BB000104614461FFA86FC4FEA9C0303FB0AF307
:101BC0004FEA534338F81300A5F8230003FB1B60CA
:101BD00080B238F81000A5F8250042F21070DBD86A
:101BE000029E01F127031446632C0CD821460A29D2
:101BF0001BD338F81110981EA7F14302115219E0B7
:101C00002723632CF2D9A0B241F27B418008023B2A
:101C10004843A7F14302410C642001FB104080B20D
:101C200038F81000D0520A29E3D2581EA7F1430217
:101C300030311154C0F12701A7F14302104442F2A0
:101C40002002CDE90001C0F6000230460121002348
:101C5000FFF7A9FB0DB0BDE8000FF0BDD0E90020F3
:101C6000C368104618470B46D0E900121846FFF724
:101C7000FBBC70460421084203D1EFF3088000F05A
:0C1C800004B8EFF3098000F000B8FEE7A4
:101C900063616C6C65642060526573756C743A3A6C
:101CA000756E77726170282960206F6E20616E20DA
:101CB00060457272602076616C7565006D01000888
:101CC0000100000001000000771200087372632F0A
:101CD0006D61696E2E727300CC1C00080B00000051
:101CE0001E00000005000000FC60DAF266B6BEE0EF
:101CF000FEF6EE3E9C7A9E8E01000000CC1C000891
:101D00000B0000003100000021000000CC1C000886
:101D10000B0000003100000018000000CC1C00087F
:101D20000B0000004E0000000D000000CC1C00085D
:101D30000B0000004300000024000000CC1C000841
:101D40000B0000003A00000024000000CC1C00083A
:101D50000B0000004C0000000D00000063616C6C83
:101D6000656420604F7074696F6E3A3A756E777271
:101D70006170282960206F6E206120604E6F6E6553
:101D8000602076616C756500CC1C00080B000000BB
:101D9000140000000E000000CC1C00080B00000026
:101DA000120000000E00000063616C6C656420602E
:101DB000526573756C743A3A756E77726170282942
:101DC00060206F6E20616E206045727260207661C7
:101DD0006C75650047060008010000000100000066
:101DE000771200087372632F6B6579732E7273001C
:101DF000E41D00080B000000290000001100000095
:101E0000E41D00080B0000002D0000001100000080
:101E1000E41D00080B00000031000000110000006C
:101E2000E41D00080B000000350000001100000058
:101E300063616C6C65642060526573756C743A3ACA
:101E4000756E77726170282960206F6E20616E2038
:101E500060457272602076616C756500F908000853
:101E60000100000001000000771200087372632F68
:101E7000736567656D656E74732E72736C1E0008F2
:101E8000100000003B0000000D0000006C1E000868
:101E900010000000560000000900000001020304C9
:101EA000050607002F686F6D652F7369642F2E6319
:101EB0006172676F2F72656769737472792F7372BD
:101EC000632F6769746875622E636F6D2D3165636A
:101ED000633632393964623965633832332F73744B
:101EE0006D3332663178782D68616C2D302E31304B
:101EF0002E302F7372632F7263632E727300000093
:101F0000A41E0008590000002B0200000D00000074
:101F1000617474656D707420746F2064697669648F
:101F200065206279207A65726F000000A41E0008A7
:101F3000590000004502000013000000A41E000824
:101F4000590000006102000020000000A41E0008EB
:101F5000590000006A02000013000000A41E0008DF
:101F600059000000800200001300000061737365D7
:101F70007274696F6E206661696C65643A2073796A
:101F800073636C6B203C3D2037325F3030305F3004
:101F900030302026262068636C6B203C3D20373291
:101FA0005F3030305F3030302026262070636C6B1D
:101FB00031203C3D2033365F3030305F30303020D0
:101FC00026265C6E202020202020202070636C6B51
:101FD00032203C3D2037325F3030305F30303020AF
:101FE000262620616463636C6B203C3D2031345FA6
:101FF0003030305F30303000A41E0008590000003F
:10200000BD0200000900000057726F6E67417574D1
:102010006F52656C6F616444697361626C656400E2
:10202000696E646578206F7574206F6620626F75C5
:102030006E64733A20746865206C656E2069732045
:10204000206275742074686520696E646578206903
:10205000732000002020000820000000402000081D
:1020600012000000B1120008000000000100000092
:10207000B31200083A2000002020000800000000F1
:10208000742000080200000030303031303230332C
:102090003034303530363037303830393130313116
:1020A00031323133313431353136313731383139FC
:1020B00032303231323232333234323532363237F4
:1020C00032383239333033313332333333343335DA
:1020D00033363337333833393430343134323433C0
:1020E00034343435343634373438343935303531A6
:1020F000353235333534353535363537353835398C
:102100003630363136323633363436353636363783
:102110003638363937303731373237333734373569
:10212000373637373738373938303831383238334F
:102130003834383538363837383838393930393135
:10214000393239333934393539363937393839391B
:0400000508000131BD
:00000001FF
