:020000040800F2
:1000000000500020ED000008FF2B000827430008E7
:10001000FF2B0008FF2B0008FF2B0008000000004A
:10002000000000000000000000000000FF2B00089E
:10003000FF2B000800000000FF2B0008FF2B00082A
:10004000FF2B0008FF2B0008FF2B0008FF2B0008E8
:10005000FF2B0008FF2B0008FF2B0008FF2B0008D8
:10006000FF2B0008FF2B0008FF2B00088F2A000839
:10007000652A0008AB2A0008732A0008812A0008B4
:100080009D2A0008B92A0008FF2B0008FF2B000852
:10009000FF2B0008FF2B0008FF2B0008FF2B000898
:1000A000FF2B0008FF2B0008FF2B0008FF2B000888
:1000B0008D270008FF2B0008FF2B0008FF2B0008EE
:1000C000FF2B0008FF2B0008FF2B0008FF2B000868
:1000D000FF2B000813100008FF2B0008FF2B00085F
:0C00E000FF2B0008FF2B0008FF2B00087E
:1000EC0002F088FD084809490022814201D004C071
:1000FC00FBE707480749084A814202D008CA08C0F2
:10010C00FAE700F087FF00DE7000002018020020E4
:10011C00000000207000002090500008D0B502AF05
:10012C00044601F061FE01F06FFE01F041FE8168B2
:10013C0041F00101816001F020FD806988B348F233
:10014C008041C0F21E01B1FBF0F0411C204603F0CF
:10015C0098F801F02DFE816841F00801816001F0F2
:10016C0027FE80680007FAD401F022FE816841F076
:10017C000401816001F01CFE80684007FAD401F094
:10018C00FCFC8069B0B144F24021C0F20F01B1FB1C
:10019C00F0F0411C204603F074F8BDE8D04001F0AB
:1001AC00C7BD44F2604044F24C42C0F60000C0F6B9
:1001BC00000207E044F2604044F27C42C0F60000CA
:1001CC00C0F60002192103F03FFAFEDED0B502AFF3
:1001DC00007801F0ACFD00F0070401F0E9FDC16806
:1001EC0021F4600141EA4451C16001F0E1FD416834
:1001FC0021F41061416001F0DBFDC16A21F4700152
:10020C00C16201F0D5FD81684FF6FD72CFF6A17287
:10021C00114001F5F011816001F0CAFD112141631B
:10022C0001F0C6FD816841F4800141F0010181605B
:10023C0001F0BEFD80684002FAD401F0B9FD0068FF
:10024C008007FAD501F0B4FDC06CD0BDF0B503AF9A
:10025C004DF8048D06460846884601F01DFE0546FD
:10026C00307801F064FD0646ECB201F0A1FD0A2CD9
:10027C0002D250F8101F05E00A3D50F80C1FEAB2EC
:10028C00082A43D205EB450306F007020726DBB22A
:10029C009A4006FA03F399431143016001F088FD7B
:1002AC00416821F41061416001F082FDC16A21F4C2
:1002BC007001C16201F07CFD81684FF6FD72CFF6D2
:1002CC00A172114001F5F011816001F071FD05463C
:1002DC00404601F0E1FD00F01F00686301F068FD8D
:1002EC00816841F4800141F00101816001F060FD01
:1002FC0080684002FAD401F05BFD00688007FAD5F3
:10030C0001F056FDC06C5DF8048BF0BD44F240303A
:10031C0044F2E032C0F60000C0F600021C2103F0EB
:10032C0093F9FEDEB0B502AF01F047FD044601F0D3
:10033C0049FD0546204602F016FC0068E16862693A
:10034C00C30718BF11F480730FD110F00E0F18BF34
:10035C0012F0010209D1C90616D510F0100013D005
:10036C006FF040006FF0100103E06FF041006FF48C
:10037C009871E2681140E16061690840606128464B
:10038C00BDE8B04002F07FBCB0BDF0B503AF4DF896
:10039C0004BD86B0044601F05BFD01F069FDD4E9B3
:1003AC000001CDE9020101F008FD05AC054620462F
:1003BC0001F074FD002002F015FC4168042262F388
:1003CC000B214160204601F069FD002002F00AFC7F
:1003DC0041680B2262F30711416001F0F8FC02A99D
:1003EC000246012628460123CDE9006602F06BFB8C
:1003FC00204601F0A1FC40F23131C0F60001016051
:10040C00204601F097FC02F05DFC82B201465009D7
:10041C00B2F5007F25D24EF2001401F01F01CEF28E
:10042C00000404EB800006FA01F1C0F8801105A865
:10043C0001F080FC02F046FC82B201465009B2F594
:10044C00007F13D201F01F01012202FA01F144F8DE
:10045C00201001F0B7FC9DF80F0006B05DF804BB4E
:10046C00F0BD44F20052C0F6000203E044F2F04248
:10047C00C0F60002102103F0FEF8FEDED0B502AF8C
:10048C0082B0044602F058FE27F80A0CA7F10A00C5
:10049C0002F0A0FF204602F055FE02B0D0BDD0B550
:1004AC0002AF82B0044602F060FB27F80A0CA7F1F9
:1004BC000A0002F08FFF204602F05DFB02B0D0BDB7
:1004CC0080B56F4682B0044602F0D7FD40F2181199
:1004DC00C2F2000151E8022F4AB90322BFF35F8F29
:1004EC0041E80223E3B151E8023F002BF8D0BFF3FF
:1004FC002F8FBFF35F8F00F0E1FD40F22500C0F2BB
:10050C00000002F066FF27F8060CB81F02F099FFF6
:10051C0001A8FFF7B3FF00F02DFE02F0D0FFFEDEC6
:10052C000022BFF35F8F81F8332040F2FD72C0F6DA
:10053C00000248624A6102F012FC204602F02EFCD6
:10054C0020BFFAE7B0B502AF05680C6801F03AFCC1
:10055C00214602F053FB284602F005FB04682846AE
:10056C0002F0FFFA00782146284602F0FDFA200737
:10057C0007D0E1070BD1A1070BD461070BD40028DE
:10058C000BD4E0064FF0050058BF0620B0BD032089
:10059C00B0BD0020B0BD0120B0BD0220B0BDF0B593
:1005AC0003AF2DE9000B0446007F884670B1032889
:1005BC0047D1207B88B1032825D044F2805044F2E7
:1005CC00C452C0F60000C0F6000242E004F1100272
:1005DC000020207307CA84E80700A568D4E90069E5
:1005EC00284601F05DFC01F0E8FB416941F0800117
:1005FC00416101F0E2FB02F0B4FA034628463146B1
:10060C004A4600F0C6FC2046414601F0ACFB2046B1
:10061C0001F0A2FB30B10620032121772173BDE844
:10062C00000BF0BD204601F08CFB204601F094FB42
:10063C000028FAD10520012121772173BDE8000B98
:10064C00F0BD44F2805044F2E452C0F60000C0F613
:10065C000002232102F0F8FFFEDEF0B503AF4DF8E7
:10066C00048D84B0044602F094FDCDE90001684687
:10067C00029004F1200594F86F0004F14006002864
:10068C0061D1D4E91823304601F03DF803A8FFF7F7
:10069C0045FD00211222C0B2A046C4E90821C4E9DC
:1006AC000A11C4E90C11C4E90E1108F86E0F01F01F
:1006BC007FFB816841F40001816040462946FFF7C9
:1006CC0085FD214621F86C0F41F8041C304600F0E2
:1006DC0076FF0078073838BF0020022827D104F1B4
:1006EC006E002946FFF7B2FDA16E0988E1B380B216
:1006FC004FF49662504342F2C50241F27B43B0FB89
:10070C00F1F080B2C10851434CF6CD42424380080F
:10071C005843090D616201EB8101D20C400C00EBD6
:10072C008003A0EB4100A062A2EB4302E2623046E0
:10073C00294600F046FF02F042FDC4E9140102F024
:10074C00010084F8580004F1500002A902F055FD94
:10075C0018B9304600F07DFFB8E7032084F86F002D
:10076C0004B05DF8048BF0BD44F2506044F23C627E
:10077C00C0F60000C0F60002192102F065FFFEDE93
:10078C00B0B502AF84B0044602F003FDCDE901011F
:10079C0001A8039004F1200594F8310028B901F068
:1007AC0095F8032184F8301006E003A9284602F0DE
:1007BC0024FDC0B994F83010284601F065F894F87F
:1007CC00300001F05AF8C0B2002184F8300001204A
:1007DC0002F035FD02F0F3FCC4E9080102F001005F
:1007EC0084F82800E1E7032084F8310004B0B0BDA0
:1007FC00F0B503AF2DE9000FA3B0824602F0C9FC9F
:10080C00CDE9040104A806909AF83300DFE810F053
:10081C000600C001C0017F0081007D00DAF82400D1
:10082C00CAF8200000F04AFC40F20500C0F20000BB
:10083C0002F0CFFD0DF15008ADF85000404602F02B
:10084C0000FE00F097FC01F0F3FA04200222C4F23F
:10085C00010007AE016862F31A61016041F21800F1
:10086C00C4F20200016821F001010160304601F080
:10087C00F2F94AF200200121C0F24A4045F200127E
:10088C001090C0F22522CDE90B10CDE9091041F2F0
:10089C000020C0F27A000F91CDE907104046CDE957
:1008AC000D121ECE1EC01ECE1EC096E83E003EC0CF
:1008BC00404601F0DBF900F001FC40F20600C0F20A
:1008CC00000002F086FDADF8500014A802F0B9FD4E
:1008DC0000F050FC40F27001C2F2000151E8020F2E
:1008EC0050B90320BFF35F8F41E80202002A41D0C8
:1008FC0051E8022F002AF7D044F26C60BFF32F8F1F
:10090C00C0F60000BFF35F8F8DE004A941E104A99C
:10091C00ECE0534613F8800F002800F05D810328AB
:10092C0040F01981564616F8700F002800F05C81D3
:10093C00032840F01981544614F8600F002800F089
:10094C005D81032840F01981D346CDE901631BF882
:10095C00450F04A9DFE810F0780105001C014702DF
:10096C00040244F2805044F2A452C0F60000C0F6D7
:10097C0000020AE10020BFF35F8F81F8310040F2E2
:10098C008D70C0F600004861DAF8200002F0E7F93B
:10099C0000F094FB40F20700C0F2000002F019FDD9
:1009AC00ADF8500014A802F04CFD00F0E3FB00F091
:1009BC0085FB40F20800C0F2000002F00AFDADF821
:1009CC00500014A802F03DFD00F0D4FB00F076FBC3
:1009DC0040F20900C0F2000002F0FBFCADF8500040
:1009EC0014A802F02EFD00F0C5FB0220002102F03D
:1009FC001FFC0A4640F2A801C2F2000151E8023F76
:100A0C004BB90323BFF35F8F41E80236CEB151E8F7
:100A1C00026F002EF8D044F27C60BFF32F8FBFF32F
:100A2C005F8FC0F6000044F22063009044F2F45053
:100A3C0022AAC0F60000C0F600032B2102F03BFEF8
:100A4C00FEDEBFF35F8F0025C1E9180240F267603C
:100A5C00C0F6000081F86F504861DAF8200002F00F
:100A6C007EF940F2A010C2F20000D0E84F1F49B945
:100A7C000121BFF35F8FC0E8421FEAB1D0E84F2FCE
:100A8C00002AF8D0BFF32F8F0120BFF35F8F179090
:100A9C0044F2A06044F2A861C0F60000C0F6000168
:100AAC00169044F2F450C0F600001995189014A852
:100ABC00149502F0B3FDFEDE14ADBFF35F8F284634
:100ACC0001F0FBFF2846FFF760FC514644F2B86288
:100ADC0001F8320F0020C0F6000288771620C1F80A
:100AEC001220C1F81600C1F81A1006990AF1340543
:100AFC002846FFF754FDC0B2062806D103208AF819
:100B0C00330023B0BDE8000FF0BD9AF85000032865
:100B1C0004BF9AF84000032814D000F0CFFA40F23A
:100B2C000A00C0F2000002F054FCADF8500014A80A
:100B3C0002F087FC00F01EFB0020AAF83000CAE986
:100B4C000A003CE0284601F0FCF8284601F004F9C4
:100B5C000028FAD1E1E744F2805044F2D452C0F6B6
:100B6C000000C0F6000210E044F2805044F2B4528F
:100B7C00C0F60000C0F6000207E044F2805044F2D8
:100B8C007052C0F60000C0F60002232102F05CFD9A
:100B9C00FEDE0AF134063046FFF701FDC4B2062C26
:100BAC0000F07A8105469AF85000032804BF9AF8A1
:100BBC004000032800F00A81052C40F086810020BB
:100BCC00534603F8800F0A20A3F14E01A3F15802FB
:100BDC0043E9032043F8041C0020564606F8700F26
:100BEC00321D07CA06E907000020544624F8600F9E
:100BFC00221D07CA44F8042C44E90501DAE9130163
:100C0C000029DAF85C20CAF8542000F02981CDE9DB
:100C1C0001630023B3EB114F40F06081D3469AF887
:100C2C0061600BF8453FCAF858104BF8110C14983A
:100C3C00CBF802009DF854008BF801604BF8052CA2
:100C4C004BF80D1C8BF806000020DAE90D898AF8A8
:100C5C0044009AF846000390DAF8406001F0ADF8D1
:100C6C000546CAF83C00304601F01AF901F0A5F827
:100C7C0001F077FF0146304642464B4600F04FF9F3
:100C8C0001208AF84400307858B9284601F06BFFEF
:100C9C000668284601F065FF00783146284601F0C9
:100CAC0063FFE8684FF4807101EA900120F49070C2
:100CBC000844E860686940F0410068616869CAF8F6
:100CCC004800400633D4284601F04DFFD0F8008090
:100CDC00284601F046FF00784146284601F044FFC3
:100CEC005FEAC8704FF0030B4FF0010940F09180A0
:100CFC005FEA88704FF0000B00F18B805FEA487060
:100D0C0000F1C3805FEA08704FF0020B00F18180A4
:100D1C0000F0D4F940F22100C0F2000002F059FBBF
:100D2C0027F8220CA7F1220002F08BFBF1E00398CC
:100D3C00002854D0284601F016FF0668284601F01A
:100D4C0010FF00783146284601F00EFFE86840F0AD
:100D5C001000E8600020CAF848508AF84400069950
:100D6C000AF14805284601F01CF8284601F00DF858
:100D7C00062638B106A92846FFF7E4FBC6B2062EB4
:100D8C0000F09380284600F0F5FF284600F0FDFFA8
:100D9C000028FAD10020062E4FF0000B05D0052EAE
:100DAC001ABF0120B3464FF0010BDAF83C100028B3
:100DBC00CA6822F49872CA604A6922F041024A61F8
:100DCC004FF48071AAF8441043D089E0304600F00B
:100DDC00B8FF304600F0C0FF0028FAD1ECE60699C7
:100DEC0000208AF844000AF14805284600F0D9FF93
:100DFC00284600F0CAFF002855D1284600F0BAFF5B
:100E0C00284600F0C2FF0028FAD14FF000094FF03D
:100E1C00000B9AF8440040B122AD284600F0AAFF1E
:100E2C00284600F0B2FF0028FAD10020B9F1000FDB
:100E3C008AF84400DAF83C00C16821F49871C1606A
:100E4C00416921F0410141614FF001008AF84500F0
:100E5C0046D15FEACB701CBFDAF8540000F09CFF5F
:100E6C0001200AF132018AF880000AF128028AF87E
:100E7C0070008AF8600000208AF850000A20CAF836
:100E8C004C10CAE91120069983E64FF0010B9AF831
:100E9C0044000028C0D1C8E705208AF8330023B0ED
:100EAC00BDE8000FF0BD032000E0042001998BF891
:100EBC0000000320207008700299087004208AF842
:100ECC00330023B0BDE8000FF0BD07F8225C00F042
:100EDC00F5F840F20C00C0F200000FE04FF0040BEC
:100EEC0001990120207008700299087007F822BC43
:100EFC0000F0E4F840F20B00C0F2000002F069FAD6
:100F0C00ADF8500014A802F09CFAA7F12200FFF7EC
:100F1C00C6FA00F02FF902F0D2FAFEDE7047F0B5F7
:100F2C0003AF4DF8048D86B0A3F5803010F5803FEB
:100F3C001CD91D461646884601F052FE044601F0A7
:100F4C004DFEC0B200F0F3FE01210022CDE90210EB
:100F5C000020C4F2020004214346CDE9006504944C
:100F6C0001F0D0F906B05DF8048BF0BD00F0A6F8E6
:100F7C0040F21000C0F2000002F02BFA27F8120C1D
:100F8C00A7F1120002F05DFA00F0F4F802F097FA03
:100F9C00FEDEF0B503AF4DF8048D86B0A2F58030BF
:100FAC0010F5803F1CD9984615460E4601F018FEE8
:100FBC00044601F013FEC0B200F0B9FE012101227B
:100FCC00CDE902100020C4F2020003214346CDE912
:100FDC000065049401F096F906B05DF8048BF0BD41
:100FEC0000F06CF840F21100C0F2000002F0F1F9D0
:100FFC0027F8120CA7F1120002F023FA00F0BAF84D
:10100C0002F05DFAFEDE40F2FC10C2F20000016854
:10101C004068084780B56F4600F001F8FEDE80B5E9
:10102C006F4686B001AC204602F074F82046FFF7FC
:10103C0047FAFEDE80B56F4682B0044601F054FEDE
:10104C0040F2A110C2F20000017819BB012101701D
:10105C00009400F033F840F20D00C0F2000002F0F2
:10106C00B8F9ADF8040001A802F0EBF940F2010068
:10107C00C0F2000002F0ADF927F8020CB81E02F025
:10108C00A9F944F2D0616846C0F6000102F0AEF94D
:10109C0000F070F800F001F8FEDE80B56F464EF6F9
:1010AC002450CEF20000016821F48021016001F08F
:1010BC0022FEFEDE7047006802F038BAF0B503AFCE
:1010CC004DF8048D86B001F0FFFD40F2A211C2F282
:1010DC0000010A78BABB01240C704870087918B169
:1010EC0006B05DF8048BF0BD40F2000800200C71D6
:1010FC00C2F200088DF8000041F26B56D8F82C00B3
:10110C0041F2E741C0F600066D4600F00300C0F660
:10111C000001022808BF0E4601E0002CE0D008F1C7
:10112C00180029462246B0470028F6D0844202D344
:10113C000544241AF1E744F2D4722146C0F60002A9
:10114C0002F04AFEFEDE012044F2E061039044F21C
:10115C000070C0F60000C0F600010290002004915F
:10116C0044F264710590C0F600010090684602F0EC
:10117C0055FAFEDED0B502AF40F2A214C2F2000462
:10118C00A01C00F027F9002020706078BDE8D0404A
:10119C0001F0A5BD0A46014640F2A210C2F20000C1
:1011AC00023000F000B8F0B503AF2DE9000F85B0A8
:1011BC00002A00F0038190F8008040F2000B90F8B8
:1011CC0001A08946C2F2000B1144019102900AE081
:1011DC0002984FF0000A4FF00008A0F800A0019907
:1011EC00894500F0EB8019F8012B5FFA88F107298B
:1011FC0024D2002A7CD007F8212C41F26B54DBF866
:10120C002C00A7F12105C0F60004012600F0030014
:10121C00022841F2E740C0F6000008BF044600E097
:10122C00AEB30BF1180029463246A0470028F7D080
:10123C008642C0F0BB800544361AF1E7002A00F064
:10124C008E80CDF8009041F26B5907F81E2CA7F157
:10125C001E04DBF82C00C0F60009012500F0030089
:10126C00022841F2E740C0F6000008BF814600E0CA
:10127C007DB10BF1180621462A463046C847002896
:10128C00F6D08542C0F09E8004442D1AF0E70298F7
:10129C0035E008F101080298DDF800905FFA88F15A
:1012AC00862980F800809AD1FF2041F26B5807F80C
:1012BC001D0CA7F11D04DBF82C00C0F6000801255D
:1012CC0000F00300022841F2E740C0F6000008BF1E
:1012DC00804604E004442D1A002D3FF479AF3046CB
:1012EC0021462A46C0470028F6D08542F2D269E052
:1012FC00012202FA01F14AEA010A80F801A008F180
:10130C00010880F800805FFA88F107297FF467AF45
:10131C005FEA0A613FF463AF8DF810A041F26B54A1
:10132C00DBF82C0004ADC0F60004012600F003002D
:10133C00022841F2E740C0F6000008BF044604E072
:10134C000544361A002E3FF443AF0BF11800294622
:10135C003246A0470028F5D08642F1D226E008F1AB
:10136C00790041F26B5440F0800007F81F0CDBF859
:10137C002C00A7F11F05C0F60004012600F00300A5
:10138C00022841F2E740C0F6000008BF044604E022
:10139C000544361A002E3FF41BAF0BF118002946FA
:1013AC003246A0470028F5D08642F1D244F2D472DE
:1013BC003146C0F6000202F00FFDFEDE05B0BDE8BE
:1013CC00000FF0BD44F2D4722946C0F6000202F0C0
:1013DC0003FDFEDEF0B503AF2DE9000F81B08046B2
:1013EC00007840F2000941F2E74A41F26B540028C0
:1013FC00C2F20009C0F6000AC0F6000443D0072868
:10140C0023D24FF0FF31A7F11D0601FA00F098F836
:10141C000110A3460125084300F07F0007F81D0CBE
:10142C00D9F82C0000F00300022808BFD34600E0D6
:10143C004DB309F1180031462A46D8470028F7D099
:10144C00854242D306442D1AF2E77930A7F11E06E5
:10145C0040F0800007F81E0CD9F82C00A34601259B
:10146C0000F00300022808BFD34600E05DB109F18B
:10147C00180031462A46D8470028F7D0854224D395
:10148C0006442D1AF2E70020A7F11F0607F81F0CDF
:10149C000125D9F82C0000F00300022808BF54469F
:1014AC0000E05DB109F1180031462A46A04700283A
:1014BC00F7D0854209D306442D1AF2E70020A8F88C
:1014CC00000001B0BDE8000FF0BD44F2D472294613
:1014DC00C0F6000202F080FCFEDEF0B503AF2DE991
:1014EC00000B52B1044688460069E168BFF35F8F78
:1014FC00884207D9CB43C5186DB900252846BDE8ED
:10150C00000BF0BD002812BFC1F5806540F2FF3022
:10151C00451A002DF1D0AA4238BF15466E18B6F503
:10152C00806F0DD96068C1F58069084441464A4610
:10153C0002F0F1FE606808EB0901A5EB090203E07B
:10154C0060682A460844414602F0E5FE6FF39F2688
:10155C00BFF35F8FE6602846BDE8000BF0BDF0B529
:10156C0003AF2DE9000B1446B2F5806F884628BFF7
:10157C004FF48064C1680546BFF35F8F0E19B6F552
:10158C00806F0DD96868C1F58069084441464A46A8
:10159C0002F0C1FE686808EB0901A4EB090203E044
:1015AC00686822460844414602F0B5FEBFF35F8FDF
:1015BC006FF39F26EE602046BDE8000BF0BD0830AF
:1015CC007047B0B502AF057A0446E81F38BF00205B
:1015DC0030B101282BD12046BDE8B04000F04EB808
:1015EC00607A51F82040222C2AD2012001F0FAFA1C
:1015FC002021016144F2E470C0F6000005F00701FF
:10160C00005D0824C840C00708BF4FF40024012027
:10161C0001F0E8FA0461012001F0E4FA4FF4001142
:10162C00016105200021BDE8B04001F000BE0120A1
:10163C0001F0D8FA4FF480110161D4E90001B0BD7A
:10164C0044F618022046C0F60002222102F013F8DC
:10165C00FEDE027A0021D31F38BF0B465BB1012B93
:10166C000AD1417A44F62802C0F60002515C41725C
:10167C00092101727047511C01727047B0B502AF5D
:10168C000446012001F0AEFA202100250161607AA8
:10169C000024DFE800F00A120406091108100125E5
:1016AC0003E0012509E001250124022001F09AFA4A
:1016BC004FF0806106E001250124022001F092FA2E
:1016CC004FF480610161022001F08CFA103015B1E9
:1016DC004FF4006101E04FF00061016002204FF017
:1016EC008055002C18BF4FF4805501F07BFA056132
:1016FC00012001F077FA1021016105200021BDE8DD
:10170C00B04001F094BDF0B503AF2DE9000782465F
:10171C0001209846914601F065FA4FF400210161D1
:10172C0001F0D2FA0546012001F05CFA0646046885
:10173C00022000F087FA00F0030024F4704141EA23
:10174C0000303060284601F0CAFA012001F04AFA54
:10175C001021016101F0B8FA0546012001F042FAAE
:10176C0006460468022000F06DFA00F0030024F431
:10177C00702141EA00403060284601F0B0FA0120A7
:10178C0001F030FA4FF40011016101F09DFA0546A9
:10179C00012001F027FA06460468022000F052FAF4
:1017AC0000F0030024F4700141EA00503060284638
:1017BC0001F095FA022001F015FA4FF080610161F9
:1017CC0001F082FA0546022001F00CFA0646446844
:1017DC00022000F037FA00F0030024F4706141EAB3
:1017EC0000207060284601F07AFA022001F0FAF924
:1017FC004FF00061016101F067FA0546022001F02B
:10180C00F1F906464468022000F01CFA00F00300CF
:10181C0024F4704141EA00307060284601F05FFA10
:10182C00022001F0DFF94FF08051016101F04CFA18
:10183C000546022001F0D6F906464468022000F065
:10184C0001FA00F0030024F4702141EA00407060BA
:10185C00284601F044FA2820002101F0E8FC024659
:10186C000B464846414601F0F3FCCAE90001092049
:10187C00AAF80800BDE80007F0BD44F6300140B2FC
:10188C00C0F60001085C7047B0B502AF44F6980092
:10189C004CB2C0F6000050F82450022001F0A2F91E
:1018AC00056144F63800C0F6000050F824500220C0
:1018BC0001F098F9056144F67800C0F6000050F884
:1018CC002440022001F08EF90461B0BDF0B503AFE5
:1018DC004DF804BD022001F085F94FF400010161BF
:1018EC0001F0F2F90446022001F07CF90546066885
:1018FC00012000F0A7F900F0030026F0704141EA46
:10190C0000702860204601F0EAF9022001F06AF923
:10191C004FF08071016101F0D7F90446022001F00B
:10192C0061F905464668012000F08CF926F00F019C
:10193C0000F0030008446860204601F0D0F9022052
:10194C0001F050F94FF00071016101F0BDF904464E
:10195C00022001F047F905464668012000F072F9B3
:10196C0000F0030026F0F00141EA00106860204608
:10197C005DF804BBBDE8F04001F0B1B9F0B503AFC0
:10198C004DF804BD044601F09EF905460B2001F00C
:10199C0099F980B2B0F5F87F80F0E6804EF200162F
:1019AC00CEF20006304480F800530B2001F08AF987
:1019BC0082B201465009B2F5007F80F0CD8001F073
:1019CC001F01012202FA01F146F82010204601F015
:1019DC007AF905460C2001F075F980B2B0F5F87F64
:1019EC0080F0C280304480F800530C2001F06AF97A
:1019FC0082B201465009B2F5007F80F0AD8001F053
:101A0C001F01012202FA01F146F82010204601F0D4
:101A1C005AF905460D2001F055F980B2B0F5F87F62
:101A2C0080F0A280304480F800530D2001F04AF978
:101A3C0082B201465009B2F5007F80F08D8001F032
:101A4C001F01012202FA01F146F82010204601F094
:101A5C003AF905460E2001F035F980B2B0F5F87F61
:101A6C0080F08280304480F800530E2001F02AF977
:101A7C0082B201465009B2F5007F6DD201F01F0110
:101A8C00012202FA01F146F82010204601F01BF960
:101A9C0005460F2001F016F980B2B0F5F87F63D23D
:101AAC00304480F800530F2001F00CF982B201464B
:101ABC005009B2F5007F4FD201F01F01012202FA4A
:101ACC0001F146F82010204601F0FDF805461020E3
:101ADC0001F0F8F880B2B0F5F87F45D2304480F8C8
:101AEC000053102001F0EEF882B201465009B2F515
:101AFC00007F31D201F01F01012202FA01F146F8F8
:101B0C002010204601F0DFF80446112001F0DAF82D
:101B1C0080B2B0F5F87F27D2304480F80043112012
:101B2C0001F0D0F882B201465009B2F5007F3FBFF8
:101B3C0001F01F01012202FA01F146F820103FBF0B
:101B4C0041F21400C4F20200016841F001013EBFF1
:101B5C0001605DF804BBF0BD44F62C121021C0F6F8
:101B6C00000201F088FDFEDE44F61C124FF4F87101
:101B7C00C0F6000201F07FFDFEDE40F2E010C2F282
:101B8C0000007047B0B502AF84B040F212050446B5
:101B9C00C0F20005284601F01CFC27F8160CA7F132
:101BAC00160001F017FC204601F06AFC284601F0F3
:101BBC0010FCADF8040001A801F00CFC201D01F094
:101BCC005FFC284601F005FC27F8120CA7F1120067
:101BDC0001F000FC04F1080001F052FC284601F071
:101BEC00F8FBADF8080002A801F0F4FB04F10C00BE
:101BFC0001F046FC284601F0ECFB27F80E0CA7F18F
:101C0C000E0001F0E7FB04F1100001F039FC28464E
:101C1C0001F0DFFBADF80C0003A801F0DBFB04F1D5
:101C2C00140001F02DFC284601F0D3FB27F80A0C18
:101C3C00A7F10A0001F0CEFB04F1180001F020FC22
:101C4C0004B0B0BDC0B240F20211C000C0F203013A
:101C5C0021FA00F07047002181620162816101610B
:101C6C00816001604FF4807101867047F0B503AF5D
:101C7C004DF8048D8CB0804601F026F840F204211A
:101C8C00C2F200010A78002A3FD101220A7001F049
:101C9C0026F898F8310000281FBF42F20400CEF25B
:101CAC000400016841F0070118BF016041F21800FF
:101CBC00C4F20200016841F004010160016841F0C6
:101CCC0008010160016841F010010160016841F0F8
:101CDC0020010160016841F04001016098F830007A
:101CEC00FFF74CFEB8E87C1068460146A1E87C1072
:101CFC0098E87C1081E87C1000F0D3F80CB05DF80B
:101D0C00048BBDE8F04000F08ABCFFF7D7F940F235
:101D1C001F00C0F2000001F05CFBADF8000068464B
:101D2C0001F08FFBFFF726FA01F0C9FBFEDE7047CE
:101D3C00002070472520704740F2FC10C2F20000D2
:101D4C00704704204FF42041C4F2020001600021CE
:101D5C000164BFF35F8F70474420C4F20200006837
:101D6C0000F00100704740F2A810C2F200001830D9
:101D7C0000F044BF04204FF42021C4F202000160A3
:101D8C0000214165BFF35F8F70475820C4F20200F9
:101D9C00006800F0010070475C20C4F2020000688B
:101DAC00704740F2A810C2F20000203000F026BFAD
:101DBC0042F20040C4F20100704743F60000C4F246
:101DCC000100704740F20820C2F200007047D0B505
:101DDC0002AF00F079FF40F2E011C2F20001CC68D2
:101DEC0000F07DFF2046D0BD80B56F4600F06CFF43
:101DFC0041F21801C4F202010A6842F400720A604E
:101E0C00BDE8804000F06BBF80B56F4600F05CFF12
:101E1C0041F20C01C4F202010A6842F400720A6039
:101E2C000A6822F400720A60BDE8804000F057BFD7
:101E3C0080B56F4600F048FF41F21801C4F2020170
:101E4C000A6842F001020A60BDE8804000F047BF1A
:101E5C0080B56F4600F038FF41F21801C4F2020160
:101E6C000A6842F480420A60BDE8804000F037BF47
:101E7C0080B56F4600F028FF41F20C01C4F202015C
:101E8C000A6842F480420A600A6822F480420A60BE
:101E9C00BDE8804000F023BF092070470020704748
:101EAC007047F0B503AF2DE9000F8DB0D0E900AC51
:101EBC006346BAF1000F04BF40F60013C0F23D03B5
:101ECC00002B00F0BA81D0E902264AF2002BC0F2B6
:101EDC004A4B002A08BF1E46B6FBF3F6012E0AD069
:101EEC00324698BF0122102A28BF102202FB03FCA5
:101EFC0002F1FE0805E00023BAF1000F22D04FF0EA
:101F0C000008731E18BF0123DC4500F2D48102695E
:101F1C000AB34269002A00F09981BCFBF2F2012A53
:101F2C0019D0022A0AD0002A00F0CC811E46D31EFA
:101F3C00032B14D219224FF0090938E019224FF063
:101F4C00080935E041F2002C4FF00008C0F27A0C81
:101F5C000269002ADDD119224FF0070928E0931FEE
:101F6C00062B03D219224FF00A0920E0A2F10C0330
:101F7C001C2B03D219224FF00B0918E0A2F12803F5
:101F8C00382B03D21A224FF00C0910E0A2F1600397
:101F9C00602B03D21A224FF00D0908E0C03A4FF023
:101FAC000F09C02A4FF01A0238BF4FF00E09334602
:101FBC004A4402F01F022CFA02FE826992B1C269F5
:101FCC00002A00F04C81BEFBF2F2012A0AD0022A50
:101FDC000AD0002A00F07D811E46D31E032B05D2A9
:101FEC00052408E0032407E0042405E0063A07244E
:101FFC00062A38BF0624334604F11D0202F01F01E5
:10200C0045F20012C0F225222EFA01F5954200F29B
:10201C004481026ACDE90115CDE9034E8AB1426AC9
:10202C00002A00F02581BEFBF2F2012A09D0022A17
:10203C0009D0002A00F05481D61E032E05D20522A9
:10204C0008E0032206E0042204E0961F0722062E75
:10205C0038BF062246F6014643F20164C0F2DC2684
:10206C00B4454FF00206C0F26E1438BF0126A445E9
:10207C0042F2000438BF0026C4F202044FF0020EF4
:10208C00266002F11D06049906F01F05866A21FAE6
:10209C0005F44EB1C06A002800F0F380B4FBF0F6F2
:1020AC00032E03D2002009E0032007E0052E01D205
:1020BC00012003E00320082E38BF02200EEB40065F
:1020CC00B4FBF6FE49F68076C0F2D506B64500F2B2
:1020DC00EB801146424641F20008BAF1000FC4F2FF
:1020EC000208CDF8009016D0D8F8006046F480367F
:1020FC00C8F80060D8F80060B6030CD4D8F80060BB
:10210C00B6035CBFD8F800605FEA863603D4D8F813
:10211C000060B603EED5D8F8046099462BB326F4CC
:10212C007416534662F3954646EA0A46C8F80460AC
:10213C00D8F8006046F08076C8F80060D8F8002027
:10214C0092010CD4D8F8002092015CBFD8F8002082
:10215C005FEA821203D4D8F800209201EED5D8F8A9
:10216C0004604FF0020A1A4600E05246BCEB0B0B1F
:10217C0018BF4FF0010B4FEA8B53B9F1000F08BF9A
:10218C004FF48003002A40F20C02CFF6BF7208BF56
:10219C004FF480033240534442EA8030039A40EAC1
:1021AC00C1200221002D40EA0220009A40EA0210D0
:1021BC001844C8F8040004980A904FF00200CDF8B7
:1021CC002CE0CDF814C008BF01216143089409919B
:1021DC000199002908BF01200299069148430790F4
:1021EC00FEF76CFF40F20F00C0F2000001F0F1F8B6
:1021FC0027F81E0CA7F11E0001F023F940F20E0087
:10220C00C0F2000001F0E5F827F81E0CA7F11E0043
:10221C0001F0E0F805AC2046FFF7B4FCFEF7AAFF8E
:10222C000ECC40F2E010C2F200000EC094E84E005A
:10223C004EC00DB0BDE8000FF0BD44F6B01044F632
:10224C009812C0F60000C0F6000222E044F6B0106E
:10225C0044F6CC12C0F60000C0F6000219E044F6B9
:10226C00B01044F6DC12C0F60000C0F6000210E01C
:10227C0044F6B01044F6EC12C0F60000C0F60002B2
:10228C0007E044F6B01044F6FC12C0F60000C0F6AD
:10229C000002192101F0D8F9FEDEFEF70FFF40F223
:1022AC001600C0F2000021E0FEF708FF40F2180013
:1022BC00C0F200001AE0FEF701FF40F21300C0F27A
:1022CC00000013E0FEF7FAFE40F21400C0F200002A
:1022DC000CE0FEF7F3FE40F21500C0F2000005E042
:1022EC00FEF7ECFE40F21700C0F2000001F071F8AE
:1022FC00ADF8140005A801F0A4F8FEF73BFF01F0BF
:10230C00DEF8FEDEF0B503AF2DE9000B82B0D7F896
:10231C0018C01CF47F0F4ED11CF47F4F57D15FEACD
:10232C00CC1E61D45FFA8CFCBCF1040F68D15FFA4F
:10233C0081FCBCF1070F9FBFD7E9048ED7E9026976
:10234C001C2404EA81019FBF4C1C012505FA04F4EE
:10235C0003319FBF05FA01F1214341600CEB8C0165
:10236C009FBF00EB8100BFF35F8F036146619FBF8E
:10237C001FFA89F1C1600EF0030141EA81019FBF90
:10238C00090268F3C71102F0010241EA02119FBF72
:10239C000B31816002B0BDE8000B98BFF0BD44F674
:1023AC000C2044F6B022C0F60000C0F600021C213E
:1023BC0001F04AF9FEDEFEF781FE40F21900C0F290
:1023CC00000001F006F8ADF80000684624E0FEF7C6
:1023DC0075FE40F21A00C0F2000000F0FAFF27F878
:1023EC001E0CA7F11E0017E0FEF768FE40F21B0062
:1023FC00C0F2000000F0EDFFADF8040001A80BE006
:10240C00FEF75CFE40F21C00C0F2000000F0E1FFA1
:10241C0027F81A0CA7F11A0001F013F8FEF7AAFE20
:10242C0001F04DF8FEDE80B56F4684B0C9B20729C5
:10243C000191D0F800C032D81C2303EA810E0EF1B2
:10244C0003032CFA03F3DB0735D14EF001032CFA0E
:10245C0003F3DB0707D001EB8101082303EB8103B6
:10246C00C158890701D404B080BDD1B2002206291D
:10247C00C2509FBF40F2A810C2F2000000EBC10096
:10248C0004B09CBFBDE8804000F0FDBB44F6203298
:10249C000846C0F60002072101F0EDF8FEDE44F616
:1024AC000C2044F6B022C0F60000C0F600021C213D
:1024BC0001F0CAF8FEDE0290FEF700FE40F21D00AD
:1024CC00C0F2000000F085FF27F8020CB81E00F0E7
:1024DC00B8FF02A800F06DFB01A800F055FBFEF759
:1024EC0049FE00F0ECFFFEDEF0B503AF2DE900076E
:1024FC0082B09A461546064607F81A1C00F0E4FB13
:10250C008046A7F11A0000F077FB814617F81A0CE9
:10251C0007F8190CA7F1190000F06EFBC0B240F2DD
:10252C000C0C06EB001201017550C4F2000CC2F841
:10253C0004A0316BDCF8186001F001034C0CB6B24E
:10254C0086EAC33313EBC1365FFA89F144F1000418
:10255C00731B74EB0A032FD202294BD8F01C44F1E5
:10256C0000029245034688BF2B46854288BF284609
:10257C00924518BF1846382280B2C4F2000242F8C5
:10258C002100A81B6AEB0402B0F540404FF0000399
:10259C0072F100004FF0040201F1020038BF012378
:1025AC0002FA01F1DCF8002003FA00F022EA010142
:1025BC000843CCF800000FE0DCF80030C81E10F126
:1025CC00050F20D90420884023EA0000CCF8000035
:1025DC004FF0FF30C2E90000404600F080FB711B59
:1025EC004FF0000074EB0A0138BF012002B0BDE8C7
:1025FC000007F0BD44F6B43044F66842C0F6000063
:10260C00C0F6000207E044F6B43044F65842C0F677
:10261C000000C0F600021C2101F016F8FEDEF0B539
:10262C0003AF4DF804BD82B000F04EFB41F2100434
:10263C00C4F20204E16841F00101E16000F04FFBDB
:10264C0000F042FB216841F001012160216821F07A
:10265C000101216000F043FB00F036FB40F2E01179
:10266C00C2F200018D6800F03AFB00F02DFB4DF634
:10267C0083624FF08041C4F21B320446A5FB022654
:10268C0008684FF0FF3220F0010008600C20C4F203
:10269C0000000023836102EB96420092B3EB124FD1
:1026AC0058D1C2614FF6FF72026201250A6842F0EE
:1026BC0004020A6085600A6822F004020A604FF482
:1026CC0000418162032101601C2000F0FBFA82B200
:1026DC0001465009B2F5007F34D24EF2001601F0DB
:1026EC001F01CEF2000606EB800005FA01F1C0F8DE
:1026FC0080111C2000F0E6FA82B201465009B2F5B6
:10270C00007F3FBF01F01F01012202FA01F146F8E0
:10271C0020103FBF4FF08040016841F00101016083
:10272C003FBF204602B05DF804BBBDE8F04038BFA7
:10273C0000F0D5BA44F69432C0F60002102100F035
:10274C009AFFFEDE44F6A432C0F60002102100F01F
:10275C0092FFFEDEFEF7B2FC40F21E00C0F200005B
:10276C0000F037FE27F8120CA7F1120000F069FEFA
:10277C00684600F01EFAFEF7FDFC00F0A0FEFEDE3F
:10278C00F0B503AF2DE9000F81B000F09DFA40F2D7
:10279C000C0A40F23805C4F2000A8046DAF804B09C
:1027AC00C2F20005DAF800906FEA0B00CAF80400D8
:1027BC005FEACB7008D15FEA8B7037D45FEA4B705D
:1027CC004FF0FF3666D46DE055E80C0F013045E84C
:1027DC000C010029F8D14FF4404212EBC0364FEAFD
:1027EC00504141F1000400F06FFADAF80010D5E91D
:1027FC000023D5E904CE921B73EB040238BF41F0E1
:10280C000401BCEB06027EEB040238BF41F0080168
:10281C00D5E908329B1BA24138BF41F01001CAF820
:10282C00001000F05CFA5FEA8B70C7D555E80C0F0E
:10283C00013045E80C010029F8D14FF4404212EB6D
:10284C00C0344FEA504141F1000600F03DFADAF88D
:10285C000010D5E90023D5E904CE121B73EB060258
:10286C0038BF41F00401BCEB04027EEB060238BF1A
:10287C0041F00801D5E908321B1BB24138BF41F0C9
:10288C001001CAF8001000F02AFA5FEA4B704FF002
:10289C00FF3607D519F0040004D0D5E90210C5E9BC
:1028AC00006688475FEA0B7007D519F008001EBF59
:1028BC00C5E90466D5E9061088475FEACB6007D501
:1028CC0019F010001EBFC5E90866D5E90A10884743
:1028DC00404601B0BDE8000FBDE8F04000F0FFB984
:1028EC0040F238002422C2F20000C4F20002006B55
:1028FC00126800F0010192B282EAC131420C11EB74
:10290C00C03042F100017047D0B502AF40F2380C34
:10291C00C2F2000C9CF83430BFF35F8FD9B203299C
:10292C004FF0000438BF012402296BD80CF134029B
:10293C00D2E84F0F884207D1591CBFF35F8FC2E812
:10294C00431F1BB9012302E0BFF32F8F0023002B81
:10295C00BFF35F8F51D103284FF0000438BF01241F
:10296C0002284FD8D2E84F3F834207D10130BFF342
:10297C005F8FC2E8410F19B9012002E0BFF32F8F1E
:10298C000020BFF35F8FB8BB032B4FF0000438BFA0
:10299C000124022B36D8D2E84F0F984207D1591C8C
:1029AC00BFF35F8FC2E8431F1BB9012302E0BFF3E3
:1029BC002F8F0023BFF35F8FFBB903284FF0000468
:1029CC0038BF012402281DD8D2E84F3F83420BD1D7
:1029DC000130BFF35F8FC2E8410F39B901200028E5
:1029EC00BFF35F8F9AD007E0BFF32F8F0020002832
:1029FC00BFF35F8F3FF492AF184600F0FCF801462E
:102A0C002046D0BD2046D0BDF0B503AF4DF8048DA7
:102A1C0082B090460D46064600F056F90446A7F1E2
:102A2C00110007F8116C00F0E7F840F23801C0B261
:102A3C00C2F2000101EB0010C0E90258204600F080
:102A4C004EF902B05DF8048BF0BD014640F238003F
:102A5C00C2F20000FFF748BD00200121C4F20200C1
:102A6C000122FFF7E0BC00200321C4F20200032284
:102A7C00FFF7D9BC00200421C4F202000422FFF7A6
:102A8C00D2BC00200021C4F202000022FFF7CBBC14
:102A9C0000200521C4F202000522FFF7C4BC00206F
:102AAC000221C4F202000222FFF7BDBC0020062165
:102ABC00C4F202000622FFF7B6BC00214FF4E1324B
:102ACC00C0E900217047D0B502AF82B0D7E902EC63
:102ADC00BEF1000F08BFBCF1000F2FD00C680CB377
:102AEC0002EB5402BEF1000FB2FBF4F203FB02F254
:102AFC0082600A7949794FEA023202614FF400523E
:102B0C0018BF42F2040200296CF3C3021CBF02F589
:102B1C00805202F58062022908BF02F50072C26081
:102B2C0002B0D0BD44F6F04044F6D842C0F60000E6
:102B3C00C0F60002192100F087FDFEDEFEF7BEFA9A
:102B4C0040F22200C0F2000000F043FC27F80A0C0F
:102B5C00A7F10A0000F075FCFEF70CFB00F0AFFCCF
:102B6C00FEDE043070477047704740F22000C0F220
:102B7C00000000F02EBC007844F61051C0F60001A5
:102B8C0051F8200000F070BCD0B502AF82B0044602
:102B9C0040F20400C0F2000000F01BFC27F80A0C05
:102BAC00A7F10A0000F016FC204600F069FC02B008
:102BBC00D0BDD0B502AF82B0044640F20300C0F2E3
:102BCC00000000F006FC27F80A0CA7F10A0000F040
:102BDC0001FC204600F054FC02B0D0BD0020704730
:102BEC000420704740F60001C4F2010101EB802083
:102BFC007047FEE77047704700787047F0B503AF39
:102C0C002DE9000B0C46064600F05EF880460020CD
:102C1C00D6E900957060D4E9000185B181450ED1EB
:102C2C000A682B68934202BFD1F804C06C686445F3
:102C3C0006D18A68AC68944217D01A4600E00A683C
:102C4C0090470246D6E90003002BC6E900211CBFC1
:102C5C00D968884715B1E968484688474046BDE8B9
:102C6C00000BBDE8F04000F03AB8C968EA688A4247
:102C7C001A46E5D1C6E900054046BDE8000BBDE8A3
:102C8C00F04000F02CB8F0B503AF4DF8048D0546BC
:102C9C0000F01AF8D5E9006480460020686054B151
:102CAC00A16830468847D5E900010029C5E90064D0
:102CBC001CBFC968884740465DF8048BBDE8F040EE
:102CCC0000F00DB870477047D0B502AF00F010F8A7
:102CDC00012121EA000400F007F82046D0BD0028AD
:102CEC0008BF704700F002B872B6704762B6704702
:102CFC00EFF31080704700DEFEDEF0B503AF4DF849
:102D0C00048D82B016468846054600F0DFFAC007EF
:102D1C000FD00C4608464146324600F0DEFA002041
:102D2C002C74C5E90006C5E9020802B05DF8048BF5
:102D3C00F0BDFEF7C3F940F22300C0F2000000F032
:102D4C0048FB27F8160CA7F1160000F07AFB01A837
:102D5C0000F024FAFEF70EFA00F0B1FBFEDEF0B53F
:102D6C0003AF4DF804BD0E4605460861FFF7ACFFF6
:102D7C0004462868F0602E6030B120465DF804BB34
:102D8C00BDE8F040FFF7ABBF6868E96888472046AC
:102D9C005DF804BBBDE8F040FFF7A1BFF0B503AF91
:102DAC002DE9000F85B000F108088146CDF80480AC
:102DBC000FE01A46CDE9020202A899F8104000F083
:102DCC0082FA024620460B4600F089FA002840F0B1
:102DDC00508100F076FAD8F80080B8F1000F43D09B
:102DEC00DDF804A006460D4606E008F1180ADAF8EC
:102DFC000080B8F1000F37D0D8E90001301A75EB1C
:102E0C000100F2D3FFF760FF0446D8F8080000F089
:102E1C00030101290ED140F00200C8F80800D8F8CF
:102E2C0010100868C8F80C00C1F8008010B9486888
:102E3C00C9688847204608F1080BFFF750FFD8F8FF
:102E4C001800CAF80000BFF35F8F5BE8000F20F09A
:102E5C0004004BE800010029F7D1BFF35F8FDAF8CB
:102E6C000080B8F1000FC7D10021BFF35F8F59E884
:102E7C00004F49E800100028F9D1BFF35F8FDDF84F
:102E8C0004804FF0FF3A5CB9D8F800304FF0FF30B7
:102E9C004FF0FF32002B8DD041463AE0002CF3D09E
:102EAC002546E46805F10806C5E900AABFF35F8F63
:102EBC0056E8000F20F0020146E80012002AF7D174
:102ECC00C007BFF35F8FE9D0696928468847D5E909
:102EDC00000181EA0A0180EA0A000843DED0BFF350
:102EEC005F8F56E8000F40F0040146E80012002AFC
:102EFC00F7D1BFF35F8F40075EBFD8F80000A86121
:102F0C00C8F80050CAE706F118010B68002B3FF413
:102F1C0051AFD3E90065AA42344638BF0446B042EB
:102F2C0028BF3046AA4218BF204685EA0A0486EA22
:102F3C000A0628BF2A46264326B103F118010B685E
:102F4C009BB937E79E6908330E60BFF35F8F53E878
:102F5C00006F26F0040643E80065002DF7D1BFF39F
:102F6C005F8F0B68002B3FF425AFD3E90065AA42B5
:102F7C00344638BF0446B04228BF3046AA4218BF78
:102F8C00204685EA0A0486EA0A0628BF2A46264312
:102F9C0026B103F118010E689EB90BE79E69083340
:102FAC000E60BFF35F8F53E8006F26F0040643E812
:102FBC000065002DF7D1BFF35F8F0E68002E3FF434
:102FCC00F9AED6E900539A422C4638BF0446A842C3
:102FDC0028BF28469A4218BF204683EA0A0485EA8D
:102FEC000A0538BF1346254325B106F118010E68B2
:102FFC00A6B9DEE6B2690A6006F10802BFF35F8F7C
:10300C0052E8006F26F0040642E80065002DF7D167
:10301C00BFF35F8F0E68002E3FF4CBAED6E90052A3
:10302C0093422C4638BF0446A84228BF28469342F8
:10303C0018BF204682EA0A0485EA0A0538BF1A46F8
:10304C002543002D7FF45FAFB3690B6006F10803D5
:10305C00BFF35F8F53E8006F26F0040643E800656A
:10306C00002DF7D1BFF35F8F0B68002B7FF451AFAE
:10307C00A0E605B0BDE8000FF0BD7047D0B502AFBB
:10308C0082B0D2F804E043F25313C0F60003DEF82A
:10309C0000C09C450BD1DEF8043043F25D1CC0F639
:1030AC00000C634504BFDEF80830634512D0FEF710
:1030BC0005F840F22600C0F2000000F08AF927F86B
:1030CC000A0CA7F10A0000F0BCF9FEF753F800F067
:1030DC00F6F9FEDEDEF80CC043F29D13C0F60003D9
:1030EC009C45E4D1D2F800C08E460446DCE900329F
:1030FC008A423CBF96461C46834238BF18468A42D9
:10310C0018BF2046CCE9000E02B0D0BD80B56F468A
:10311C0040BF80BD80B56F4643F219110022C0F646
:10312C000001FFF7EAFD80BD084644F62451C0F6C5
:10313C000001042200F04ABE40F22400C0F200005C
:10314C0000F047B9704744F62851C0F600017047AB
:10315C00B0B502AF0546FFF7B7FD0446A86800F00E
:10316C000301012907D140F00200A8602969086811
:10317C00E8600D6020B12046BDE8B040FFF7AFBD60
:10318C004868C96888472046BDE8B040FFF7A7BD2E
:10319C00704744F62851C0F600017047D0B502AF15
:1031AC0082B0044600F084F927F80A0CA7F10A0053
:1031BC0000F010F9204600F080F902B0D0BDF0B557
:1031CC0003AF4DF804BD0C4605460026FFF788FBFF
:1031DC004019614156F1000202BF00225DF804BBA8
:1031EC00F0BD44F62C6044F65462C0F60000C0F604
:1031FC000002282100F07DF9FEDEB0B502AF0446D6
:10320C00007A0D4658B1FFF76BFB02460B46D4E92A
:10321C000001121A73EB010203D30020B0BDD4E9F4
:10322C0000012A68FFF72AFF01202072B0BD704709
:10323C004FF47A72A0FB020301FB0231704744F297
:10324C004022C0F20F02A0FB020301FB02317047C7
:10325C00801A4FF0000C994128BF4FF0010CBCF1C3
:10326C00000F18BF704780B56F4644F6995044F66E
:10327C00BC52C0F60000C0F60002232100F039F960
:10328C00FEDEB0B502AF0C46FFF72AFB24184FF058
:10329C00000251F1000552F1000006D1FFF720FBAE
:1032AC00001B71EB0500F9D3B0BD44F62C6044F65D
:1032BC005462C0F60000C0F60002282100F019F993
:1032CC00FEDEFFF70DBBD0E90001704780B56F46FD
:1032DC00FFF71AFB00F0010080BDFFF795BBFFF76D
:1032EC00B4BB80B56F4682B0FFF7FAFACDE90001A6
:1032FC00684600F0D0F802B080BD704780B56F46CC
:10330C0082B000208029019003D201228DF8041094
:10331C0036E0B1F5006F0BD20222084662F39F1023
:10332C008DF80500C02040EA91108DF8040027E0CC
:10333C0002200A4660F39F12B1F5803F0DD28DF842
:10334C000620E02242EA113289098DF8042060F34C
:10335C009F118DF80510032212E08DF807208A09C1
:10336C0060F39F128DF806200A0B60F39F12880CF5
:10337C001E218DF8052061F3DF008DF80400042276
:10338C0001A81146FDF706FF002002B080BDF0B584
:10339C0003AF4DF8048D88B0D0F800C002AA91E8B4
:1033AC00714144F664611346C0F6000183E8714133
:1033BC0001A8CDF804C000F0A2F908B05DF8048BA8
:1033CC00F0BD80B56F4608461146FDF7E3FE0020C0
:1033DC0080BD704780B56F4682B00088022127F807
:1033EC00020CB81EFDF7D6FE02B080BD80B56F464C
:1033FC008CB0CDE9000143F26B40C0F6000002A98D
:10340C000390684602900BA804900120CDE90801B6
:10341C0044F664610A9044F67C60C0F6000005AA8C
:10342C0007900020059004A8C0F6000100F067F991
:10343C0044F684600121C0F60000FDF7ABFE0CB031
:10344C0080BD80B56F4682B00088022127F8020C3F
:10345C00B81EFDF79FFEFFF744FF02B080BDD0E918
:10346C000020C3681046184780B56F4682B00078BC
:10347C00012107F8010C781EFDF78CFE02B080BD0F
:10348C0080B56F4682B000680421019001A8FDF759
:10349C0081FE02B080BD80B56F4682B0D0E90001DC
:1034AC00CDE9000168460821FDF774FE02B080BD2D
:1034BC0040F20200C0F2000070477047704780B5C0
:1034CC006F4644F6856044F6E862C0F60000C0F62C
:1034DC0000020E2100F0B8F8FEDE0068FEE770472F
:1034EC004CF6522049F21901CDF29000C6F2C111EE
:1034FC00704780B56F468AB0CDE900010120059078
:10350C0044F6F861079008A806900020029044F257
:10351C00C310C0F60000C0F6000109906846089080
:10352C0002A80491114600F079F8FEDEF0B503AF65
:10353C004DF8048D8EB0D1E9004544F61C71EB6852
:10354C008046C0F600010C222046984728B101267F
:10355C0030460EB05DF8048BF0BDD8F8080028B1E9
:10356C00019044F2CF10C0F6000015E0D8E90060DD
:10357C00C1683046884746F63442C8F6A712514017
:10358C0041F6C822CAF6F812504008431BD144F247
:10359C00B5100196C0F60000039001A8029002A895
:1035AC000C9002200B9044F62C70C0F6000008AA78
:1035BC000A90002001260890204629460D9600F01E
:1035CC009EF80028C4D1D8F80C0044F2B501C0F61E
:1035DC00000100F10C020791CDE9051200F1080180
:1035EC00049144F2C311C0F6000108AACDE902010E
:1035FC0002A90320CDE90B0129460D9044F6047075
:10360C00C0F600000A9000200890204600F077F8E1
:10361C00064630460EB05DF8048BF0BD80B56F46A3
:10362C0086B0CDE9030144F63C70C0F600000122DF
:10363C00029044F6F860C0F600008DF8142001905A
:10364C0001A8FDF7F7FCFEDE80B56F4688B00123BC
:10365C00944644F6F862039306ABCDE90601029357
:10366C000023C0F60002684661460593049200935D
:10367C00FFF7D4FFFEDE80B56F468CB0CDE90001BC
:10368C000220059044F66071079008A8069000206F
:10369C00C0F60001029044F2B5000491C0F600009F
:1036AC006946CDE9090111460B9001A8089002A8C2
:1036BC00FFF7B4FFFEDE80B56F468EB08DE80F00CD
:1036CC00022044F674710790C0F6000109900AA814
:1036DC0008900020049044F2AB10C0F60000069154
:1036EC000D9002A80C9044F2C310C0F60000B9680B
:1036FC000B9068460A9004A8FFF790FFFEDEF0B529
:10370C0003AF2DE9000F8BB093460322DBF800606A
:10371C0002AB8DF82820202209920022002E08925C
:10372C00069207C37BD0DBF80400002800F0A180D0
:10373C00DBF808904FEA401A013802AD20F07840CF
:10374C0000244FF000080130019009EB080042689A
:10375C0042B1DDE9020359F80810DB6898470028EC
:10376C0040F09A8006EB8800D0E90512C3680992F4
:10377C00027F089106EB04018DF828200A69DBF81A
:10378C0010106BB1012B12D101EBC202AC4643F20B
:10379C00E7455368C0F60005AB420FD0002310E09C
:1037AC000123CDE90432D0E9010280B91EE00023E7
:1037BC00CDE90432D0E9010248B917E012680123BF
:1037CC0012686546CDE90432D0E9010270B10128D6
:1037DC0008D101EBC20043F2E743C0F60003426894
:1037EC009A4201D0002002E0006802680120CDE975
:1037FC000602325951F8320001EBC2014A682946DF
:10380C009047002848D1203408F10808A2459CD1E3
:10381C00DDF80490DBF80C00814530D341E0DBF897
:10382C00140030B3DBF81010C60001380DF1080895
:10383C000C1DDBF8081020F060400D1D00F1010993
:10384C002A6832B1DDE90201CB6855F8041C9847AF
:10385C0010BB54F8040C414622689047E0B9083478
:10386C00083E05F10805EBD1DBF80C00814506D3C9
:10387C0017E04FF00009DBF80C00814511D2DBF8A2
:10388C000800494650F8311000EBC9004268DDE9E8
:10389C000203DB68984720B101200BB0BDE8000F94
:1038AC00F0BD00200BB0BDE8000FF0BDF0B503AFCC
:1038BC002DE9000F87B0D7F80C909B46944606462E
:1038CC00E1B1B46914F0010000EB090A4FF02B00D0
:1038DC0008BF4FF4881006906007D7F8088016D5FB
:1038EC00BBF1100F44D2BBF1000F65D00BF00301FC
:1038FC00BBF1040F62D2002062467DE0B46909F18D
:10390C00010A2D2006906007D7F80880E8D44FF004
:10391C00000CB068002800F08B80CDF814B0D6F8FD
:10392C000CB0D34515D92007CDF8108027D496F8C4
:10393C002000ABEB0A01E346032808BF0120002856
:10394C0000F09B80012840F09A804FF0000A084656
:10395C0099E005986346D6E9004500902946069AF9
:10396C00204600F0E3F800286ED04FF001081EE06E
:10397C0060465946654600F054FAAC4653E0302098
:10398C00F469F0614FF0010896F820006346CDF819
:10399C000C9002900598D6E9009586F8208029466F
:1039AC000090069A484600F0C1F8002856D04046D0
:1039BC0007B0BDE8000FF0BD002034E02BF003038E
:1039CC000020624612F9045B15F1410FC8BF0130AB
:1039DC0012F9035C15F1410FC8BF013012F9025CFA
:1039EC0015F1410FC8BF013012F9015C15F1410FFF
:1039FC00C8BF0130043BE5D1A9B192F9003013F1F5
:103A0C00410FC8BF013001290DD092F9013013F1DB
:103A1C00410FC8BF0130022905D092F9021011F1F3
:103A2C00410FC8BF01308244B06800287FF475AFE5
:103A3C00D6E900456346CDF800B02946069A2046E3
:103A4C0000F074F8002852D1EB68204641464A46F3
:103A5C0007B0BDE8000FBDE8F04018470694ABEB8B
:103A6C000A00DDF81080441C013C3AD02A69484613
:103A7C00302190470028F7D039E08A4603E0480807
:103A8C0001314FEA510AD6E90058441CF669013C51
:103A9C0007D0D8F810202846314690470028F6D099
:103AAC0025E0B6F5881F22D005984146009028469F
:103ABC00069A5B4600F03AF8C8B9D8F80C3028469C
:103ACC0004994A46984790B90024A24522D0D8F8C8
:103ADC00102028463146904701340028F5D0601E4E
:103AEC0019E0EB684846039A4146984730B14FF0CD
:103AFC000108404607B0BDE8000FF0BD02984FF03A
:103B0C00000886F820000698F061404607B0BDE832
:103B1C00000FF0BD50464FF00008504538BF4FF035
:103B2C000108404607B0BDE8000FF0BDF0B503AF8B
:103B3C004DF8048DD7F808801C460D460646B2F5A4
:103B4C00881F08D02B6930461146984718B10120C0
:103B5C005DF8048BF0BD44B1EB683046214642461B
:103B6C005DF8048BBDE8F040184700205DF8048B2D
:103B7C00F0BDF0B503AF2DE9000F81B08346D0F84E
:103B8C0008C0006989465CEA000102D1DBE900014A
:103B9C00DBE0002874D0DBF8140009EB020E4FF0C8
:103BAC0000084946441C09E043EA8110B11CA8EB0B
:103BBC000603B0F5881F03EB010861D0013C0E46EB
:103BCC0028D076455CD0314611F9013BB3F1FF3F6B
:103BDC00D8B2ECDC737800F01F01DF2803F03F0350
:103BEC00E2D9B578F02805F03F0545EA83130DD3EB
:103BFC00F07801F0070100F03F0040EA831040EA42
:103C0C008140B0F5881F3BD0311DD0E743EA01302D
:103C1C00F11CCCE7764533D096F90000B0F1FF3FAC
:103C2C0004DCC0B2E02828BFF02815D2B8F1000F90
:103C3C0009D0904506D219F9080010F1400F02DAAC
:103C4C00002001E0FCD1484600280CBF904681467C
:103C5C00BCF1000F18D173E0B37800F00700717855
:103C6C0003F03F03F67801F03F019B0143EA013179
:103C7C0006F03F03194441EA8040B0F5881FD5D1C6
:103C8C009046BCF1000F5BD0DBF80C40B8F1100F84
:103C9C000AD2B8F1000F0CD008F00301B8F1040FF0
:103CAC0009D200204A4624E04846414600F0B9F8C3
:103CBC0036E0002034E028F0030300204A4612F9D5
:103CCC00046B16F1410FC8BF013012F9036C16F1E9
:103CDC00410FC8BF013012F9026C16F1410FC8BF79
:103CEC00013012F9016C16F1410FC8BF0130043BD1
:103CFC00E5D1A9B192F9003013F1410FC8BF0130E1
:103D0C0001290DD092F9013013F1410FC8BF0130D8
:103D1C00022905D092F9021011F1410FC8BF0130F0
:103D2C0084420DD99BF82020201A4D46D11E18BF75
:103D3C001146A9B1012910D100210091014610E0D2
:103D4C00DBF804104246DBF80000CB68494601B0B2
:103D5C00BDE8000FBDE8F0401847410801304008AD
:103D6C000090DBE900A401F10109DBF81C60B9F15A
:103D7C00010906D022695046314690470028F6D0FA
:103D8C0008E0B6F5881F05D0E36850462946424640
:103D9C00984720B1012001B0BDE8000FF0BDDDF85F
:103DAC0000800025A84508D022695046314690472E
:103DBC0001350028F6D0691E00E04146002041453F
:103DCC0038BF012001B0BDE8000FF0BDD0E90030D4
:103DDC00D0F80CC01846604780B56F4600F001F86B
:103DEC00FEDE80B56F468CB0CDE90001022045F2B5
:103DFC0080010590079008A8C0F6000106900020ED
:103E0C000491029044F2B50001A9C0F600000B9099
:103E1C00CDE909016846089002A81146FFF7FEFBA0
:103E2C00FEDEF0B503AF2DE9000F0246033020F0A3
:103E3C000300831A8B4298BF042B0AD929B101F0D5
:103E4C000303042910D200202BE00020BDE8000F52
:103E5C00F0BDA1EB030EBEF1040FEFD30EF0030C7B
:103E6C00904238D1002074E021F00301002012F9B7
:103E7C00046B16F1410FC8BF013012F9036C16F137
:103E8C00410FC8BF013012F9026C16F1410FC8BFC7
:103E9C00013012F9016C16F1410FC8BF0130043921
:103EAC00E5D1ABB192F9001011F1410FC8BF01304F
:103EBC00012B0DD092F9011011F1410FC8BF013047
:103ECC00022B05D092F9021011F1410FC8BF01303D
:103EDC00BDE8000FF0BDD143084403F003010328F3
:103EEC0002D2002014461DE023F0030500201446E6
:103EFC0014F9046B16F1410FC8BF013014F9036CAF
:103F0C0016F1410FC8BF013014F9026C16F1410FC4
:103F1C00C8BF013014F9016C16F1410FC8BF013054
:103F2C00043DE5D1A9B194F9005015F1410FC8BF7A
:103F3C00013001290DD094F9015015F1410FC8BF82
:103F4C000130022905D094F9021011F1410FC8BFBC
:103F5C00013013444FEA9E080021BCF1000F1AD027
:103F6C002EF003021A4492F9006016F1410FC8BFFB
:103F7C000121BCF1010F0ED092F9016016F1410F35
:103F8C00C8BF0131BCF1020F05D092F9022012F129
:103F9C00410FC8BF013108444FF0FF1C0FE00CEA81
:103FAC001B222BF0FF242244A8EB09080EEB8903FB
:103FBC0019F0030102EB024200EB12403ED1B8F1C2
:103FCC00000F3FF485AFB8F1C00FC14628BF4FF0CA
:103FDC00C00919F0FC029E464FF0000B03EB820A5D
:103FEC00DDD07346002B1FBFD3E90065D3E9021265
:103FFC00F443E4091FBF44EA961424F0FE345C44F5
:10400C00EE431FBFF60946EA951525F0FE352C4404
:10401C001FBFCD43ED0945EA911121F0FE311FBFC1
:10402C002144D443E40944EA92121FBF22F0FE3229
:10403C0002EB010B10335345D4D1B0E7BEF1000FA6
:10404C0022D0DAF8002001296FEA02034FEAD313D9
:10405C0043EA921222F0FE3317D0DAF80420022938
:10406C006FEA02064FEAD61646EA921222F0FE32A8
:10407C0013440AD0DAF80810CA43D20942EA911163
:10408C0021F0FE310B4400E00023FF2123F0FF223E
:10409C00C0F2070101EA1321114401EB014100EBCD
:1040AC001140BDE8000FF0BDF0B503AF2DE9000FD6
:1040BC008DB0046844F68478A7F1430C0B4642F2A9
:1040CC0010718C42C0F600083FD341F259794EF280
:1040DC00FF0E0020CDF2B71941F27B4A4FF0640B72
:1040EC00C0F2F55E0293A4FB09360CEB00056246A8
:1040FC00043874454FEA563303FB11461C461FFA2D
:10410C0086FC4FEA9C01944601FB0AF14FEA5141AF
:10411C0038F8112001FB1B61A5F8232089B238F86F
:10412C001110A5F8251042F21071DCD81C46029B28
:10413C0000F12701632C0BD820460A2819D338F834
:10414C00100002392CF8010017E02721632CF3D959
:10415C00A0B241F27B428008023950436422400CE9
:10416C0000FB124292B238F812202CF801200A28D7
:10417C00E5D2013930300CF80100C1F1270044F6CA
:10418C00F8626144C0F60002CDE900101846012126
:10419C000023FFF78BFB0DB0BDE8000FF0BDD0E99D
:1041AC000020C3681046184700680B46D0E900127F
:1041BC001846FFF7DEBC0B46D0E900121846FFF795
:1041CC00D8BCD1E9003102681846FFF798BAF0B5AF
:1041DC0003AF2DE900070F2A61D9434213F0030402
:1041EC0000EB040C16D003460E46357803F8015B41
:1041FC0063450FD2757803F8015B63453EBFB57814
:10420C0003F8015B634505D2F578043603F8015BCE
:10421C006345EAD3A2EB040E01EB04082EF003096C
:10422C0018F003010CEB09033CD0B9F1010F52DB80
:10423C004FEAC10A28F00301CAF1000601F1080592
:10424C00096806F0180621FA0AF255F8041C01FA5E
:10425C0006F422434CF8042B9C453CD221FA0AF27A
:10426C00296801FA06F422434CF8042B9C453FBF05
:10427C0021FA0AF2696801FA06F422433CBF4CF8B1
:10428C00042B9C4527D221FA0AF2A968103501FAB1
:10429C0006F422434CF8042B9C45D4D31BE0034674
:1042AC00F2B933E0B9F1010F15DB444621684CF843
:1042BC00041B9C450FD261684CF8041B9C453EBF07
:1042CC00A1684CF8041B9C4505D2E16810344CF8ED
:1042DC00041B9C45EAD308EB09010EF00302AAB1BA
:1042EC001A440E7803F8016B93420FD24E7803F800
:1042FC00016B93423EBF8E7803F8016B934205D25B
:10430C00CE78043103F8016B9342EAD3BDE8000781
:10431C00F0BDFFF75CBFFFF7FCBF704604210842FD
:10432C0003D1EFF3088000F004B8EFF3098000F03C
:04433C0000B8FEE7E0
:10434000617373657274696F6E206661696C656410
:104350003A206E203C20387573697A652F686F6D3E
:10436000652F7369642F2E636172676F2F726567A3
:1043700069737472792F7372632F696E6465782E16
:104380006372617465732E696F2D366631376432DE
:10439000326262613135303031662F73746D333281
:1043A0002D6D6574617061632D322E302E302F7348
:1043B00072632F63686970732F73746D3332663163
:1043C000303372622F2E2E2F2E2E2F706572697051
:1043D000686572616C732F6164635F66312E7273FE
:1043E0005C43000884000000480000004F0000000B
:1043F0002F686F6D652F7369642F2E636172676F0D
:104400002F6769742F636865636B6F7574732F65AD
:104410006D62617373792D39333132646362306553
:10442000643737346232392F303634656339352F8B
:10443000656D62617373792D73746D33322F73728E
:10444000632F6164632F66312E727300F04300089E
:104450005B000000290000001800000000000000C0
:10446000617474656D707420746F2064697669641A
:1044700065206279207A65726F000000F0430008C1
:104480005B0000003A000000180000002F686F6D0C
:10449000652F7369642F2E636172676F2F72656772
:1044A00069737472792F7372632F696E6465782EE5
:1044B0006372617465732E696F2D366631376432AD
:1044C000326262613135303031662F636F727465EC
:1044D000782D6D2D302E372E372F7372632F706528
:1044E000726970686572616C2F6E7669632E727383
:1044F0008C440008640000007900000009000000FE
:104500008C44000864000000F50000001200000068
:104510002F686F6D652F7369642F2E636172676FEB
:104520002F6769742F636865636B6F7574732F658C
:104530006D62617373792D39333132646362306532
:10454000643737346232392F303634656339352F6A
:10455000656D62617373792D73746D33322F73726D
:10456000632F75736172742F6D6F642E7273000008
:10457000104500085E000000490200000500000030
:10458000606173796E6320666E6020726573756D0D
:10459000656420616674657220636F6D706C65740C
:1045A000696F6E00104500085E0000009401000075
:1045B00005000000104500085E0000004C010000EE
:1045C00005000000104500085E000000B00000007B
:1045D00005000000104500085E000000E002000039
:1045E00005000000104500085E000000D102000038
:1045F0000500000063616C6C656420605265737532
:104600006C743A3A756E77726170282960206F6E0B
:1046100020616E2060457272602076616C75650065
:10462000290F0008000000000100000035310008DB
:104630007372632F6D61696E2E72730030460008CD
:104640000B0000003900000009000000000000001D
:10465000617474656D707420746F20646976696428
:1046600065206279207A65726F000000304600088C
:104670000B0000005E000000320000003046000821
:104680000B0000006F0000000A000000495251209A
:10469000416C72656164792074616B656E00000025
:1046A0008C46000811000000304600080B00000096
:1046B000710000000F00000048656C6C6F20456DB4
:1046C000626173737920576F726C64210D0A000068
:1046D000C11000080400000004000000C31000081E
:1046E0006465666D74206C6F676765722074616BBA
:1046F000656E207265656E7472616E746C7900000F
:10470000E04600081E0000002F686F6D652F73697A
:10471000642F2E636172676F2F726567697374729D
:10472000792F7372632F696E6465782E637261747A
:1047300065732E696F2D366631376432326262617D
:104740003135303031662F6465666D742D72747446
:104750002D302E342E302F7372632F6C69622E72BF
:104760007300000008470008590000003A000000EC
:104770000D0000002F686F6D652F7369642F2E6325
:104780006172676F2F72656769737472792F7372C4
:10479000632F696E6465782E6372617465732E6928
:1047A0006F2D3666313764323262626131353030B6
:1047B00031662F6465666D742D7274742D302E34DD
:1047C0002E302F7372632F6368616E6E656C2E726C
:1047D00073000000744700085D0000002500000021
:1047E0001A000000FC60DAF266B6BEE0FEF6EE3EAD
:1047F0009C7A9E8E0100FD61DBF367B7BFE1FFF796
:10480000EF3F9D7B9F8F7372632F736567656D6547
:104810006E74732E727300000648000810000000CA
:104820006F0000001B0000000102030405060700E2
:10483000000401050206030700000001000000015A
:104840000001000000010000000000010000000164
:104850000001000000010000696E646578206F753A
:1048600074206F6620626F756E64733A2074686599
:10487000206C656E206973200000000200020000B9
:104880000000000200020000000000020002000020
:104890000000000200020000000080000000800014
:1048A0000000800000008000800000008000000008
:1048B00080000000800000002F686F6D652F736915
:1048C000642F2E636172676F2F72656769737472EC
:1048D000792F7372632F696E6465782E63726174C9
:1048E00065732E696F2D36663137643232626261CC
:1048F0003135303031662F636F727465782D6D2DD0
:10490000302E372E372F7372632F7065726970687F
:104910006572616C2F6E7669632E7273B8480008F9
:1049200064000000DE0000000D000000B848000830
:104930006400000079000000090000002F686F6D1E
:10494000652F7369642F2E636172676F2F676974B7
:104950002F636865636B6F7574732F656D62617328
:1049600073792D393331326463623065643737349B
:104970006232392F303634656339352F656D6261A7
:104980007373792D73746D33322F7372632F726367
:10499000632F66312E7273003C4900085B000000F3
:1049A00020000000120000000000000000000000D5
:1049B000617474656D707420746F206469766964C5
:1049C00065206279207A65726F0000003C4900081A
:1049D0005B0000002D0000001B0000003C490008A7
:1049E0005B000000450000001C0000003C4900087E
:1049F0005B000000570000001C0000003C4900085C
:104A00005B0000007E0000001D0000006173736504
:104A10007274696F6E206661696C65643A206E20FD
:104A20003C20387573697A652F686F6D652F7369DF
:104A3000642F2E636172676F2F726567697374727A
:104A4000792F7372632F696E6465782E6372617457
:104A500065732E696F2D366631376432326262615A
:104A60003135303031662F73746D33322D6D65748E
:104A7000617061632D322E302E302F7372632F637D
:104A8000686970732F73746D3332663130337262BC
:104A90002F2E2E2F2E2E2F70657269706865726111
:104AA0006C732F62646D615F76312E72730000004B
:104AB000284A0008850000001500000026000000BC
:104AC0002F686F6D652F7369642F2E636172676F36
:104AD0002F6769742F636865636B6F7574732F65D7
:104AE0006D62617373792D3933313264636230657D
:104AF000643737346232392F303634656339352FB5
:104B0000656D62617373792D73746D33322F7372B7
:104B1000632F646D612F62646D612E7273000000FB
:104B2000C04A00085D000000170100000D000000F1
:104B30002F686F6D652F7369642F2E636172676FC5
:104B40002F72656769737472792F7372632F696E40
:104B50006465782E6372617465732E696F2D366695
:104B600031376432326262613135303031662F6301
:104B70006F727465782D6D2D302E372E372F73722E
:104B8000632F7065726970686572616C2F6E7669EB
:104B9000632E7273304B000864000000790000003F
:104BA00009000000304B000864000000F500000020
:104BB00012000000617373657274696F6E20666124
:104BC000696C65643A206E203C20347573697A659F
:104BD0002F686F6D652F7369642F2E636172676F25
:104BE0002F72656769737472792F7372632F696EA0
:104BF0006465782E6372617465732E696F2D3666F5
:104C000031376432326262613135303031662F7350
:104C1000746D33322D6D6574617061632D322E3089
:104C20002E302F7372632F63686970732F73746DE6
:104C300033326631303372622F2E2E2F2E2E2F708C
:104C400065726970686572616C732F74696D6572E5
:104C50005F76312E72730000D04B00088600000092
:104C6000C902000039000000D04B00088600000097
:104C700051000000650000002F686F6D652F73699B
:104C8000642F2E636172676F2F6769742F63686585
:104C9000636B6F7574732F656D62617373792D39F2
:104CA0003331326463623065643737346232392FAE
:104CB000303634656339352F656D62617373792DD4
:104CC00073746D33322F7372632F75736172742F27
:104CD0006D6F642E72730000784C00085E00000057
:104CE000010300000F0000000000000000000000B1
:104CF000617474656D707420746F20646976696482
:104D000065206279207A65726F0004030201000059
:104D1000094D00080D4D00080C4D00080B4D000812
:104D20000A4D000842757379533100085D3100085F
:104D30005D3100089D3100082F686F6D652F736924
:104D4000642F2E636172676F2F7265676973747267
:104D5000792F7372632F696E6465782E6372617444
:104D600065732E696F2D3666313764323262626147
:104D70003135303031662F656D62617373792D7412
:104D8000696D652D302E312E302F7372632F64754F
:104D9000726174696F6E2E72736F766572666C6F76
:104DA00077207768656E20737562747261637469C9
:104DB0006E67206475726174696F6E73384D000898
:104DC000610000007B0000001F0000002F686F6D75
:104DD000652F7369642F2E636172676F2F72656729
:104DE00069737472792F7372632F696E6465782E9C
:104DF0006372617465732E696F2D36663137643264
:104E0000326262613135303031662F656D626173B7
:104E100073792D74696D652D302E312E302F73729C
:104E2000632F696E7374616E742E72736F76657220
:104E3000666C6F77207768656E20616464696E6761
:104E4000206475726174696F6E20746F20696E736F
:104E500074616E74CC4D0008600000007A000000A0
:104E60000E000000073300080400000004000000EA
:104E7000CF330008093300089B3300087C4E00083C
:104E800000000000FF6578706C69636974207061D0
:104E90006E69632F686F6D652F7369642F2E636170
:104EA00072676F2F72656769737472792F7372639B
:104EB0002F696E6465782E6372617465732E696FF5
:104EC0002D366631376432326262613135303031CD
:104ED000662F6465666D742D302E332E332F7372FA
:104EE000632F6C69622E7273934E000855000000A8
:104EF0007001000005000000F84E000800000000EE
:104F00003A000000F84E000800000000004F0008C2
:104F100001000000004F00080100000070616E6990
:104F2000636B65642061742027272C20284F0008BC
:104F300001000000294F000803000000EB340008C6
:104F40000000000001000000ED34000820627574CC
:104F50002074686520696E6465782069732000009C
:104F600058480008200000004C4F000812000000C4
:104F70003A200000F84E000800000000704F0008C2
:104F800002000000303030313032303330343035D0
:104F900030363037303830393130313131323133E9
:104FA00031343135313631373138313932303231CF
:104FB00032323233323432353236323732383239B5
:104FC00033303331333233333334333533363337AD
:104FD0003338333934303431343234333434343593
:104FE0003436343734383439353035313532353379
:104FF000353435353536353735383539363036315F
:105000003632363336343635363636373638363944
:10501000373037313732373337343735373637373C
:105020003738373938303831383238333834383522
:105030003836383738383839393039313932393308
:1050400039343935393639373938393972616E671B
:105050006520737461727420696E64657820206FB6
:105060007574206F662072616E676520666F7220AE
:10507000736C696365206F66206C656E6774682069
:105080004C500008120000005E5000082200000092
:105090005345474745522052545400000000000039
:1050A0000100000000000000300000201802002075
:1050B00000040000000000000000000001000000EB
:1050C0006465666D74000000FFFFFFFFFFFFFFFFD8
:1050D0000000000000000000FFFFFFFFFFFFFFFFD8
:1050E0000000000000000000FFFFFFFFFFFFFFFFC8
:1050F00000000000000000000000000000000000B0
:04000005080000ED02
:00000001FF
